{
    "contractName": "ContractExample",
    "abi": [
        {
            "inputs": [],
            "stateMutability": "nonpayable",
            "type": "constructor"
        },
        {
            "inputs": [
                {
                    "internalType": "address",
                    "name": "_token",
                    "type": "address"
                },
                {
                    "internalType": "address",
                    "name": "_to",
                    "type": "address"
                },
                {
                    "internalType": "uint256",
                    "name": "_amount",
                    "type": "uint256"
                }
            ],
            "name": "transferERC20tokens",
            "outputs": [],
            "stateMutability": "payable",
            "type": "function"
        }
    ],
    "bytecode": "608060405234801561001057600080fd5b50610168806100206000396000f3fe60806040526004361061001e5760003560e01c8063a780748a14610023575b600080fd5b6100366100313660046100cd565b610038565b005b60405163a9059cbb60e01b81526001600160a01b0383811660048301526024820183905284169063a9059cbb906044016020604051808303816000875af1158015610087573d6000803e3d6000fd5b505050506040513d601f19601f820116820180604052508101906100ab9190610109565b50505050565b80356001600160a01b03811681146100c857600080fd5b919050565b6000806000606084860312156100e257600080fd5b6100eb846100b1565b92506100f9602085016100b1565b9150604084013590509250925092565b60006020828403121561011b57600080fd5b8151801515811461012b57600080fd5b939250505056fea26469706673582212208239f95aaf776b898cd1ad1c6dba9554111fafe7751b5f70cdd04b25840f3ec664736f6c63430008100033",
    "sourcePath": "c:/Users/yanni/Documents/Formation Alyra/DefiStaking/contracts/ContractTransfer.sol",
    "compiler": {
        "name": "solc",
        "version": "0.8.16+commit.07a7930e"
    },
    "functionHashes": {
        "transferERC20tokens(address,address,uint256)": "a780748a"
    },
    "gasEstimates": {
        "creation": {
            "codeDepositCost": "72000",
            "executionCost": "123",
            "totalCost": "72123"
        },
        "external": {
            "transferERC20tokens(address,address,uint256)": "infinite"
        }
    }
}