{
    "contractName": "DepositLibrary",
    "abi": [
        {
            "inputs": [
                {
                    "components": [
                        {
                            "internalType": "address",
                            "name": "token",
                            "type": "address"
                        },
                        {
                            "internalType": "uint256",
                            "name": "liquidity",
                            "type": "uint256"
                        }
                    ],
                    "internalType": "struct DepositLibrary.Deposit[]",
                    "name": "_deposits",
                    "type": "tuple[]"
                },
                {
                    "internalType": "address",
                    "name": "_token",
                    "type": "address"
                }
            ],
            "name": "getIndexTokenStaked",
            "outputs": [
                {
                    "internalType": "uint256",
                    "name": "",
                    "type": "uint256"
                }
            ],
            "stateMutability": "pure",
            "type": "function"
        }
    ],
    "bytecode": "6102a961003a600b82828239805160001a60731461002d57634e487b7160e01b600052600060045260246000fd5b30600052607381538281f3fe73000000000000000000000000000000000000000030146080604052600436106100355760003560e01c80637657f2611461003a575b600080fd5b61004d610048366004610152565b61005f565b60405190815260200160405180910390f35b6000805b83518110156100bb57826001600160a01b031684828151811061008857610088610236565b6020026020010151600001516001600160a01b0316036100a95790506100c0565b806100b38161024c565b915050610063565b505081515b92915050565b634e487b7160e01b600052604160045260246000fd5b6040805190810167ffffffffffffffff811182821017156100ff576100ff6100c6565b60405290565b604051601f8201601f1916810167ffffffffffffffff8111828210171561012e5761012e6100c6565b604052919050565b80356001600160a01b038116811461014d57600080fd5b919050565b600080604080848603121561016657600080fd5b833567ffffffffffffffff8082111561017e57600080fd5b818601915086601f83011261019257600080fd5b81356020828211156101a6576101a66100c6565b6101b4818360051b01610105565b828152818101935060069290921b8401810191898311156101d457600080fd5b938101935b8285101561021b5785858b0312156101f15760008081fd5b6101f96100dc565b61020286610136565b81528583013583820152845293850193928101926101d9565b9650610228888201610136565b955050505050509250929050565b634e487b7160e01b600052603260045260246000fd5b60006001820161026c57634e487b7160e01b600052601160045260246000fd5b506001019056fea2646970667358221220c15c64f13e2062680fb5ac55c6753b7bc593f53857a4bedd17b671ce4614958864736f6c63430008100033",
    "sourcePath": "c:/Users/yanni/Documents/Formation Alyra/DefiStaking/contracts/DepositLibrary.sol",
    "compiler": {
        "name": "solc",
        "version": "0.8.16+commit.07a7930e"
    },
    "functionHashes": {
        "getIndexTokenStaked(DepositLibrary.Deposit[],address)": "7657f261"
    },
    "gasEstimates": {
        "creation": {
            "codeDepositCost": "136200",
            "executionCost": "214",
            "totalCost": "136414"
        },
        "external": {
            "getIndexTokenStaked(DepositLibrary.Deposit[],address)": "infinite"
        }
    }
}