{
    "contractName": "LiquidityExamples",
    "abi": [
        {
            "inputs": [
                {
                    "internalType": "contract INonfungiblePositionManager",
                    "name": "_nonfungiblePositionManager",
                    "type": "address"
                }
            ],
            "stateMutability": "nonpayable",
            "type": "constructor"
        },
        {
            "inputs": [],
            "name": "DAI",
            "outputs": [
                {
                    "internalType": "address",
                    "name": "",
                    "type": "address"
                }
            ],
            "stateMutability": "view",
            "type": "function"
        },
        {
            "inputs": [],
            "name": "USDC",
            "outputs": [
                {
                    "internalType": "address",
                    "name": "",
                    "type": "address"
                }
            ],
            "stateMutability": "view",
            "type": "function"
        },
        {
            "inputs": [
                {
                    "internalType": "uint256",
                    "name": "tokenId",
                    "type": "uint256"
                }
            ],
            "name": "collectAllFees",
            "outputs": [
                {
                    "internalType": "uint256",
                    "name": "amount0",
                    "type": "uint256"
                },
                {
                    "internalType": "uint256",
                    "name": "amount1",
                    "type": "uint256"
                }
            ],
            "stateMutability": "nonpayable",
            "type": "function"
        },
        {
            "inputs": [
                {
                    "internalType": "uint256",
                    "name": "tokenId",
                    "type": "uint256"
                }
            ],
            "name": "decreaseLiquidityInHalf",
            "outputs": [
                {
                    "internalType": "uint256",
                    "name": "amount0",
                    "type": "uint256"
                },
                {
                    "internalType": "uint256",
                    "name": "amount1",
                    "type": "uint256"
                }
            ],
            "stateMutability": "nonpayable",
            "type": "function"
        },
        {
            "inputs": [
                {
                    "internalType": "uint256",
                    "name": "",
                    "type": "uint256"
                }
            ],
            "name": "deposits",
            "outputs": [
                {
                    "internalType": "address",
                    "name": "owner",
                    "type": "address"
                },
                {
                    "internalType": "uint128",
                    "name": "liquidity",
                    "type": "uint128"
                },
                {
                    "internalType": "address",
                    "name": "token0",
                    "type": "address"
                },
                {
                    "internalType": "address",
                    "name": "token1",
                    "type": "address"
                }
            ],
            "stateMutability": "view",
            "type": "function"
        },
        {
            "inputs": [
                {
                    "internalType": "uint256",
                    "name": "tokenId",
                    "type": "uint256"
                },
                {
                    "internalType": "uint256",
                    "name": "amountAdd0",
                    "type": "uint256"
                },
                {
                    "internalType": "uint256",
                    "name": "amountAdd1",
                    "type": "uint256"
                }
            ],
            "name": "increaseLiquidityCurrentRange",
            "outputs": [
                {
                    "internalType": "uint128",
                    "name": "liquidity",
                    "type": "uint128"
                },
                {
                    "internalType": "uint256",
                    "name": "amount0",
                    "type": "uint256"
                },
                {
                    "internalType": "uint256",
                    "name": "amount1",
                    "type": "uint256"
                }
            ],
            "stateMutability": "nonpayable",
            "type": "function"
        },
        {
            "inputs": [],
            "name": "mintNewPosition",
            "outputs": [
                {
                    "internalType": "uint256",
                    "name": "tokenId",
                    "type": "uint256"
                },
                {
                    "internalType": "uint128",
                    "name": "liquidity",
                    "type": "uint128"
                },
                {
                    "internalType": "uint256",
                    "name": "amount0",
                    "type": "uint256"
                },
                {
                    "internalType": "uint256",
                    "name": "amount1",
                    "type": "uint256"
                }
            ],
            "stateMutability": "nonpayable",
            "type": "function"
        },
        {
            "inputs": [],
            "name": "nonfungiblePositionManager",
            "outputs": [
                {
                    "internalType": "contract INonfungiblePositionManager",
                    "name": "",
                    "type": "address"
                }
            ],
            "stateMutability": "view",
            "type": "function"
        },
        {
            "inputs": [
                {
                    "internalType": "address",
                    "name": "operator",
                    "type": "address"
                },
                {
                    "internalType": "address",
                    "name": "",
                    "type": "address"
                },
                {
                    "internalType": "uint256",
                    "name": "tokenId",
                    "type": "uint256"
                },
                {
                    "internalType": "bytes",
                    "name": "",
                    "type": "bytes"
                }
            ],
            "name": "onERC721Received",
            "outputs": [
                {
                    "internalType": "bytes4",
                    "name": "",
                    "type": "bytes4"
                }
            ],
            "stateMutability": "nonpayable",
            "type": "function"
        },
        {
            "inputs": [],
            "name": "poolFee",
            "outputs": [
                {
                    "internalType": "uint24",
                    "name": "",
                    "type": "uint24"
                }
            ],
            "stateMutability": "view",
            "type": "function"
        },
        {
            "inputs": [
                {
                    "internalType": "uint256",
                    "name": "tokenId",
                    "type": "uint256"
                }
            ],
            "name": "retrieveNFT",
            "outputs": [],
            "stateMutability": "nonpayable",
            "type": "function"
        }
    ],
    "bytecode": "60a060405234801561001057600080fd5b506040516115c33803806115c383398101604081905261002f91610040565b6001600160a01b0316608052610070565b60006020828403121561005257600080fd5b81516001600160a01b038116811461006957600080fd5b9392505050565b6080516114e46100df600039600081816102760152818161033001528181610466015281816104a50152818161057f01528181610642015281816106b90152818161077f01528181610876015281816108bc0152818161094b01528181610abc0152610b4f01526114e46000f3fe608060405234801561001057600080fd5b50600436106100a95760003560e01c8063617d6d6e11610071578063617d6d6e146101695780638187b4c5146101a157806389a30271146101b4578063b02c43d0146101e7578063b44a272214610271578063e0bab4c41461029857600080fd5b8063089fe6aa146100ae5780630a1d7c5f146100d0578063150b7a02146100e5578063306d9c611461011157806346ce96dd14610141575b600080fd5b6100b7610bb881565b60405162ffffff90911681526020015b60405180910390f35b6100e36100de366004611045565b6102b3565b005b6100f86100f3366004611076565b6103e5565b6040516001600160e01b031990911681526020016100c7565b610119610403565b604080519485526001600160801b0390931660208501529183015260608201526080016100c7565b61015461014f366004611045565b610717565b604080519283526020830191909152016100c7565b61017c610177366004611115565b610803565b604080516001600160801b0390941684526020840192909252908201526060016100c7565b6101546101af366004611045565b6109d0565b6101cf73a0b86991c6218b36c1d19d4a2e9eb0ce3606eb4881565b6040516001600160a01b0390911681526020016100c7565b6102356101f5366004611045565b60006020819052908152604090208054600182015460028301546003909301546001600160a01b03928316936001600160801b0390921692918216911684565b604080516001600160a01b0395861681526001600160801b039094166020850152918416918301919091529190911660608201526080016100c7565b6101cf7f000000000000000000000000000000000000000000000000000000000000000081565b6101cf736b175474e89094c44da98b954eedeac495271d0f81565b6000818152602081905260409020546001600160a01b0316331461030e5760405162461bcd60e51b815260206004820152600d60248201526c2737ba103a34329037bbb732b960991b60448201526064015b60405180910390fd5b604051632142170760e11b8152306004820152336024820152604481018290527f00000000000000000000000000000000000000000000000000000000000000006001600160a01b0316906342842e0e90606401600060405180830381600087803b15801561037c57600080fd5b505af1158015610390573d6000803e3d6000fd5b50505060009182525060208190526040902080546001600160a01b031990811682556001820180546fffffffffffffffffffffffffffffffff1916905560028201805482169055600390910180549091169055565b60006103f18685610b48565b50630a85bd0160e11b95945050505050565b60008080806103e88061042c736b175474e89094c44da98b954eedeac495271d0f333084610d01565b61044c73a0b86991c6218b36c1d19d4a2e9eb0ce3606eb48333084610d01565b61048b736b175474e89094c44da98b954eedeac495271d0f7f000000000000000000000000000000000000000000000000000000000000000084610e0b565b6104ca73a0b86991c6218b36c1d19d4a2e9eb0ce3606eb487f000000000000000000000000000000000000000000000000000000000000000083610e0b565b6000604051806101600160405280736b175474e89094c44da98b954eedeac495271d0f6001600160a01b0316815260200173a0b86991c6218b36c1d19d4a2e9eb0ce3606eb486001600160a01b03168152602001610bb862ffffff168152602001620d89e71960020b8152602001620d89e71961054690611157565b60020b81526020018481526020018381526020016000815260200160008152602001306001600160a01b031681526020014281525090507f00000000000000000000000000000000000000000000000000000000000000006001600160a01b03166388316456826040518263ffffffff1660e01b81526004016105c99190611179565b6080604051808303816000875af11580156105e8573d6000803e3d6000fd5b505050506040513d601f19601f8201168201806040525081019061060c9190611259565b929950909750955093506106203388610b48565b8285101561069757610668736b175474e89094c44da98b954eedeac495271d0f7f00000000000000000000000000000000000000000000000000000000000000006000610e0b565b60006106748685611295565b9050610695736b175474e89094c44da98b954eedeac495271d0f3383610f0b565b505b8184101561070e576106df73a0b86991c6218b36c1d19d4a2e9eb0ce3606eb487f00000000000000000000000000000000000000000000000000000000000000006000610e0b565b60006106eb8584611295565b905061070c73a0b86991c6218b36c1d19d4a2e9eb0ce3606eb483383610f0b565b505b50505090919293565b6040805160808101825282815230602082019081526001600160801b0382840181815260608401828152945163fc6f786560e01b81528451600482015292516001600160a01b03908116602485015290518216604484015293511660648201526000928392917f00000000000000000000000000000000000000000000000000000000000000009091169063fc6f78659060840160408051808303816000875af11580156107c9573d6000803e3d6000fd5b505050506040513d601f19601f820116820180604052508101906107ed91906112ac565b90935091506107fd848484611004565b50915091565b6000838152602081905260408120600201548190819061082e906001600160a01b0316333088610d01565b600086815260208190526040902060030154610855906001600160a01b0316333087610d01565b60008681526020819052604090206002015461089b906001600160a01b03167f000000000000000000000000000000000000000000000000000000000000000087610e0b565b6000868152602081905260409020600301546108e1906001600160a01b03167f000000000000000000000000000000000000000000000000000000000000000086610e0b565b6040805160c08101825287815260208101878152818301878152600060608401818152608085019182524260a08601908152955163219f5d1760e01b815285516004820152935160248501529151604484015290516064830152516084820152915160a4830152907f00000000000000000000000000000000000000000000000000000000000000006001600160a01b03169063219f5d179060c4016060604051808303816000875af115801561099c573d6000803e3d6000fd5b505050506040513d601f19601f820116820180604052508101906109c091906112d0565b9199909850909650945050505050565b60008181526020819052604081205481906001600160a01b03163314610a285760405162461bcd60e51b815260206004820152600d60248201526c2737ba103a34329037bbb732b960991b6044820152606401610305565b6000838152602081905260408120600101546001600160801b031690610a4f600283611305565b6040805160a0810182528781526001600160801b038381166020830190815260008385018181526060850191825242608086019081529551630624e65f60e11b815285516004820152925190931660248301529151604482015290516064820152915160848301529192507f00000000000000000000000000000000000000000000000000000000000000006001600160a01b031690630c49ccbe9060a40160408051808303816000875af1158015610b0c573d6000803e3d6000fd5b505050506040513d601f19601f82011682018060405250810190610b3091906112ac565b9095509350610b40868686611004565b505050915091565b60008060007f00000000000000000000000000000000000000000000000000000000000000006001600160a01b03166399fbab88856040518263ffffffff1660e01b8152600401610b9b91815260200190565b61018060405180830381865afa158015610bb9573d6000803e3d6000fd5b505050506040513d601f19601f82011682018060405250810190610bdd9190611369565b5050505097505050509450945050506040518060800160405280866001600160a01b03168152602001826001600160801b03168152602001846001600160a01b03168152602001836001600160a01b031681525060008086815260200190815260200160002060008201518160000160006101000a8154816001600160a01b0302191690836001600160a01b0316021790555060208201518160010160006101000a8154816001600160801b0302191690836001600160801b0316021790555060408201518160020160006101000a8154816001600160a01b0302191690836001600160a01b0316021790555060608201518160030160006101000a8154816001600160a01b0302191690836001600160a01b031602179055509050505050505050565b604080516001600160a01b0385811660248301528481166044830152606480830185905283518084039091018152608490920183526020820180516001600160e01b03166323b872dd60e01b1790529151600092839290881691610d65919061144a565b6000604051808303816000865af19150503d8060008114610da2576040519150601f19603f3d011682016040523d82523d6000602084013e610da7565b606091505b5091509150818015610dd1575080511580610dd1575080806020019051810190610dd19190611485565b610e035760405162461bcd60e51b815260206004820152600360248201526229aa2360e91b6044820152606401610305565b505050505050565b604080516001600160a01b038481166024830152604480830185905283518084039091018152606490920183526020820180516001600160e01b031663095ea7b360e01b1790529151600092839290871691610e67919061144a565b6000604051808303816000865af19150503d8060008114610ea4576040519150601f19603f3d011682016040523d82523d6000602084013e610ea9565b606091505b5091509150818015610ed3575080511580610ed3575080806020019051810190610ed39190611485565b610f045760405162461bcd60e51b8152602060048201526002602482015261534160f01b6044820152606401610305565b5050505050565b604080516001600160a01b038481166024830152604480830185905283518084039091018152606490920183526020820180516001600160e01b031663a9059cbb60e01b1790529151600092839290871691610f67919061144a565b6000604051808303816000865af19150503d8060008114610fa4576040519150601f19603f3d011682016040523d82523d6000602084013e610fa9565b606091505b5091509150818015610fd3575080511580610fd3575080806020019051810190610fd39190611485565b610f045760405162461bcd60e51b815260206004820152600260248201526114d560f21b6044820152606401610305565b6000838152602081905260409020805460028201546003909201546001600160a01b03918216928216911661103a828487610f0b565b610e03818486610f0b565b60006020828403121561105757600080fd5b5035919050565b6001600160a01b038116811461107357600080fd5b50565b60008060008060006080868803121561108e57600080fd5b85356110998161105e565b945060208601356110a98161105e565b935060408601359250606086013567ffffffffffffffff808211156110cd57600080fd5b818801915088601f8301126110e157600080fd5b8135818111156110f057600080fd5b89602082850101111561110257600080fd5b9699959850939650602001949392505050565b60008060006060848603121561112a57600080fd5b505081359360208301359350604090920135919050565b634e487b7160e01b600052601160045260246000fd5b60008160020b627fffff19810361117057611170611141565b60000392915050565b81516001600160a01b03168152610160810160208301516111a560208401826001600160a01b03169052565b5060408301516111bc604084018262ffffff169052565b5060608301516111d1606084018260020b9052565b5060808301516111e6608084018260020b9052565b5060a083015160a083015260c083015160c083015260e083015160e08301526101008084015181840152506101208084015161122c828501826001600160a01b03169052565b505061014092830151919092015290565b80516001600160801b038116811461125457600080fd5b919050565b6000806000806080858703121561126f57600080fd5b8451935061127f6020860161123d565b6040860151606090960151949790965092505050565b6000828210156112a7576112a7611141565b500390565b600080604083850312156112bf57600080fd5b505080516020909101519092909150565b6000806000606084860312156112e557600080fd5b6112ee8461123d565b925060208401519150604084015190509250925092565b60006001600160801b038084168061132d57634e487b7160e01b600052601260045260246000fd5b92169190910492915050565b80516112548161105e565b805162ffffff8116811461125457600080fd5b8051600281900b811461125457600080fd5b6000806000806000806000806000806000806101808d8f03121561138c57600080fd5b8c516bffffffffffffffffffffffff811681146113a857600080fd5b9b506113b660208e01611339565b9a506113c460408e01611339565b99506113d260608e01611339565b98506113e060808e01611344565b97506113ee60a08e01611357565b96506113fc60c08e01611357565b955061140a60e08e0161123d565b94506101008d015193506101208d015192506114296101408e0161123d565b91506114386101608e0161123d565b90509295989b509295989b509295989b565b6000825160005b8181101561146b5760208186018101518583015201611451565b8181111561147a576000828501525b509190910192915050565b60006020828403121561149757600080fd5b815180151581146114a757600080fd5b939250505056fea26469706673582212204174b0630a56369e1f57e24cb787d9aac012f6608babc75cfb6e93eda935bb6964736f6c634300080e0033",
    "sourcePath": "c:/Users/yanni/Documents/Formation Alyra/Staking2/contracts/LiquidityExamples.sol",
    "compiler": {
        "name": "solc",
        "version": "0.8.14+commit.80d49f37"
    },
    "functionHashes": {
        "DAI()": "e0bab4c4",
        "USDC()": "89a30271",
        "collectAllFees(uint256)": "46ce96dd",
        "decreaseLiquidityInHalf(uint256)": "8187b4c5",
        "deposits(uint256)": "b02c43d0",
        "increaseLiquidityCurrentRange(uint256,uint256,uint256)": "617d6d6e",
        "mintNewPosition()": "306d9c61",
        "nonfungiblePositionManager()": "b44a2722",
        "onERC721Received(address,address,uint256,bytes)": "150b7a02",
        "poolFee()": "089fe6aa",
        "retrieveNFT(uint256)": "0a1d7c5f"
    },
    "gasEstimates": {
        "creation": {
            "codeDepositCost": "1069600",
            "executionCost": "infinite",
            "totalCost": "infinite"
        },
        "external": {
            "DAI()": "326",
            "USDC()": "260",
            "collectAllFees(uint256)": "infinite",
            "decreaseLiquidityInHalf(uint256)": "infinite",
            "deposits(uint256)": "9032",
            "increaseLiquidityCurrentRange(uint256,uint256,uint256)": "infinite",
            "mintNewPosition()": "infinite",
            "nonfungiblePositionManager()": "infinite",
            "onERC721Received(address,address,uint256,bytes)": "infinite",
            "poolFee()": "194",
            "retrieveNFT(uint256)": "infinite"
        },
        "internal": {
            "_createDeposit(address,uint256)": "infinite",
            "_sendToOwner(uint256,uint256,uint256)": "infinite"
        }
    }
}