{
    "contractName": "Staking",
    "abi": [
        {
            "inputs": [
                {
                    "internalType": "uint256",
                    "name": "initialSupply",
                    "type": "uint256"
                }
            ],
            "stateMutability": "nonpayable",
            "type": "constructor"
        },
        {
            "anonymous": false,
            "inputs": [
                {
                    "indexed": false,
                    "internalType": "address",
                    "name": "staker",
                    "type": "address"
                },
                {
                    "indexed": false,
                    "internalType": "uint256",
                    "name": "amount",
                    "type": "uint256"
                }
            ],
            "name": "reward",
            "type": "event"
        },
        {
            "anonymous": false,
            "inputs": [
                {
                    "indexed": false,
                    "internalType": "address",
                    "name": "staker",
                    "type": "address"
                },
                {
                    "indexed": false,
                    "internalType": "address",
                    "name": "token",
                    "type": "address"
                },
                {
                    "indexed": false,
                    "internalType": "uint256",
                    "name": "amount",
                    "type": "uint256"
                }
            ],
            "name": "stake",
            "type": "event"
        },
        {
            "anonymous": false,
            "inputs": [
                {
                    "indexed": false,
                    "internalType": "address",
                    "name": "staker",
                    "type": "address"
                },
                {
                    "indexed": false,
                    "internalType": "address",
                    "name": "token",
                    "type": "address"
                },
                {
                    "indexed": false,
                    "internalType": "uint256",
                    "name": "amount",
                    "type": "uint256"
                }
            ],
            "name": "unStake",
            "type": "event"
        },
        {
            "inputs": [
                {
                    "internalType": "address",
                    "name": "",
                    "type": "address"
                },
                {
                    "internalType": "uint256",
                    "name": "",
                    "type": "uint256"
                }
            ],
            "name": "DepositList",
            "outputs": [
                {
                    "internalType": "address",
                    "name": "token",
                    "type": "address"
                },
                {
                    "internalType": "uint256",
                    "name": "liquidity",
                    "type": "uint256"
                }
            ],
            "stateMutability": "view",
            "type": "function"
        },
        {
            "inputs": [
                {
                    "internalType": "address",
                    "name": "_token",
                    "type": "address"
                },
                {
                    "internalType": "uint256",
                    "name": "_amount",
                    "type": "uint256"
                },
                {
                    "internalType": "address",
                    "name": "_priceFeedContract",
                    "type": "address"
                }
            ],
            "name": "Stake",
            "outputs": [],
            "stateMutability": "nonpayable",
            "type": "function"
        },
        {
            "inputs": [
                {
                    "internalType": "uint256",
                    "name": "",
                    "type": "uint256"
                }
            ],
            "name": "Stakers",
            "outputs": [
                {
                    "internalType": "address",
                    "name": "",
                    "type": "address"
                }
            ],
            "stateMutability": "view",
            "type": "function"
        },
        {
            "inputs": [],
            "name": "TVL",
            "outputs": [
                {
                    "internalType": "uint256",
                    "name": "",
                    "type": "uint256"
                }
            ],
            "stateMutability": "view",
            "type": "function"
        },
        {
            "inputs": [
                {
                    "internalType": "address",
                    "name": "_token",
                    "type": "address"
                },
                {
                    "internalType": "uint256",
                    "name": "_amount",
                    "type": "uint256"
                },
                {
                    "internalType": "address",
                    "name": "_priceFeedContract",
                    "type": "address"
                }
            ],
            "name": "UnstakePosition",
            "outputs": [],
            "stateMutability": "nonpayable",
            "type": "function"
        },
        {
            "inputs": [
                {
                    "internalType": "address",
                    "name": "_staker",
                    "type": "address"
                }
            ],
            "name": "getDeposit",
            "outputs": [
                {
                    "components": [
                        {
                            "internalType": "address",
                            "name": "token",
                            "type": "address"
                        },
                        {
                            "internalType": "uint256",
                            "name": "liquidity",
                            "type": "uint256"
                        }
                    ],
                    "internalType": "struct Staking.Deposit[]",
                    "name": "",
                    "type": "tuple[]"
                }
            ],
            "stateMutability": "view",
            "type": "function"
        },
        {
            "inputs": [
                {
                    "internalType": "address",
                    "name": "_staker",
                    "type": "address"
                },
                {
                    "internalType": "address",
                    "name": "_token",
                    "type": "address"
                }
            ],
            "name": "getIndexTokenStaked",
            "outputs": [
                {
                    "internalType": "uint256",
                    "name": "",
                    "type": "uint256"
                }
            ],
            "stateMutability": "view",
            "type": "function"
        },
        {
            "inputs": [],
            "name": "rate",
            "outputs": [
                {
                    "internalType": "uint256",
                    "name": "",
                    "type": "uint256"
                }
            ],
            "stateMutability": "view",
            "type": "function"
        },
        {
            "inputs": [],
            "name": "token",
            "outputs": [
                {
                    "internalType": "contract BlueToken",
                    "name": "",
                    "type": "address"
                }
            ],
            "stateMutability": "view",
            "type": "function"
        },
        {
            "stateMutability": "payable",
            "type": "receive"
        }
    ],
    "bytecode": "608060405260c8600155600060025534801561001a57600080fd5b50604051611c33380380611c33833981016040819052610039916100aa565b806040516100469061009d565b908152602001604051809103906000f080158015610068573d6000803e3d6000fd5b50600080546001600160a01b0319166001600160a01b039290921691909117905561009460c8826100c3565b600255506100e5565b610bd98061105a83390190565b6000602082840312156100bc57600080fd5b5051919050565b6000826100e057634e487b7160e01b600052601260045260246000fd5b500490565b610f66806100f46000396000f3fe60806040526004361061008a5760003560e01c8063cc2e016311610059578063cc2e016314610139578063deef9f9214610159578063e1254fba14610198578063edaf2d2e146101c5578063fc0c546a146101db57600080fd5b80632c4e722e146100965780638a145871146100bf5780638c2f6887146100df578063bd15031b1461011757600080fd5b3661009157005b600080fd5b3480156100a257600080fd5b506100ac60015481565b6040519081526020015b60405180910390f35b3480156100cb57600080fd5b506100ac6100da366004610cb1565b6101fb565b3480156100eb57600080fd5b506100ff6100fa366004610ce4565b6102a8565b6040516001600160a01b0390911681526020016100b6565b34801561012357600080fd5b50610137610132366004610cfd565b6102d2565b005b34801561014557600080fd5b50610137610154366004610cfd565b610619565b34801561016557600080fd5b50610179610174366004610d39565b61084d565b604080516001600160a01b0390931683526020830191909152016100b6565b3480156101a457600080fd5b506101b86101b3366004610d63565b610893565b6040516100b69190610d7e565b3480156101d157600080fd5b506100ac60025481565b3480156101e757600080fd5b506000546100ff906001600160a01b031681565b6000805b6001600160a01b038416600090815260046020526040902054811015610286576001600160a01b0384811660009081526004602052604090208054918516918390811061024e5761024e610dd6565b60009182526020909120600290910201546001600160a01b0316036102745790506102a2565b8061027e81610e02565b9150506101ff565b50506001600160a01b0382166000908152600460205260409020545b92915050565b600381815481106102b857600080fd5b6000918252602090912001546001600160a01b0316905081565b336000908152600460205260409020546103335760405162461bcd60e51b815260206004820181905260248201527f596f7520646f6e2774206861766520616e7920746f6b656e73207374616b656460448201526064015b60405180910390fd5b600061033f33856101fb565b336000908152600460205260409020549091508190036103a15760405162461bcd60e51b815260206004820152601a60248201527f596f7520646f6e2774207374616b65207468697320746f6b656e000000000000604482015260640161032a565b3360009081526004602052604090208054849190839081106103c5576103c5610dd6565b906000526020600020906002020160010154106104345760405162461bcd60e51b815260206004820152602760248201527f596f7520646f6e27742920686176652074686174206d616e7920746f6b656e73604482015266081cdd185ad95960ca1b606482015260840161032a565b816104496001600160a01b038616338661091e565b33600090815260046020526040902080548591908490811061046d5761046d610dd6565b906000526020600020906002020160010154036104f6576040805180820182526000808252602080830182905233825260049052919091208054849081106104b7576104b7610dd6565b600091825260209182902083516002929092020180546001600160a01b0319166001600160a01b03909216919091178155910151600190910155610540565b33600090815260046020526040902080548591908490811061051a5761051a610dd6565b9060005260206000209060020201600101600082825461053a9190610e1b565b90915550505b600084826001600160a01b0316638e15f4736040518163ffffffff1660e01b8152600401602060405180830381865afa158015610581573d6000803e3d6000fd5b505050506040513d601f19601f820116820180604052508101906105a59190610e2e565b6105af9190610e47565b905080600260008282546105c39190610e1b565b9091555050604080513381526001600160a01b03881660208201529081018690527f02ecccdc1038b6743ff964c47b7a07c31a71632f4a8039815930a94fda3e06d09060600160405180910390a1505050505050565b67016345785d8a000082101561067d5760405162461bcd60e51b815260206004820152602360248201527f796f752063616e2774207374616b65206c657373207468616e20302e312065746044820152623432b960e91b606482015260840161032a565b806106936001600160a01b038516333086610986565b600061069f33866101fb565b336000908152600460205260409020549091508114610707573360009081526004602052604090208054859190839081106106dc576106dc610dd6565b906000526020600020906002020160010160008282546106fc9190610e66565b9091555061076a9050565b33600090815260046020908152604080832081518083019092526001600160a01b038981168352828401898152825460018082018555938752949095209251600290940290920180546001600160a01b0319169390921692909217815591519101555b600084836001600160a01b0316638e15f4736040518163ffffffff1660e01b8152600401602060405180830381865afa1580156107ab573d6000803e3d6000fd5b505050506040513d601f19601f820116820180604052508101906107cf9190610e2e565b6107d99190610e47565b905080600260008282546107ed9190610e66565b9091555050604080513381526001600160a01b03881660208201529081018690527fbf6eac2f4b953b5538a7beedc8a7fa29bc34b3b2029a1c4d794d946c2c5014389060600160405180910390a161084533826109c4565b505050505050565b6004602052816000526040600020818154811061086957600080fd5b6000918252602090912060029091020180546001909101546001600160a01b039091169250905082565b6001600160a01b0381166000908152600460209081526040808320805482518185028101850190935280835260609492939192909184015b82821015610913576000848152602090819020604080518082019091526002850290910180546001600160a01b031682526001908101548284015290835290920191016108cb565b505050509050919050565b6040516001600160a01b03831660248201526044810182905261098190849063a9059cbb60e01b906064015b60408051601f198184030181529190526020810180516001600160e01b03166001600160e01b031990931692909217909152610a40565b505050565b6040516001600160a01b03808516602483015283166044820152606481018290526109be9085906323b872dd60e01b9060840161094a565b50505050565b6002546000906109d58360c8610e47565b6109df9190610e79565b6000549091506109f9906001600160a01b0316848361091e565b604080516001600160a01b0385168152602081018390527f21670f22ea41f8b13717112c8e6b8ce3ce14489a7077e04b5885e575645b9e52910160405180910390a1505050565b6000610a95826040518060400160405280602081526020017f5361666545524332303a206c6f772d6c6576656c2063616c6c206661696c6564815250856001600160a01b0316610b129092919063ffffffff16565b8051909150156109815780806020019051810190610ab39190610e9b565b6109815760405162461bcd60e51b815260206004820152602a60248201527f5361666545524332303a204552433230206f7065726174696f6e20646964206e6044820152691bdd081cdd58d8d9595960b21b606482015260840161032a565b6060610b218484600085610b2b565b90505b9392505050565b606082471015610b8c5760405162461bcd60e51b815260206004820152602660248201527f416464726573733a20696e73756666696369656e742062616c616e636520666f6044820152651c8818d85b1b60d21b606482015260840161032a565b6001600160a01b0385163b610be35760405162461bcd60e51b815260206004820152601d60248201527f416464726573733a2063616c6c20746f206e6f6e2d636f6e7472616374000000604482015260640161032a565b600080866001600160a01b03168587604051610bff9190610ee1565b60006040518083038185875af1925050503d8060008114610c3c576040519150601f19603f3d011682016040523d82523d6000602084013e610c41565b606091505b5091509150610c51828286610c5c565b979650505050505050565b60608315610c6b575081610b24565b825115610c7b5782518084602001fd5b8160405162461bcd60e51b815260040161032a9190610efd565b80356001600160a01b0381168114610cac57600080fd5b919050565b60008060408385031215610cc457600080fd5b610ccd83610c95565b9150610cdb60208401610c95565b90509250929050565b600060208284031215610cf657600080fd5b5035919050565b600080600060608486031215610d1257600080fd5b610d1b84610c95565b925060208401359150610d3060408501610c95565b90509250925092565b60008060408385031215610d4c57600080fd5b610d5583610c95565b946020939093013593505050565b600060208284031215610d7557600080fd5b610b2482610c95565b602080825282518282018190526000919060409081850190868401855b82811015610dc957815180516001600160a01b03168552860151868501529284019290850190600101610d9b565b5091979650505050505050565b634e487b7160e01b600052603260045260246000fd5b634e487b7160e01b600052601160045260246000fd5b600060018201610e1457610e14610dec565b5060010190565b818103818111156102a2576102a2610dec565b600060208284031215610e4057600080fd5b5051919050565b6000816000190483118215151615610e6157610e61610dec565b500290565b808201808211156102a2576102a2610dec565b600082610e9657634e487b7160e01b600052601260045260246000fd5b500490565b600060208284031215610ead57600080fd5b81518015158114610b2457600080fd5b60005b83811015610ed8578181015183820152602001610ec0565b50506000910152565b60008251610ef3818460208701610ebd565b9190910192915050565b6020815260008251806020840152610f1c816040850160208701610ebd565b601f01601f1916919091016040019291505056fea26469706673582212205160a913edf0710aec3120775c7d66dffce49105ccff649a86b692f0c17325f064736f6c6343000810003360806040523480156200001157600080fd5b5060405162000bd938038062000bd983398101604081905262000034916200019b565b6040518060400160405280600981526020016821363ab2aa37b5b2b760b91b8152506040518060400160405280600381526020016210931560ea1b815250816003908162000083919062000259565b50600462000092828262000259565b505050620000a73382620000ae60201b60201c565b506200034d565b6001600160a01b038216620001095760405162461bcd60e51b815260206004820152601f60248201527f45524332303a206d696e7420746f20746865207a65726f206164647265737300604482015260640160405180910390fd5b80600260008282546200011d919062000325565b90915550506001600160a01b038216600090815260208190526040812080548392906200014c90849062000325565b90915550506040518181526001600160a01b038316906000907fddf252ad1be2c89b69c2b068fc378daa952ba7f163c4a11628f55a4df523b3ef9060200160405180910390a35050565b505050565b600060208284031215620001ae57600080fd5b5051919050565b634e487b7160e01b600052604160045260246000fd5b600181811c90821680620001e057607f821691505b6020821081036200020157634e487b7160e01b600052602260045260246000fd5b50919050565b601f8211156200019657600081815260208120601f850160051c81016020861015620002305750805b601f850160051c820191505b8181101562000251578281556001016200023c565b505050505050565b81516001600160401b03811115620002755762000275620001b5565b6200028d81620002868454620001cb565b8462000207565b602080601f831160018114620002c55760008415620002ac5750858301515b600019600386901b1c1916600185901b17855562000251565b600085815260208120601f198616915b82811015620002f657888601518255948401946001909101908401620002d5565b5085821015620003155787850151600019600388901b60f8161c191681555b5050505050600190811b01905550565b808201808211156200034757634e487b7160e01b600052601160045260246000fd5b92915050565b61087c806200035d6000396000f3fe608060405234801561001057600080fd5b50600436106100a95760003560e01c80633950935111610071578063395093511461012357806370a082311461013657806395d89b411461015f578063a457c2d714610167578063a9059cbb1461017a578063dd62ed3e1461018d57600080fd5b806306fdde03146100ae578063095ea7b3146100cc57806318160ddd146100ef57806323b872dd14610101578063313ce56714610114575b600080fd5b6100b66101a0565b6040516100c391906106c6565b60405180910390f35b6100df6100da366004610730565b610232565b60405190151581526020016100c3565b6002545b6040519081526020016100c3565b6100df61010f36600461075a565b61024c565b604051601281526020016100c3565b6100df610131366004610730565b610270565b6100f3610144366004610796565b6001600160a01b031660009081526020819052604090205490565b6100b6610292565b6100df610175366004610730565b6102a1565b6100df610188366004610730565b610321565b6100f361019b3660046107b8565b61032f565b6060600380546101af906107eb565b80601f01602080910402602001604051908101604052809291908181526020018280546101db906107eb565b80156102285780601f106101fd57610100808354040283529160200191610228565b820191906000526020600020905b81548152906001019060200180831161020b57829003601f168201915b5050505050905090565b60003361024081858561035a565b60019150505b92915050565b60003361025a85828561047e565b6102658585856104f8565b506001949350505050565b600033610240818585610283838361032f565b61028d9190610825565b61035a565b6060600480546101af906107eb565b600033816102af828661032f565b9050838110156103145760405162461bcd60e51b815260206004820152602560248201527f45524332303a2064656372656173656420616c6c6f77616e63652062656c6f77604482015264207a65726f60d81b60648201526084015b60405180910390fd5b610265828686840361035a565b6000336102408185856104f8565b6001600160a01b03918216600090815260016020908152604080832093909416825291909152205490565b6001600160a01b0383166103bc5760405162461bcd60e51b8152602060048201526024808201527f45524332303a20617070726f76652066726f6d20746865207a65726f206164646044820152637265737360e01b606482015260840161030b565b6001600160a01b03821661041d5760405162461bcd60e51b815260206004820152602260248201527f45524332303a20617070726f766520746f20746865207a65726f206164647265604482015261737360f01b606482015260840161030b565b6001600160a01b0383811660008181526001602090815260408083209487168084529482529182902085905590518481527f8c5be1e5ebec7d5bd14f71427d1e84f3dd0314c0f7b2291e5b200ac8c7c3b925910160405180910390a3505050565b600061048a848461032f565b905060001981146104f257818110156104e55760405162461bcd60e51b815260206004820152601d60248201527f45524332303a20696e73756666696369656e7420616c6c6f77616e6365000000604482015260640161030b565b6104f2848484840361035a565b50505050565b6001600160a01b03831661055c5760405162461bcd60e51b815260206004820152602560248201527f45524332303a207472616e736665722066726f6d20746865207a65726f206164604482015264647265737360d81b606482015260840161030b565b6001600160a01b0382166105be5760405162461bcd60e51b815260206004820152602360248201527f45524332303a207472616e7366657220746f20746865207a65726f206164647260448201526265737360e81b606482015260840161030b565b6001600160a01b038316600090815260208190526040902054818110156106365760405162461bcd60e51b815260206004820152602660248201527f45524332303a207472616e7366657220616d6f756e7420657863656564732062604482015265616c616e636560d01b606482015260840161030b565b6001600160a01b0380851660009081526020819052604080822085850390559185168152908120805484929061066d908490610825565b92505081905550826001600160a01b0316846001600160a01b03167fddf252ad1be2c89b69c2b068fc378daa952ba7f163c4a11628f55a4df523b3ef846040516106b991815260200190565b60405180910390a36104f2565b600060208083528351808285015260005b818110156106f3578581018301518582016040015282016106d7565b506000604082860101526040601f19601f8301168501019250505092915050565b80356001600160a01b038116811461072b57600080fd5b919050565b6000806040838503121561074357600080fd5b61074c83610714565b946020939093013593505050565b60008060006060848603121561076f57600080fd5b61077884610714565b925061078660208501610714565b9150604084013590509250925092565b6000602082840312156107a857600080fd5b6107b182610714565b9392505050565b600080604083850312156107cb57600080fd5b6107d483610714565b91506107e260208401610714565b90509250929050565b600181811c908216806107ff57607f821691505b60208210810361081f57634e487b7160e01b600052602260045260246000fd5b50919050565b8082018082111561024657634e487b7160e01b600052601160045260246000fdfea2646970667358221220b77a7c97d2c9e0d606f029df8b82ead12c14fd64b5c1ec508211c7b9fe283da764736f6c63430008100033",
    "sourcePath": "c:/Users/yanni/Documents/Formation Alyra/DefiStaking/contracts/Staking.sol",
    "compiler": {
        "name": "solc",
        "version": "0.8.16+commit.07a7930e"
    },
    "functionHashes": {
        "DepositList(address,uint256)": "deef9f92",
        "Stake(address,uint256,address)": "cc2e0163",
        "Stakers(uint256)": "8c2f6887",
        "TVL()": "edaf2d2e",
        "UnstakePosition(address,uint256,address)": "bd15031b",
        "getDeposit(address)": "e1254fba",
        "getIndexTokenStaked(address,address)": "8a145871",
        "rate()": "2c4e722e",
        "token()": "fc0c546a"
    },
    "gasEstimates": {
        "creation": {
            "codeDepositCost": "788400",
            "executionCost": "infinite",
            "totalCost": "infinite"
        },
        "external": {
            "DepositList(address,uint256)": "6965",
            "Stake(address,uint256,address)": "infinite",
            "Stakers(uint256)": "4659",
            "TVL()": "2350",
            "UnstakePosition(address,uint256,address)": "infinite",
            "getDeposit(address)": "infinite",
            "getIndexTokenStaked(address,address)": "infinite",
            "rate()": "2285",
            "token()": "2425"
        },
        "internal": {
            "Reward(address,uint256)": "infinite"
        }
    }
}