{
    "contractName": "Staking",
    "abi": [
        {
            "inputs": [
                {
                    "internalType": "uint256",
                    "name": "initialSupply",
                    "type": "uint256"
                }
            ],
            "stateMutability": "nonpayable",
            "type": "constructor"
        },
        {
            "anonymous": false,
            "inputs": [
                {
                    "indexed": true,
                    "internalType": "address",
                    "name": "owner",
                    "type": "address"
                },
                {
                    "indexed": true,
                    "internalType": "address",
                    "name": "spender",
                    "type": "address"
                },
                {
                    "indexed": false,
                    "internalType": "uint256",
                    "name": "value",
                    "type": "uint256"
                }
            ],
            "name": "Approval",
            "type": "event"
        },
        {
            "anonymous": false,
            "inputs": [
                {
                    "indexed": true,
                    "internalType": "address",
                    "name": "from",
                    "type": "address"
                },
                {
                    "indexed": true,
                    "internalType": "address",
                    "name": "to",
                    "type": "address"
                },
                {
                    "indexed": false,
                    "internalType": "uint256",
                    "name": "value",
                    "type": "uint256"
                }
            ],
            "name": "Transfer",
            "type": "event"
        },
        {
            "anonymous": false,
            "inputs": [
                {
                    "indexed": false,
                    "internalType": "address",
                    "name": "staker",
                    "type": "address"
                },
                {
                    "indexed": false,
                    "internalType": "address",
                    "name": "token",
                    "type": "address"
                },
                {
                    "indexed": false,
                    "internalType": "uint256",
                    "name": "amount",
                    "type": "uint256"
                }
            ],
            "name": "stake",
            "type": "event"
        },
        {
            "anonymous": false,
            "inputs": [
                {
                    "indexed": false,
                    "internalType": "address",
                    "name": "staker",
                    "type": "address"
                },
                {
                    "indexed": false,
                    "internalType": "address",
                    "name": "token",
                    "type": "address"
                },
                {
                    "indexed": false,
                    "internalType": "uint256",
                    "name": "amount",
                    "type": "uint256"
                }
            ],
            "name": "unStake",
            "type": "event"
        },
        {
            "inputs": [],
            "name": "CollectAllRewards",
            "outputs": [],
            "stateMutability": "nonpayable",
            "type": "function"
        },
        {
            "inputs": [
                {
                    "internalType": "address",
                    "name": "_token",
                    "type": "address"
                }
            ],
            "name": "CollectRewards",
            "outputs": [],
            "stateMutability": "nonpayable",
            "type": "function"
        },
        {
            "inputs": [
                {
                    "internalType": "address",
                    "name": "_token",
                    "type": "address"
                },
                {
                    "internalType": "uint256",
                    "name": "_amount",
                    "type": "uint256"
                }
            ],
            "name": "Stake",
            "outputs": [],
            "stateMutability": "payable",
            "type": "function"
        },
        {
            "inputs": [
                {
                    "internalType": "address",
                    "name": "_token",
                    "type": "address"
                },
                {
                    "internalType": "uint256",
                    "name": "_amount",
                    "type": "uint256"
                }
            ],
            "name": "UnstakePosition",
            "outputs": [],
            "stateMutability": "payable",
            "type": "function"
        },
        {
            "inputs": [],
            "name": "WithdrawFunds",
            "outputs": [],
            "stateMutability": "nonpayable",
            "type": "function"
        },
        {
            "inputs": [
                {
                    "internalType": "address",
                    "name": "owner",
                    "type": "address"
                },
                {
                    "internalType": "address",
                    "name": "spender",
                    "type": "address"
                }
            ],
            "name": "allowance",
            "outputs": [
                {
                    "internalType": "uint256",
                    "name": "",
                    "type": "uint256"
                }
            ],
            "stateMutability": "view",
            "type": "function"
        },
        {
            "inputs": [
                {
                    "internalType": "address",
                    "name": "spender",
                    "type": "address"
                },
                {
                    "internalType": "uint256",
                    "name": "amount",
                    "type": "uint256"
                }
            ],
            "name": "approve",
            "outputs": [
                {
                    "internalType": "bool",
                    "name": "",
                    "type": "bool"
                }
            ],
            "stateMutability": "nonpayable",
            "type": "function"
        },
        {
            "inputs": [
                {
                    "internalType": "address",
                    "name": "account",
                    "type": "address"
                }
            ],
            "name": "balanceOf",
            "outputs": [
                {
                    "internalType": "uint256",
                    "name": "",
                    "type": "uint256"
                }
            ],
            "stateMutability": "view",
            "type": "function"
        },
        {
            "inputs": [],
            "name": "decimals",
            "outputs": [
                {
                    "internalType": "uint8",
                    "name": "",
                    "type": "uint8"
                }
            ],
            "stateMutability": "view",
            "type": "function"
        },
        {
            "inputs": [
                {
                    "internalType": "address",
                    "name": "spender",
                    "type": "address"
                },
                {
                    "internalType": "uint256",
                    "name": "subtractedValue",
                    "type": "uint256"
                }
            ],
            "name": "decreaseAllowance",
            "outputs": [
                {
                    "internalType": "bool",
                    "name": "",
                    "type": "bool"
                }
            ],
            "stateMutability": "nonpayable",
            "type": "function"
        },
        {
            "inputs": [
                {
                    "internalType": "address",
                    "name": "spender",
                    "type": "address"
                },
                {
                    "internalType": "uint256",
                    "name": "addedValue",
                    "type": "uint256"
                }
            ],
            "name": "increaseAllowance",
            "outputs": [
                {
                    "internalType": "bool",
                    "name": "",
                    "type": "bool"
                }
            ],
            "stateMutability": "nonpayable",
            "type": "function"
        },
        {
            "inputs": [],
            "name": "name",
            "outputs": [
                {
                    "internalType": "string",
                    "name": "",
                    "type": "string"
                }
            ],
            "stateMutability": "view",
            "type": "function"
        },
        {
            "inputs": [],
            "name": "symbol",
            "outputs": [
                {
                    "internalType": "string",
                    "name": "",
                    "type": "string"
                }
            ],
            "stateMutability": "view",
            "type": "function"
        },
        {
            "inputs": [],
            "name": "totalSupply",
            "outputs": [
                {
                    "internalType": "uint256",
                    "name": "",
                    "type": "uint256"
                }
            ],
            "stateMutability": "view",
            "type": "function"
        },
        {
            "inputs": [
                {
                    "internalType": "address",
                    "name": "to",
                    "type": "address"
                },
                {
                    "internalType": "uint256",
                    "name": "amount",
                    "type": "uint256"
                }
            ],
            "name": "transfer",
            "outputs": [
                {
                    "internalType": "bool",
                    "name": "",
                    "type": "bool"
                }
            ],
            "stateMutability": "nonpayable",
            "type": "function"
        },
        {
            "inputs": [
                {
                    "internalType": "address",
                    "name": "from",
                    "type": "address"
                },
                {
                    "internalType": "address",
                    "name": "to",
                    "type": "address"
                },
                {
                    "internalType": "uint256",
                    "name": "amount",
                    "type": "uint256"
                }
            ],
            "name": "transferFrom",
            "outputs": [
                {
                    "internalType": "bool",
                    "name": "",
                    "type": "bool"
                }
            ],
            "stateMutability": "nonpayable",
            "type": "function"
        },
        {
            "stateMutability": "payable",
            "type": "receive"
        }
    ],
    "bytecode": "60806040523480156200001157600080fd5b50604051620016013803806200160183398101604081905262000034916200024a565b6040518060400160405280600981526020016821363ab2aa37b5b2b760b91b8152506040518060400160405280600381526020016210931560ea1b81525081600390805190602001906200008a929190620001a4565b508051620000a0906004906020840190620001a4565b505050620000b53082620000bc60201b60201c565b50620002c7565b6001600160a01b038216620001175760405162461bcd60e51b815260206004820152601f60248201527f45524332303a206d696e7420746f20746865207a65726f206164647265737300604482015260640160405180910390fd5b80600260008282546200012b919062000264565b90915550506001600160a01b038216600090815260208190526040812080548392906200015a90849062000264565b90915550506040518181526001600160a01b038316906000907fddf252ad1be2c89b69c2b068fc378daa952ba7f163c4a11628f55a4df523b3ef9060200160405180910390a35050565b828054620001b2906200028b565b90600052602060002090601f016020900481019282620001d6576000855562000221565b82601f10620001f157805160ff191683800117855562000221565b8280016001018555821562000221579182015b828111156200022157825182559160200191906001019062000204565b506200022f92915062000233565b5090565b5b808211156200022f576000815560010162000234565b6000602082840312156200025d57600080fd5b5051919050565b600082198211156200028657634e487b7160e01b600052601160045260246000fd5b500190565b600181811c90821680620002a057607f821691505b602082108103620002c157634e487b7160e01b600052602260045260246000fd5b50919050565b61132a80620002d76000396000f3fe6080604052600436106100f75760003560e01c806370a082311161008a578063a8fca1ac11610059578063a8fca1ac1461028c578063a9059cbb14610298578063dd62ed3e146102b8578063ebedb8b3146102d857600080fd5b806370a082311461020e57806395d89b41146102445780639ff2e97614610259578063a457c2d71461026c57600080fd5b8063313ce567116100c6578063313ce5671461019d57806339509351146101b95780634c0aac9a146101d95780636d6b2f77146101f057600080fd5b806306fdde0314610103578063095ea7b31461012e57806318160ddd1461015e57806323b872dd1461017d57600080fd5b366100fe57005b600080fd5b34801561010f57600080fd5b506101186102eb565b60405161012591906110e5565b60405180910390f35b34801561013a57600080fd5b5061014e610149366004611134565b61037d565b6040519015158152602001610125565b34801561016a57600080fd5b506002545b604051908152602001610125565b34801561018957600080fd5b5061014e61019836600461115e565b610397565b3480156101a957600080fd5b5060405160128152602001610125565b3480156101c557600080fd5b5061014e6101d4366004611134565b6103bd565b3480156101e557600080fd5b506101ee6103df565b005b3480156101fc57600080fd5b506101ee61020b36600461119a565b50565b34801561021a57600080fd5b5061016f61022936600461119a565b6001600160a01b031660009081526020819052604090205490565b34801561025057600080fd5b50610118610508565b6101ee610267366004611134565b610517565b34801561027857600080fd5b5061014e610287366004611134565b6106d0565b3480156101ee57600080fd5b3480156102a457600080fd5b5061014e6102b3366004611134565b610756565b3480156102c457600080fd5b5061016f6102d33660046111b5565b610764565b6101ee6102e6366004611134565b61078f565b6060600380546102fa906111e8565b80601f0160208091040260200160405190810160405280929190818152602001828054610326906111e8565b80156103735780601f1061034857610100808354040283529160200191610373565b820191906000526020600020905b81548152906001019060200180831161035657829003601f168201915b5050505050905090565b60003361038b8185856109a7565b60019150505b92915050565b6000336103a5858285610acb565b6103b0858585610b45565b60019150505b9392505050565b60003361038b8185856103d08383610764565b6103da9190611238565b6109a7565b336104055760405162461bcd60e51b81526004016103fc90611250565b60405180910390fd5b336000908152600560205260409020546104615760405162461bcd60e51b815260206004820181905260248201527f596f7520646f6e2774206861766520616e7920746f6b656e73207374616b656460448201526064016103fc565b60005b3360009081526005602052604090205481101561020b5733600090815260056020526040902080546104f69190839081106104a1576104a1611287565b600091825260208083206002909202909101543383526005909152604090912080546001600160a01b0390921691849081106104df576104df611287565b906000526020600020906002020160010154610517565b806105008161129d565b915050610464565b6060600480546102fa906111e8565b336105345760405162461bcd60e51b81526004016103fc90611250565b336000908152600560205260409020546105905760405162461bcd60e51b815260206004820181905260248201527f596f7520646f6e2774206861766520616e7920746f6b656e73207374616b656460448201526064016103fc565b606461059c3384610d13565b036105e95760405162461bcd60e51b815260206004820181905260248201527f596f7520646f6e27742068617665207468697320746f6b656e207374616b656460448201526064016103fc565b6105fd6001600160a01b0383163383610dc6565b60006106093384610d13565b9050606481146106815760408051808201825260008082526020808301829052338252600590529190912080548390811061064657610646611287565b600091825260209182902083516002929092020180546001600160a01b0319166001600160a01b039092169190911781559101516001909101555b604080513381526001600160a01b03851660208201529081018390527f02ecccdc1038b6743ff964c47b7a07c31a71632f4a8039815930a94fda3e06d0906060015b60405180910390a1505050565b600033816106de8286610764565b90508381101561073e5760405162461bcd60e51b815260206004820152602560248201527f45524332303a2064656372656173656420616c6c6f77616e63652062656c6f77604482015264207a65726f60d81b60648201526084016103fc565b61074b82868684036109a7565b506001949350505050565b60003361038b818585610b45565b6001600160a01b03918216600090815260016020908152604080832093909416825291909152205490565b336107ac5760405162461bcd60e51b81526004016103fc90611250565b33600090815260056020526040902054606410156108205760405162461bcd60e51b815260206004820152602b60248201527f596f752063616e6e6f74207374616b65206d6f7265207468616e20313030204560448201526a5243323020546f6b656e7360a81b60648201526084016103fc565b67016345785d8a00008110156108845760405162461bcd60e51b815260206004820152602360248201527f796f752063616e2774207374616b65206c657373207468616e20302e312065746044820152623432b960e91b60648201526084016103fc565b6108996001600160a01b038316333084610e2e565b60006108a53384610d13565b9050606481146108fe573360009081526005602052604090208054839190839081106108d3576108d3611287565b906000526020600020906002020160010160008282546108f39190611238565b909155506109619050565b33600090815260056020908152604080832081518083019092526001600160a01b038781168352828401878152825460018082018555938752949095209251600290940290920180546001600160a01b0319169390921692909217815591519101555b604080513381526001600160a01b03851660208201529081018390527fbf6eac2f4b953b5538a7beedc8a7fa29bc34b3b2029a1c4d794d946c2c501438906060016106c3565b6001600160a01b038316610a095760405162461bcd60e51b8152602060048201526024808201527f45524332303a20617070726f76652066726f6d20746865207a65726f206164646044820152637265737360e01b60648201526084016103fc565b6001600160a01b038216610a6a5760405162461bcd60e51b815260206004820152602260248201527f45524332303a20617070726f766520746f20746865207a65726f206164647265604482015261737360f01b60648201526084016103fc565b6001600160a01b0383811660008181526001602090815260408083209487168084529482529182902085905590518481527f8c5be1e5ebec7d5bd14f71427d1e84f3dd0314c0f7b2291e5b200ac8c7c3b925910160405180910390a3505050565b6000610ad78484610764565b90506000198114610b3f5781811015610b325760405162461bcd60e51b815260206004820152601d60248201527f45524332303a20696e73756666696369656e7420616c6c6f77616e636500000060448201526064016103fc565b610b3f84848484036109a7565b50505050565b6001600160a01b038316610ba95760405162461bcd60e51b815260206004820152602560248201527f45524332303a207472616e736665722066726f6d20746865207a65726f206164604482015264647265737360d81b60648201526084016103fc565b6001600160a01b038216610c0b5760405162461bcd60e51b815260206004820152602360248201527f45524332303a207472616e7366657220746f20746865207a65726f206164647260448201526265737360e81b60648201526084016103fc565b6001600160a01b03831660009081526020819052604090205481811015610c835760405162461bcd60e51b815260206004820152602660248201527f45524332303a207472616e7366657220616d6f756e7420657863656564732062604482015265616c616e636560d01b60648201526084016103fc565b6001600160a01b03808516600090815260208190526040808220858503905591851681529081208054849290610cba908490611238565b92505081905550826001600160a01b0316846001600160a01b03167fddf252ad1be2c89b69c2b068fc378daa952ba7f163c4a11628f55a4df523b3ef84604051610d0691815260200190565b60405180910390a3610b3f565b600033610d325760405162461bcd60e51b81526004016103fc90611250565b60005b6001600160a01b038416600090815260056020526040902054811015610dbc576001600160a01b03848116600090815260056020526040902080549185169183908110610d8457610d84611287565b60009182526020909120600290910201546001600160a01b031603610daa579050610391565b80610db48161129d565b915050610d35565b5060649392505050565b6040516001600160a01b038316602482015260448101829052610e2990849063a9059cbb60e01b906064015b60408051601f198184030181529190526020810180516001600160e01b03166001600160e01b031990931692909217909152610e66565b505050565b6040516001600160a01b0380851660248301528316604482015260648101829052610b3f9085906323b872dd60e01b90608401610df2565b6000610ebb826040518060400160405280602081526020017f5361666545524332303a206c6f772d6c6576656c2063616c6c206661696c6564815250856001600160a01b0316610f389092919063ffffffff16565b805190915015610e295780806020019051810190610ed991906112b6565b610e295760405162461bcd60e51b815260206004820152602a60248201527f5361666545524332303a204552433230206f7065726174696f6e20646964206e6044820152691bdd081cdd58d8d9595960b21b60648201526084016103fc565b6060610f478484600085610f4f565b949350505050565b606082471015610fb05760405162461bcd60e51b815260206004820152602660248201527f416464726573733a20696e73756666696369656e742062616c616e636520666f6044820152651c8818d85b1b60d21b60648201526084016103fc565b6001600160a01b0385163b6110075760405162461bcd60e51b815260206004820152601d60248201527f416464726573733a2063616c6c20746f206e6f6e2d636f6e747261637400000060448201526064016103fc565b600080866001600160a01b0316858760405161102391906112d8565b60006040518083038185875af1925050503d8060008114611060576040519150601f19603f3d011682016040523d82523d6000602084013e611065565b606091505b5091509150611075828286611080565b979650505050505050565b6060831561108f5750816103b6565b82511561109f5782518084602001fd5b8160405162461bcd60e51b81526004016103fc91906110e5565b60005b838110156110d45781810151838201526020016110bc565b83811115610b3f5750506000910152565b60208152600082518060208401526111048160408501602087016110b9565b601f01601f19169190910160400192915050565b80356001600160a01b038116811461112f57600080fd5b919050565b6000806040838503121561114757600080fd5b61115083611118565b946020939093013593505050565b60008060006060848603121561117357600080fd5b61117c84611118565b925061118a60208501611118565b9150604084013590509250925092565b6000602082840312156111ac57600080fd5b6103b682611118565b600080604083850312156111c857600080fd5b6111d183611118565b91506111df60208401611118565b90509250929050565b600181811c908216806111fc57607f821691505b60208210810361121c57634e487b7160e01b600052602260045260246000fd5b50919050565b634e487b7160e01b600052601160045260246000fd5b6000821982111561124b5761124b611222565b500190565b60208082526018908201527f5a65726f2061646472657373206e6f7420616c6c6f7765640000000000000000604082015260600190565b634e487b7160e01b600052603260045260246000fd5b6000600182016112af576112af611222565b5060010190565b6000602082840312156112c857600080fd5b815180151581146103b657600080fd5b600082516112ea8184602087016110b9565b919091019291505056fea2646970667358221220bf90fa05322a7fe872678bd98b2c95e0efe727e787611be870a551171043bbfc64736f6c634300080e0033",
    "sourcePath": "c:/Users/yanni/Documents/Formation Alyra/DefiStaking/contracts/Staking.sol",
    "compiler": {
        "name": "solc",
        "version": "0.8.14+commit.80d49f37"
    },
    "functionHashes": {
        "CollectAllRewards()": "a8fca1ac",
        "CollectRewards(address)": "6d6b2f77",
        "Stake(address,uint256)": "ebedb8b3",
        "UnstakePosition(address,uint256)": "9ff2e976",
        "WithdrawFunds()": "4c0aac9a",
        "allowance(address,address)": "dd62ed3e",
        "approve(address,uint256)": "095ea7b3",
        "balanceOf(address)": "70a08231",
        "decimals()": "313ce567",
        "decreaseAllowance(address,uint256)": "a457c2d7",
        "increaseAllowance(address,uint256)": "39509351",
        "name()": "06fdde03",
        "symbol()": "95d89b41",
        "totalSupply()": "18160ddd",
        "transfer(address,uint256)": "a9059cbb",
        "transferFrom(address,address,uint256)": "23b872dd"
    },
    "gasEstimates": {
        "creation": {
            "codeDepositCost": "981200",
            "executionCost": "infinite",
            "totalCost": "infinite"
        },
        "external": {
            "CollectAllRewards()": "145",
            "CollectRewards(address)": "381",
            "Stake(address,uint256)": "infinite",
            "UnstakePosition(address,uint256)": "infinite",
            "WithdrawFunds()": "infinite",
            "allowance(address,address)": "infinite",
            "approve(address,uint256)": "24651",
            "balanceOf(address)": "2563",
            "decimals()": "200",
            "decreaseAllowance(address,uint256)": "27039",
            "increaseAllowance(address,uint256)": "27027",
            "name()": "infinite",
            "symbol()": "infinite",
            "totalSupply()": "2349",
            "transfer(address,uint256)": "51230",
            "transferFrom(address,address,uint256)": "infinite"
        },
        "internal": {
            "getIndexTokenStaked(address,address)": "infinite"
        }
    }
}