{
    "contractName": "Staking",
    "abi": [
        {
            "inputs": [
                {
                    "internalType": "uint256",
                    "name": "initialSupply",
                    "type": "uint256"
                }
            ],
            "stateMutability": "nonpayable",
            "type": "constructor"
        },
        {
            "anonymous": false,
            "inputs": [
                {
                    "indexed": true,
                    "internalType": "address",
                    "name": "owner",
                    "type": "address"
                },
                {
                    "indexed": true,
                    "internalType": "address",
                    "name": "spender",
                    "type": "address"
                },
                {
                    "indexed": false,
                    "internalType": "uint256",
                    "name": "value",
                    "type": "uint256"
                }
            ],
            "name": "Approval",
            "type": "event"
        },
        {
            "anonymous": false,
            "inputs": [
                {
                    "indexed": true,
                    "internalType": "address",
                    "name": "from",
                    "type": "address"
                },
                {
                    "indexed": true,
                    "internalType": "address",
                    "name": "to",
                    "type": "address"
                },
                {
                    "indexed": false,
                    "internalType": "uint256",
                    "name": "value",
                    "type": "uint256"
                }
            ],
            "name": "Transfer",
            "type": "event"
        },
        {
            "anonymous": false,
            "inputs": [
                {
                    "indexed": false,
                    "internalType": "address",
                    "name": "staker",
                    "type": "address"
                },
                {
                    "indexed": false,
                    "internalType": "address",
                    "name": "token",
                    "type": "address"
                },
                {
                    "indexed": false,
                    "internalType": "uint256",
                    "name": "amount",
                    "type": "uint256"
                }
            ],
            "name": "stake",
            "type": "event"
        },
        {
            "anonymous": false,
            "inputs": [
                {
                    "indexed": false,
                    "internalType": "address",
                    "name": "staker",
                    "type": "address"
                },
                {
                    "indexed": false,
                    "internalType": "address",
                    "name": "token",
                    "type": "address"
                },
                {
                    "indexed": false,
                    "internalType": "uint256",
                    "name": "amount",
                    "type": "uint256"
                }
            ],
            "name": "unstake",
            "type": "event"
        },
        {
            "inputs": [],
            "name": "CollectAllRewards",
            "outputs": [],
            "stateMutability": "nonpayable",
            "type": "function"
        },
        {
            "inputs": [
                {
                    "internalType": "address",
                    "name": "_token",
                    "type": "address"
                }
            ],
            "name": "CollectRewards",
            "outputs": [],
            "stateMutability": "nonpayable",
            "type": "function"
        },
        {
            "inputs": [
                {
                    "internalType": "address",
                    "name": "_token",
                    "type": "address"
                },
                {
                    "internalType": "uint256",
                    "name": "_amount",
                    "type": "uint256"
                }
            ],
            "name": "Stake",
            "outputs": [],
            "stateMutability": "nonpayable",
            "type": "function"
        },
        {
            "inputs": [
                {
                    "internalType": "address",
                    "name": "_token",
                    "type": "address"
                },
                {
                    "internalType": "uint256",
                    "name": "_amount",
                    "type": "uint256"
                }
            ],
            "name": "Unstake",
            "outputs": [],
            "stateMutability": "nonpayable",
            "type": "function"
        },
        {
            "inputs": [],
            "name": "WithdrawFunds",
            "outputs": [],
            "stateMutability": "nonpayable",
            "type": "function"
        },
        {
            "inputs": [
                {
                    "internalType": "address",
                    "name": "owner",
                    "type": "address"
                },
                {
                    "internalType": "address",
                    "name": "spender",
                    "type": "address"
                }
            ],
            "name": "allowance",
            "outputs": [
                {
                    "internalType": "uint256",
                    "name": "",
                    "type": "uint256"
                }
            ],
            "stateMutability": "view",
            "type": "function"
        },
        {
            "inputs": [
                {
                    "internalType": "address",
                    "name": "spender",
                    "type": "address"
                },
                {
                    "internalType": "uint256",
                    "name": "amount",
                    "type": "uint256"
                }
            ],
            "name": "approve",
            "outputs": [
                {
                    "internalType": "bool",
                    "name": "",
                    "type": "bool"
                }
            ],
            "stateMutability": "nonpayable",
            "type": "function"
        },
        {
            "inputs": [
                {
                    "internalType": "address",
                    "name": "account",
                    "type": "address"
                }
            ],
            "name": "balanceOf",
            "outputs": [
                {
                    "internalType": "uint256",
                    "name": "",
                    "type": "uint256"
                }
            ],
            "stateMutability": "view",
            "type": "function"
        },
        {
            "inputs": [],
            "name": "decimals",
            "outputs": [
                {
                    "internalType": "uint8",
                    "name": "",
                    "type": "uint8"
                }
            ],
            "stateMutability": "view",
            "type": "function"
        },
        {
            "inputs": [
                {
                    "internalType": "address",
                    "name": "spender",
                    "type": "address"
                },
                {
                    "internalType": "uint256",
                    "name": "subtractedValue",
                    "type": "uint256"
                }
            ],
            "name": "decreaseAllowance",
            "outputs": [
                {
                    "internalType": "bool",
                    "name": "",
                    "type": "bool"
                }
            ],
            "stateMutability": "nonpayable",
            "type": "function"
        },
        {
            "inputs": [
                {
                    "internalType": "address",
                    "name": "spender",
                    "type": "address"
                },
                {
                    "internalType": "uint256",
                    "name": "addedValue",
                    "type": "uint256"
                }
            ],
            "name": "increaseAllowance",
            "outputs": [
                {
                    "internalType": "bool",
                    "name": "",
                    "type": "bool"
                }
            ],
            "stateMutability": "nonpayable",
            "type": "function"
        },
        {
            "inputs": [],
            "name": "name",
            "outputs": [
                {
                    "internalType": "string",
                    "name": "",
                    "type": "string"
                }
            ],
            "stateMutability": "view",
            "type": "function"
        },
        {
            "inputs": [],
            "name": "symbol",
            "outputs": [
                {
                    "internalType": "string",
                    "name": "",
                    "type": "string"
                }
            ],
            "stateMutability": "view",
            "type": "function"
        },
        {
            "inputs": [],
            "name": "totalSupply",
            "outputs": [
                {
                    "internalType": "uint256",
                    "name": "",
                    "type": "uint256"
                }
            ],
            "stateMutability": "view",
            "type": "function"
        },
        {
            "inputs": [
                {
                    "internalType": "address",
                    "name": "to",
                    "type": "address"
                },
                {
                    "internalType": "uint256",
                    "name": "amount",
                    "type": "uint256"
                }
            ],
            "name": "transfer",
            "outputs": [
                {
                    "internalType": "bool",
                    "name": "",
                    "type": "bool"
                }
            ],
            "stateMutability": "nonpayable",
            "type": "function"
        },
        {
            "inputs": [
                {
                    "internalType": "address",
                    "name": "from",
                    "type": "address"
                },
                {
                    "internalType": "address",
                    "name": "to",
                    "type": "address"
                },
                {
                    "internalType": "uint256",
                    "name": "amount",
                    "type": "uint256"
                }
            ],
            "name": "transferFrom",
            "outputs": [
                {
                    "internalType": "bool",
                    "name": "",
                    "type": "bool"
                }
            ],
            "stateMutability": "nonpayable",
            "type": "function"
        },
        {
            "stateMutability": "payable",
            "type": "receive"
        }
    ],
    "bytecode": "60806040523480156200001157600080fd5b506040516200106c3803806200106c83398101604081905262000034916200024a565b6040518060400160405280600981526020016821363ab2aa37b5b2b760b91b8152506040518060400160405280600381526020016210931560ea1b81525081600390805190602001906200008a929190620001a4565b508051620000a0906004906020840190620001a4565b505050620000b53082620000bc60201b60201c565b50620002c7565b6001600160a01b038216620001175760405162461bcd60e51b815260206004820152601f60248201527f45524332303a206d696e7420746f20746865207a65726f206164647265737300604482015260640160405180910390fd5b80600260008282546200012b919062000264565b90915550506001600160a01b038216600090815260208190526040812080548392906200015a90849062000264565b90915550506040518181526001600160a01b038316906000907fddf252ad1be2c89b69c2b068fc378daa952ba7f163c4a11628f55a4df523b3ef9060200160405180910390a35050565b828054620001b2906200028b565b90600052602060002090601f016020900481019282620001d6576000855562000221565b82601f10620001f157805160ff191683800117855562000221565b8280016001018555821562000221579182015b828111156200022157825182559160200191906001019062000204565b506200022f92915062000233565b5090565b5b808211156200022f576000815560010162000234565b6000602082840312156200025d57600080fd5b5051919050565b600082198211156200028657634e487b7160e01b600052601160045260246000fd5b500190565b600181811c90821680620002a057607f821691505b602082108103620002c157634e487b7160e01b600052602260045260246000fd5b50919050565b610d9580620002d76000396000f3fe6080604052600436106100f75760003560e01c806370a082311161008a578063a8fca1ac11610059578063a8fca1ac146101d9578063a9059cbb14610291578063dd62ed3e146102b1578063ebedb8b3146102d157600080fd5b806370a0823114610207578063850821291461023d57806395d89b411461025c578063a457c2d71461027157600080fd5b8063313ce567116100c6578063313ce5671461019d57806339509351146101b95780634c0aac9a146101d95780636d6b2f77146101e957600080fd5b806306fdde0314610103578063095ea7b31461012e57806318160ddd1461015e57806323b872dd1461017d57600080fd5b366100fe57005b600080fd5b34801561010f57600080fd5b506101186102f1565b6040516101259190610b80565b60405180910390f35b34801561013a57600080fd5b5061014e610149366004610bcf565b610383565b6040519015158152602001610125565b34801561016a57600080fd5b506002545b604051908152602001610125565b34801561018957600080fd5b5061014e610198366004610bf9565b61039b565b3480156101a957600080fd5b5060405160128152602001610125565b3480156101c557600080fd5b5061014e6101d4366004610bcf565b6103bf565b3480156101e557600080fd5b505b005b3480156101f557600080fd5b506101e7610204366004610c35565b50565b34801561021357600080fd5b5061016f610222366004610c35565b6001600160a01b031660009081526020819052604090205490565b34801561024957600080fd5b506101e7610258366004610bcf565b5050565b34801561026857600080fd5b506101186103e1565b34801561027d57600080fd5b5061014e61028c366004610bcf565b6103f0565b34801561029d57600080fd5b5061014e6102ac366004610bcf565b610470565b3480156102bd57600080fd5b5061016f6102cc366004610c57565b61047e565b3480156102dd57600080fd5b506101e76102ec366004610bcf565b6104a9565b60606003805461030090610c8a565b80601f016020809104026020016040519081016040528092919081815260200182805461032c90610c8a565b80156103795780601f1061034e57610100808354040283529160200191610379565b820191906000526020600020905b81548152906001019060200180831161035c57829003601f168201915b5050505050905090565b6000336103918185856106de565b5060019392505050565b6000336103a9858285610802565b6103b485858561087c565b506001949350505050565b6000336103918185856103d2838361047e565b6103dc9190610cda565b6106de565b60606004805461030090610c8a565b600033816103fe828661047e565b9050838110156104635760405162461bcd60e51b815260206004820152602560248201527f45524332303a2064656372656173656420616c6c6f77616e63652062656c6f77604482015264207a65726f60d81b60648201526084015b60405180910390fd5b6103b482868684036106de565b60003361039181858561087c565b6001600160a01b03918216600090815260016020908152604080832093909416825291909152205490565b336104f65760405162461bcd60e51b815260206004820152601860248201527f5a65726f2061646472657373206e6f7420616c6c6f7765640000000000000000604482015260640161045a565b67016345785d8a000081101561055a5760405162461bcd60e51b815260206004820152602360248201527f796f752063616e2774207374616b65206c657373207468616e20302e312065746044820152623432b960e91b606482015260840161045a565b61056682333084610a4a565b60005b336000908152600560205260409020548110156106905733600090815260056020526040902080546001600160a01b0385169190839081106105ad576105ad610cf2565b60009182526020909120600290910201546001600160a01b03160361061b573360009081526005602052604090208054839190839081106105f0576105f0610cf2565b906000526020600020906002020160010160008282546106109190610cda565b9091555061067e9050565b33600090815260056020908152604080832081518083019092526001600160a01b038781168352828401878152825460018082018555938752949095209251600290940290920180546001600160a01b0319169390921692909217815591519101555b8061068881610d08565b915050610569565b50604080513381526001600160a01b03841660208201529081018290527fbf6eac2f4b953b5538a7beedc8a7fa29bc34b3b2029a1c4d794d946c2c5014389060600160405180910390a15050565b6001600160a01b0383166107405760405162461bcd60e51b8152602060048201526024808201527f45524332303a20617070726f76652066726f6d20746865207a65726f206164646044820152637265737360e01b606482015260840161045a565b6001600160a01b0382166107a15760405162461bcd60e51b815260206004820152602260248201527f45524332303a20617070726f766520746f20746865207a65726f206164647265604482015261737360f01b606482015260840161045a565b6001600160a01b0383811660008181526001602090815260408083209487168084529482529182902085905590518481527f8c5be1e5ebec7d5bd14f71427d1e84f3dd0314c0f7b2291e5b200ac8c7c3b925910160405180910390a3505050565b600061080e848461047e565b9050600019811461087657818110156108695760405162461bcd60e51b815260206004820152601d60248201527f45524332303a20696e73756666696369656e7420616c6c6f77616e6365000000604482015260640161045a565b61087684848484036106de565b50505050565b6001600160a01b0383166108e05760405162461bcd60e51b815260206004820152602560248201527f45524332303a207472616e736665722066726f6d20746865207a65726f206164604482015264647265737360d81b606482015260840161045a565b6001600160a01b0382166109425760405162461bcd60e51b815260206004820152602360248201527f45524332303a207472616e7366657220746f20746865207a65726f206164647260448201526265737360e81b606482015260840161045a565b6001600160a01b038316600090815260208190526040902054818110156109ba5760405162461bcd60e51b815260206004820152602660248201527f45524332303a207472616e7366657220616d6f756e7420657863656564732062604482015265616c616e636560d01b606482015260840161045a565b6001600160a01b038085166000908152602081905260408082208585039055918516815290812080548492906109f1908490610cda565b92505081905550826001600160a01b0316846001600160a01b03167fddf252ad1be2c89b69c2b068fc378daa952ba7f163c4a11628f55a4df523b3ef84604051610a3d91815260200190565b60405180910390a3610876565b604080516001600160a01b0385811660248301528481166044830152606480830185905283518084039091018152608490920183526020820180516001600160e01b03166323b872dd60e01b1790529151600092839290881691610aae9190610d21565b6000604051808303816000865af19150503d8060008114610aeb576040519150601f19603f3d011682016040523d82523d6000602084013e610af0565b606091505b5091509150818015610b1a575080511580610b1a575080806020019051810190610b1a9190610d3d565b610b4c5760405162461bcd60e51b815260206004820152600360248201526229aa2360e91b604482015260640161045a565b505050505050565b60005b83811015610b6f578181015183820152602001610b57565b838111156108765750506000910152565b6020815260008251806020840152610b9f816040850160208701610b54565b601f01601f19169190910160400192915050565b80356001600160a01b0381168114610bca57600080fd5b919050565b60008060408385031215610be257600080fd5b610beb83610bb3565b946020939093013593505050565b600080600060608486031215610c0e57600080fd5b610c1784610bb3565b9250610c2560208501610bb3565b9150604084013590509250925092565b600060208284031215610c4757600080fd5b610c5082610bb3565b9392505050565b60008060408385031215610c6a57600080fd5b610c7383610bb3565b9150610c8160208401610bb3565b90509250929050565b600181811c90821680610c9e57607f821691505b602082108103610cbe57634e487b7160e01b600052602260045260246000fd5b50919050565b634e487b7160e01b600052601160045260246000fd5b60008219821115610ced57610ced610cc4565b500190565b634e487b7160e01b600052603260045260246000fd5b600060018201610d1a57610d1a610cc4565b5060010190565b60008251610d33818460208701610b54565b9190910192915050565b600060208284031215610d4f57600080fd5b81518015158114610c5057600080fdfea2646970667358221220f80214f512c02845b67467cd48c4b993bdfe551a395c3b502cb9fad424bdfdf164736f6c634300080e0033",
    "sourcePath": "c:/Users/yanni/Documents/Formation Alyra/DefiStaking/contracts/Staking.sol",
    "compiler": {
        "name": "solc",
        "version": "0.8.14+commit.80d49f37"
    },
    "functionHashes": {
        "CollectAllRewards()": "a8fca1ac",
        "CollectRewards(address)": "6d6b2f77",
        "Stake(address,uint256)": "ebedb8b3",
        "Unstake(address,uint256)": "85082129",
        "WithdrawFunds()": "4c0aac9a",
        "allowance(address,address)": "dd62ed3e",
        "approve(address,uint256)": "095ea7b3",
        "balanceOf(address)": "70a08231",
        "decimals()": "313ce567",
        "decreaseAllowance(address,uint256)": "a457c2d7",
        "increaseAllowance(address,uint256)": "39509351",
        "name()": "06fdde03",
        "symbol()": "95d89b41",
        "totalSupply()": "18160ddd",
        "transfer(address,uint256)": "a9059cbb",
        "transferFrom(address,address,uint256)": "23b872dd"
    },
    "gasEstimates": {
        "creation": {
            "codeDepositCost": "695400",
            "executionCost": "infinite",
            "totalCost": "infinite"
        },
        "external": {
            "CollectAllRewards()": "145",
            "CollectRewards(address)": "381",
            "Stake(address,uint256)": "infinite",
            "Unstake(address,uint256)": "360",
            "WithdrawFunds()": "190",
            "allowance(address,address)": "infinite",
            "approve(address,uint256)": "24647",
            "balanceOf(address)": "2563",
            "decimals()": "200",
            "decreaseAllowance(address,uint256)": "27039",
            "increaseAllowance(address,uint256)": "27023",
            "name()": "infinite",
            "symbol()": "infinite",
            "totalSupply()": "2349",
            "transfer(address,uint256)": "51226",
            "transferFrom(address,address,uint256)": "infinite"
        }
    }
}