{
    "contractName": "Staking",
    "abi": [
        {
            "inputs": [
                {
                    "internalType": "uint256",
                    "name": "initialSupply",
                    "type": "uint256"
                }
            ],
            "stateMutability": "nonpayable",
            "type": "constructor"
        },
        {
            "anonymous": false,
            "inputs": [
                {
                    "indexed": false,
                    "internalType": "address",
                    "name": "staker",
                    "type": "address"
                },
                {
                    "indexed": false,
                    "internalType": "address",
                    "name": "token",
                    "type": "address"
                },
                {
                    "indexed": false,
                    "internalType": "uint256",
                    "name": "amount",
                    "type": "uint256"
                }
            ],
            "name": "stake",
            "type": "event"
        },
        {
            "anonymous": false,
            "inputs": [
                {
                    "indexed": false,
                    "internalType": "address",
                    "name": "staker",
                    "type": "address"
                },
                {
                    "indexed": false,
                    "internalType": "address",
                    "name": "token",
                    "type": "address"
                },
                {
                    "indexed": false,
                    "internalType": "uint256",
                    "name": "amount",
                    "type": "uint256"
                }
            ],
            "name": "unStake",
            "type": "event"
        },
        {
            "inputs": [],
            "name": "CollectAllRewards",
            "outputs": [],
            "stateMutability": "nonpayable",
            "type": "function"
        },
        {
            "inputs": [
                {
                    "internalType": "address",
                    "name": "_token",
                    "type": "address"
                }
            ],
            "name": "CollectRewards",
            "outputs": [],
            "stateMutability": "nonpayable",
            "type": "function"
        },
        {
            "inputs": [
                {
                    "internalType": "address",
                    "name": "_token",
                    "type": "address"
                },
                {
                    "internalType": "uint256",
                    "name": "_amount",
                    "type": "uint256"
                }
            ],
            "name": "Stake",
            "outputs": [],
            "stateMutability": "nonpayable",
            "type": "function"
        },
        {
            "inputs": [
                {
                    "internalType": "address",
                    "name": "_token",
                    "type": "address"
                },
                {
                    "internalType": "uint256",
                    "name": "_amount",
                    "type": "uint256"
                }
            ],
            "name": "UnstakePosition",
            "outputs": [],
            "stateMutability": "nonpayable",
            "type": "function"
        },
        {
            "inputs": [],
            "name": "WithdrawFunds",
            "outputs": [],
            "stateMutability": "nonpayable",
            "type": "function"
        },
        {
            "inputs": [],
            "name": "rate",
            "outputs": [
                {
                    "internalType": "uint256",
                    "name": "",
                    "type": "uint256"
                }
            ],
            "stateMutability": "view",
            "type": "function"
        },
        {
            "inputs": [],
            "name": "token",
            "outputs": [
                {
                    "internalType": "contract BlueToken",
                    "name": "",
                    "type": "address"
                }
            ],
            "stateMutability": "view",
            "type": "function"
        },
        {
            "stateMutability": "payable",
            "type": "receive"
        }
    ],
    "bytecode": "6080604052606460015534801561001557600080fd5b506040516117f83803806117f883398101604081905261003491610097565b806040516100419061008a565b908152602001604051809103906000f080158015610063573d6000803e3d6000fd5b50600080546001600160a01b0319166001600160a01b0392909216919091179055506100b0565b610bd980610c1f83390190565b6000602082840312156100a957600080fd5b5051919050565b610b60806100bf6000396000f3fe6080604052600436106100745760003560e01c80639ff2e9761161004e5780639ff2e976146100de578063a8fca1ac146100fe578063ebedb8b31461010a578063fc0c546a1461012a57600080fd5b80632c4e722e146100805780634c0aac9a146100a95780636d6b2f77146100c057600080fd5b3661007b57005b600080fd5b34801561008c57600080fd5b5061009660015481565b6040519081526020015b60405180910390f35b3480156100b557600080fd5b506100be610162565b005b3480156100cc57600080fd5b506100be6100db3660046109f8565b50565b3480156100ea57600080fd5b506100be6100f9366004610a13565b610266565b3480156100be57600080fd5b34801561011657600080fd5b506100be610125366004610a13565b610402565b34801561013657600080fd5b5060005461014a906001600160a01b031681565b6040516001600160a01b0390911681526020016100a0565b336000908152600260205260409020546101c35760405162461bcd60e51b815260206004820181905260248201527f596f7520646f6e2774206861766520616e7920746f6b656e73207374616b656460448201526064015b60405180910390fd5b60005b336000908152600260205260409020548110156100db57336000908152600260205260409020805461025491908390811061020357610203610a3d565b6000918252602080832060029283020154338452919052604090912080546001600160a01b03909216918490811061023d5761023d610a3d565b906000526020600020906002020160010154610266565b8061025e81610a69565b9150506101c6565b336000908152600260205260409020546102c25760405162461bcd60e51b815260206004820181905260248201527f596f7520646f6e2774206861766520616e7920746f6b656e73207374616b656460448201526064016101ba565b60646102ce3384610601565b0361031b5760405162461bcd60e51b815260206004820181905260248201527f596f7520646f6e27742068617665207468697320746f6b656e207374616b656460448201526064016101ba565b61032f6001600160a01b03831633836106e6565b600061033b3384610601565b9050606481146103b35760408051808201825260008082526020808301829052338252600290529190912080548390811061037857610378610a3d565b600091825260209182902083516002929092020180546001600160a01b0319166001600160a01b039092169190911781559101516001909101555b604080513381526001600160a01b03851660208201529081018390527f02ecccdc1038b6743ff964c47b7a07c31a71632f4a8039815930a94fda3e06d0906060015b60405180910390a1505050565b33600090815260026020526040902054606410156104765760405162461bcd60e51b815260206004820152602b60248201527f596f752063616e6e6f74207374616b65206d6f7265207468616e20313030204560448201526a5243323020546f6b656e7360a81b60648201526084016101ba565b67016345785d8a00008110156104da5760405162461bcd60e51b815260206004820152602360248201527f796f752063616e2774207374616b65206c657373207468616e20302e312065746044820152623432b960e91b60648201526084016101ba565b6104ef6001600160a01b038316333084610749565b60006104fb3384610601565b9050606481146105545733600090815260026020526040902080548391908390811061052957610529610a3d565b906000526020600020906002020160010160008282546105499190610a82565b909155506105b69050565b33600090815260026020818152604080842081518083019092526001600160a01b0388811683528284018881528254600180820185559388529490962092519390940290910180546001600160a01b0319169290931691909117825591519101555b604080513381526001600160a01b03851660208201529081018390527fbf6eac2f4b953b5538a7beedc8a7fa29bc34b3b2029a1c4d794d946c2c501438906060016103f5565b505050565b6000336106505760405162461bcd60e51b815260206004820152601860248201527f5a65726f2061646472657373206e6f7420616c6c6f776564000000000000000060448201526064016101ba565b60005b6001600160a01b0384166000908152600260205260409020548110156106da576001600160a01b038481166000908152600260205260409020805491851691839081106106a2576106a2610a3d565b60009182526020909120600290910201546001600160a01b0316036106c85790506106e0565b806106d281610a69565b915050610653565b50606490505b92915050565b6040516001600160a01b0383166024820152604481018290526105fc90849063a9059cbb60e01b906064015b60408051601f198184030181529190526020810180516001600160e01b03166001600160e01b031990931692909217909152610787565b6040516001600160a01b03808516602483015283166044820152606481018290526107819085906323b872dd60e01b90608401610712565b50505050565b60006107dc826040518060400160405280602081526020017f5361666545524332303a206c6f772d6c6576656c2063616c6c206661696c6564815250856001600160a01b03166108599092919063ffffffff16565b8051909150156105fc57808060200190518101906107fa9190610a95565b6105fc5760405162461bcd60e51b815260206004820152602a60248201527f5361666545524332303a204552433230206f7065726174696f6e20646964206e6044820152691bdd081cdd58d8d9595960b21b60648201526084016101ba565b60606108688484600085610872565b90505b9392505050565b6060824710156108d35760405162461bcd60e51b815260206004820152602660248201527f416464726573733a20696e73756666696369656e742062616c616e636520666f6044820152651c8818d85b1b60d21b60648201526084016101ba565b6001600160a01b0385163b61092a5760405162461bcd60e51b815260206004820152601d60248201527f416464726573733a2063616c6c20746f206e6f6e2d636f6e747261637400000060448201526064016101ba565b600080866001600160a01b031685876040516109469190610adb565b60006040518083038185875af1925050503d8060008114610983576040519150601f19603f3d011682016040523d82523d6000602084013e610988565b606091505b50915091506109988282866109a3565b979650505050505050565b606083156109b257508161086b565b8251156109c25782518084602001fd5b8160405162461bcd60e51b81526004016101ba9190610af7565b80356001600160a01b03811681146109f357600080fd5b919050565b600060208284031215610a0a57600080fd5b61086b826109dc565b60008060408385031215610a2657600080fd5b610a2f836109dc565b946020939093013593505050565b634e487b7160e01b600052603260045260246000fd5b634e487b7160e01b600052601160045260246000fd5b600060018201610a7b57610a7b610a53565b5060010190565b808201808211156106e0576106e0610a53565b600060208284031215610aa757600080fd5b8151801515811461086b57600080fd5b60005b83811015610ad2578181015183820152602001610aba565b50506000910152565b60008251610aed818460208701610ab7565b9190910192915050565b6020815260008251806020840152610b16816040850160208701610ab7565b601f01601f1916919091016040019291505056fea2646970667358221220f41a83db10ac045f22ef477aa8493f4e60fbeaee15f7758f2555812b3da17f0e64736f6c6343000810003360806040523480156200001157600080fd5b5060405162000bd938038062000bd983398101604081905262000034916200019b565b6040518060400160405280600981526020016821363ab2aa37b5b2b760b91b8152506040518060400160405280600381526020016210931560ea1b815250816003908162000083919062000259565b50600462000092828262000259565b505050620000a73382620000ae60201b60201c565b506200034d565b6001600160a01b038216620001095760405162461bcd60e51b815260206004820152601f60248201527f45524332303a206d696e7420746f20746865207a65726f206164647265737300604482015260640160405180910390fd5b80600260008282546200011d919062000325565b90915550506001600160a01b038216600090815260208190526040812080548392906200014c90849062000325565b90915550506040518181526001600160a01b038316906000907fddf252ad1be2c89b69c2b068fc378daa952ba7f163c4a11628f55a4df523b3ef9060200160405180910390a35050565b505050565b600060208284031215620001ae57600080fd5b5051919050565b634e487b7160e01b600052604160045260246000fd5b600181811c90821680620001e057607f821691505b6020821081036200020157634e487b7160e01b600052602260045260246000fd5b50919050565b601f8211156200019657600081815260208120601f850160051c81016020861015620002305750805b601f850160051c820191505b8181101562000251578281556001016200023c565b505050505050565b81516001600160401b03811115620002755762000275620001b5565b6200028d81620002868454620001cb565b8462000207565b602080601f831160018114620002c55760008415620002ac5750858301515b600019600386901b1c1916600185901b17855562000251565b600085815260208120601f198616915b82811015620002f657888601518255948401946001909101908401620002d5565b5085821015620003155787850151600019600388901b60f8161c191681555b5050505050600190811b01905550565b808201808211156200034757634e487b7160e01b600052601160045260246000fd5b92915050565b61087c806200035d6000396000f3fe608060405234801561001057600080fd5b50600436106100a95760003560e01c80633950935111610071578063395093511461012357806370a082311461013657806395d89b411461015f578063a457c2d714610167578063a9059cbb1461017a578063dd62ed3e1461018d57600080fd5b806306fdde03146100ae578063095ea7b3146100cc57806318160ddd146100ef57806323b872dd14610101578063313ce56714610114575b600080fd5b6100b66101a0565b6040516100c391906106c6565b60405180910390f35b6100df6100da366004610730565b610232565b60405190151581526020016100c3565b6002545b6040519081526020016100c3565b6100df61010f36600461075a565b61024c565b604051601281526020016100c3565b6100df610131366004610730565b610270565b6100f3610144366004610796565b6001600160a01b031660009081526020819052604090205490565b6100b6610292565b6100df610175366004610730565b6102a1565b6100df610188366004610730565b610321565b6100f361019b3660046107b8565b61032f565b6060600380546101af906107eb565b80601f01602080910402602001604051908101604052809291908181526020018280546101db906107eb565b80156102285780601f106101fd57610100808354040283529160200191610228565b820191906000526020600020905b81548152906001019060200180831161020b57829003601f168201915b5050505050905090565b60003361024081858561035a565b60019150505b92915050565b60003361025a85828561047e565b6102658585856104f8565b506001949350505050565b600033610240818585610283838361032f565b61028d9190610825565b61035a565b6060600480546101af906107eb565b600033816102af828661032f565b9050838110156103145760405162461bcd60e51b815260206004820152602560248201527f45524332303a2064656372656173656420616c6c6f77616e63652062656c6f77604482015264207a65726f60d81b60648201526084015b60405180910390fd5b610265828686840361035a565b6000336102408185856104f8565b6001600160a01b03918216600090815260016020908152604080832093909416825291909152205490565b6001600160a01b0383166103bc5760405162461bcd60e51b8152602060048201526024808201527f45524332303a20617070726f76652066726f6d20746865207a65726f206164646044820152637265737360e01b606482015260840161030b565b6001600160a01b03821661041d5760405162461bcd60e51b815260206004820152602260248201527f45524332303a20617070726f766520746f20746865207a65726f206164647265604482015261737360f01b606482015260840161030b565b6001600160a01b0383811660008181526001602090815260408083209487168084529482529182902085905590518481527f8c5be1e5ebec7d5bd14f71427d1e84f3dd0314c0f7b2291e5b200ac8c7c3b925910160405180910390a3505050565b600061048a848461032f565b905060001981146104f257818110156104e55760405162461bcd60e51b815260206004820152601d60248201527f45524332303a20696e73756666696369656e7420616c6c6f77616e6365000000604482015260640161030b565b6104f2848484840361035a565b50505050565b6001600160a01b03831661055c5760405162461bcd60e51b815260206004820152602560248201527f45524332303a207472616e736665722066726f6d20746865207a65726f206164604482015264647265737360d81b606482015260840161030b565b6001600160a01b0382166105be5760405162461bcd60e51b815260206004820152602360248201527f45524332303a207472616e7366657220746f20746865207a65726f206164647260448201526265737360e81b606482015260840161030b565b6001600160a01b038316600090815260208190526040902054818110156106365760405162461bcd60e51b815260206004820152602660248201527f45524332303a207472616e7366657220616d6f756e7420657863656564732062604482015265616c616e636560d01b606482015260840161030b565b6001600160a01b0380851660009081526020819052604080822085850390559185168152908120805484929061066d908490610825565b92505081905550826001600160a01b0316846001600160a01b03167fddf252ad1be2c89b69c2b068fc378daa952ba7f163c4a11628f55a4df523b3ef846040516106b991815260200190565b60405180910390a36104f2565b600060208083528351808285015260005b818110156106f3578581018301518582016040015282016106d7565b506000604082860101526040601f19601f8301168501019250505092915050565b80356001600160a01b038116811461072b57600080fd5b919050565b6000806040838503121561074357600080fd5b61074c83610714565b946020939093013593505050565b60008060006060848603121561076f57600080fd5b61077884610714565b925061078660208501610714565b9150604084013590509250925092565b6000602082840312156107a857600080fd5b6107b182610714565b9392505050565b600080604083850312156107cb57600080fd5b6107d483610714565b91506107e260208401610714565b90509250929050565b600181811c908216806107ff57607f821691505b60208210810361081f57634e487b7160e01b600052602260045260246000fd5b50919050565b8082018082111561024657634e487b7160e01b600052601160045260246000fdfea2646970667358221220a92480440c754ae0cd73896fe4fb3977bc6406a5bde921604f78a9679c7efdd164736f6c63430008100033",
    "sourcePath": "c:/Users/yanni/Documents/Formation Alyra/DefiStaking/contracts/Staking.sol",
    "compiler": {
        "name": "solc",
        "version": "0.8.16+commit.07a7930e"
    },
    "functionHashes": {
        "CollectAllRewards()": "a8fca1ac",
        "CollectRewards(address)": "6d6b2f77",
        "Stake(address,uint256)": "ebedb8b3",
        "UnstakePosition(address,uint256)": "9ff2e976",
        "WithdrawFunds()": "4c0aac9a",
        "rate()": "2c4e722e",
        "token()": "fc0c546a"
    },
    "gasEstimates": {
        "creation": {
            "codeDepositCost": "582400",
            "executionCost": "infinite",
            "totalCost": "infinite"
        },
        "external": {
            "CollectAllRewards()": "145",
            "CollectRewards(address)": "337",
            "Stake(address,uint256)": "infinite",
            "UnstakePosition(address,uint256)": "infinite",
            "WithdrawFunds()": "infinite",
            "rate()": "2285",
            "token()": "2403"
        },
        "internal": {
            "Reward(address,address,uint256)": "infinite",
            "getIndexTokenStaked(address,address)": "infinite"
        }
    }
}