{
    "contractName": "Staking",
    "abi": [
        {
            "inputs": [
                {
                    "internalType": "uint256",
                    "name": "initialSupply",
                    "type": "uint256"
                },
                {
                    "internalType": "address",
                    "name": "_tokenReward",
                    "type": "address"
                }
            ],
            "stateMutability": "nonpayable",
            "type": "constructor"
        },
        {
            "anonymous": false,
            "inputs": [
                {
                    "indexed": false,
                    "internalType": "address",
                    "name": "staker",
                    "type": "address"
                },
                {
                    "indexed": false,
                    "internalType": "uint256",
                    "name": "amount",
                    "type": "uint256"
                }
            ],
            "name": "reward",
            "type": "event"
        },
        {
            "anonymous": false,
            "inputs": [
                {
                    "indexed": false,
                    "internalType": "address",
                    "name": "staker",
                    "type": "address"
                },
                {
                    "indexed": false,
                    "internalType": "address",
                    "name": "token",
                    "type": "address"
                },
                {
                    "indexed": false,
                    "internalType": "uint256",
                    "name": "amount",
                    "type": "uint256"
                }
            ],
            "name": "stake",
            "type": "event"
        },
        {
            "anonymous": false,
            "inputs": [
                {
                    "indexed": false,
                    "internalType": "address",
                    "name": "staker",
                    "type": "address"
                },
                {
                    "indexed": false,
                    "internalType": "address",
                    "name": "token",
                    "type": "address"
                },
                {
                    "indexed": false,
                    "internalType": "uint256",
                    "name": "amount",
                    "type": "uint256"
                }
            ],
            "name": "unStake",
            "type": "event"
        },
        {
            "inputs": [],
            "name": "REWARD_RATE",
            "outputs": [
                {
                    "internalType": "uint256",
                    "name": "",
                    "type": "uint256"
                }
            ],
            "stateMutability": "view",
            "type": "function"
        },
        {
            "inputs": [
                {
                    "internalType": "address",
                    "name": "_token",
                    "type": "address"
                },
                {
                    "internalType": "uint256",
                    "name": "_amount",
                    "type": "uint256"
                },
                {
                    "internalType": "address",
                    "name": "_priceFeedContract",
                    "type": "address"
                }
            ],
            "name": "Stake",
            "outputs": [],
            "stateMutability": "nonpayable",
            "type": "function"
        },
        {
            "inputs": [],
            "name": "TVL",
            "outputs": [
                {
                    "internalType": "uint256",
                    "name": "",
                    "type": "uint256"
                }
            ],
            "stateMutability": "view",
            "type": "function"
        },
        {
            "inputs": [
                {
                    "internalType": "address",
                    "name": "",
                    "type": "address"
                }
            ],
            "name": "TVLtoken",
            "outputs": [
                {
                    "internalType": "uint256",
                    "name": "",
                    "type": "uint256"
                }
            ],
            "stateMutability": "view",
            "type": "function"
        },
        {
            "inputs": [
                {
                    "internalType": "address",
                    "name": "",
                    "type": "address"
                }
            ],
            "name": "TVLtokeninEther",
            "outputs": [
                {
                    "internalType": "uint256",
                    "name": "",
                    "type": "uint256"
                }
            ],
            "stateMutability": "view",
            "type": "function"
        },
        {
            "inputs": [
                {
                    "internalType": "address",
                    "name": "",
                    "type": "address"
                }
            ],
            "name": "TotalRewardtoken",
            "outputs": [
                {
                    "internalType": "uint256",
                    "name": "",
                    "type": "uint256"
                }
            ],
            "stateMutability": "view",
            "type": "function"
        },
        {
            "inputs": [
                {
                    "internalType": "address",
                    "name": "_token",
                    "type": "address"
                },
                {
                    "internalType": "uint256",
                    "name": "_amount",
                    "type": "uint256"
                },
                {
                    "internalType": "address",
                    "name": "_priceFeedContract",
                    "type": "address"
                }
            ],
            "name": "UnstakePosition",
            "outputs": [
                {
                    "internalType": "uint256",
                    "name": "",
                    "type": "uint256"
                }
            ],
            "stateMutability": "nonpayable",
            "type": "function"
        },
        {
            "inputs": [
                {
                    "internalType": "address",
                    "name": "_token",
                    "type": "address"
                },
                {
                    "internalType": "address",
                    "name": "_priceFeedContract",
                    "type": "address"
                }
            ],
            "name": "claimReward",
            "outputs": [
                {
                    "internalType": "uint256",
                    "name": "",
                    "type": "uint256"
                }
            ],
            "stateMutability": "nonpayable",
            "type": "function"
        },
        {
            "inputs": [
                {
                    "internalType": "address",
                    "name": "_token",
                    "type": "address"
                }
            ],
            "name": "getPosition",
            "outputs": [
                {
                    "internalType": "address",
                    "name": "",
                    "type": "address"
                },
                {
                    "internalType": "uint256",
                    "name": "",
                    "type": "uint256"
                },
                {
                    "internalType": "uint256",
                    "name": "",
                    "type": "uint256"
                }
            ],
            "stateMutability": "view",
            "type": "function"
        },
        {
            "inputs": [
                {
                    "internalType": "address",
                    "name": "_token",
                    "type": "address"
                },
                {
                    "internalType": "address",
                    "name": "_priceFeedContract",
                    "type": "address"
                },
                {
                    "internalType": "uint256",
                    "name": "_amount",
                    "type": "uint256"
                },
                {
                    "internalType": "uint256",
                    "name": "startStakingTime",
                    "type": "uint256"
                }
            ],
            "name": "getReward",
            "outputs": [
                {
                    "internalType": "uint256",
                    "name": "",
                    "type": "uint256"
                }
            ],
            "stateMutability": "view",
            "type": "function"
        },
        {
            "inputs": [],
            "name": "rate",
            "outputs": [
                {
                    "internalType": "uint256",
                    "name": "",
                    "type": "uint256"
                }
            ],
            "stateMutability": "view",
            "type": "function"
        },
        {
            "inputs": [],
            "name": "rewardFrequency",
            "outputs": [
                {
                    "internalType": "uint256",
                    "name": "",
                    "type": "uint256"
                }
            ],
            "stateMutability": "view",
            "type": "function"
        },
        {
            "inputs": [],
            "name": "token",
            "outputs": [
                {
                    "internalType": "contract BlueToken",
                    "name": "",
                    "type": "address"
                }
            ],
            "stateMutability": "view",
            "type": "function"
        },
        {
            "stateMutability": "payable",
            "type": "receive"
        }
    ],
    "bytecode": "608060405260c860015560006002556005600355603c6004553480156200002557600080fd5b5060405162001bcd38038062001bcd83398101604081905262000048916200007e565b600080546001600160a01b0319166001600160a01b038316179055600154620000729083620000bd565b60025550620000e09050565b600080604083850312156200009257600080fd5b825160208401519092506001600160a01b0381168114620000b257600080fd5b809150509250929050565b600082620000db57634e487b7160e01b600052601260045260246000fd5b500490565b611add80620000f06000396000f3fe6080604052600436106100c65760003560e01c8063924c65cb1161007f578063d950401d11610059578063d950401d1461021b578063e7ce7a1614610248578063edaf2d2e14610275578063fc0c546a1461028b57600080fd5b8063924c65cb146101b9578063bd15031b146101d9578063cc2e0163146101f957600080fd5b806316c19739146100d25780631d58e1dd1461011c5780632c4e722e146101405780634953c782146101565780635997bb37146101765780637b4fb4de1461018c57600080fd5b366100cd57005b600080fd5b3480156100de57600080fd5b506100f26100ed3660046116ea565b6102c3565b604080516001600160a01b0390941684526020840192909252908201526060015b60405180910390f35b34801561012857600080fd5b5061013260045481565b604051908152602001610113565b34801561014c57600080fd5b5061013260015481565b34801561016257600080fd5b50610132610171366004611705565b610408565b34801561018257600080fd5b5061013260035481565b34801561019857600080fd5b506101326101a73660046116ea565b60076020526000908152604090205481565b3480156101c557600080fd5b506101326101d4366004611738565b610778565b3480156101e557600080fd5b506101326101f436600461177a565b6108e5565b34801561020557600080fd5b5061021961021436600461177a565b610dff565b005b34801561022757600080fd5b506101326102363660046116ea565b60066020526000908152604090205481565b34801561025457600080fd5b506101326102633660046116ea565b60056020526000908152604090205481565b34801561028157600080fd5b5061013260025481565b34801561029757600080fd5b506000546102ab906001600160a01b031681565b6040516001600160a01b039091168152602001610113565b3360009081526008602052604080822090516313f814fd60e21b815282918291829173__$f444fe17631178c86b8ea0064d2a276ac7$__91634fe053f49161030f9189906004016117b6565b602060405180830381865af415801561032c573d6000803e3d6000fd5b505050506040513d601f19601f820116820180604052508101906103509190611858565b3360009081526008602052604090205490915081900361037b57600080600093509350935050610401565b33600090815260086020526040902080548691908390811061039f5761039f611871565b90600052602060002090600602016001015460086000336001600160a01b03166001600160a01b0316815260200190815260200160002083815481106103e7576103e7611871565b906000526020600020906006020160020154935093509350505b9193909250565b3360009081526008602052604080822090516313f814fd60e21b8152829173__$f444fe17631178c86b8ea0064d2a276ac7$__91634fe053f4916104509188906004016117b6565b602060405180830381865af415801561046d573d6000803e3d6000fd5b505050506040513d601f19601f820116820180604052508101906104919190611858565b336000908152600860205260409020549091506104f55760405162461bcd60e51b815260206004820181905260248201527f596f7520646f6e2774206861766520616e7920746f6b656e73207374616b656460448201526064015b60405180910390fd5b336000908152600860205260409020548190036105545760405162461bcd60e51b815260206004820181905260248201527f596f7520646f6e27742068617665207468697320746f6b656e207374616b656460448201526064016104ec565b60045433600090815260086020526040902080548390811061057857610578611871565b90600052602060002090600602016005015442610595919061189d565b10156106095760405162461bcd60e51b815260206004820152603b60248201527f596f752063616e6e6f7420636c61696d20726577617264207965742c2074686560448201527f207374616b696e6720706572696f64206973206e6f74206f766572000000000060648201526084016104ec565b61061433858561127f565b33600090815260086020526040812080548390811061063557610635611871565b6000918252602082206006919091020160030154905460405163a9059cbb60e01b8152336004820152602481018390529192506001600160a01b03169063a9059cbb906044016020604051808303816000875af115801561069a573d6000803e3d6000fd5b505050506040513d601f19601f820116820180604052508101906106be91906118b0565b503360009081526008602052604090208054829190849081106106e3576106e3611871565b9060005260206000209060060201600201600082825461070391906118d2565b90915550506001600160a01b038516600090815260076020526040812080548392906107309084906118d2565b909155505060408051338152602081018390527f21670f22ea41f8b13717112c8e6b8ce3ce14489a7077e04b5885e575645b9e52910160405180910390a19150505b92915050565b600082156108d9576000856001600160a01b031663313ce5676040518163ffffffff1660e01b8152600401602060405180830381865afa1580156107c0573d6000803e3d6000fd5b505050506040513d601f19601f820116820180604052508101906107e491906118e5565b6107ef90600a6119ec565b6040516302c68be360e31b81526001600160a01b0387166004820152859073__$f444fe17631178c86b8ea0064d2a276ac7$__906316345f1890602401602060405180830381865af4158015610849573d6000803e3d6000fd5b505050506040513d601f19601f8201168201806040525081019061086d9190611858565b61087791906119fb565b6108819190611a12565b905060006004548442610894919061189d565b6064600354600154866108a791906119fb565b6108b191906119fb565b6108bb9190611a12565b6108c591906119fb565b6108cf9190611a12565b92506108dd915050565b5060005b949350505050565b3360009081526008602052604080822090516313f814fd60e21b8152829173__$f444fe17631178c86b8ea0064d2a276ac7$__91634fe053f49161092d9189906004016117b6565b602060405180830381865af415801561094a573d6000803e3d6000fd5b505050506040513d601f19601f8201168201806040525081019061096e9190611858565b336000908152600860205260409020549091506109cd5760405162461bcd60e51b815260206004820181905260248201527f596f7520646f6e2774206861766520616e7920746f6b656e73207374616b656460448201526064016104ec565b33600090815260086020526040902054819003610a2c5760405162461bcd60e51b815260206004820181905260248201527f596f7520646f6e27742068617665207468697320746f6b656e207374616b656460448201526064016104ec565b336000908152600860205260409020805485919083908110610a5057610a50611871565b9060005260206000209060060201600101541015610ad65760405162461bcd60e51b815260206004820152603d60248201527f596f757220756e7374616b6520616d6f756e742069732067726561746572207460448201527f68616e2074686520746f6b656e207374616b656420616d6f756e74202100000060648201526084016104ec565b610aea6001600160a01b0386163386611442565b610af533868561127f565b336000908152600860205260409020805485919083908110610b1957610b19611871565b90600052602060002090600602016001015403610be8576040805160c08101825260008082526020808301829052828401829052606083018290526080830182905260a083018290523382526008905291909120805483908110610b7f57610b7f611871565b600091825260209182902083516006929092020180546001600160a01b0319166001600160a01b0390921691909117815590820151600182015560408201516002820155606082015160038201556080820151600482015560a090910151600590910155610c32565b336000908152600860205260409020805485919083908110610c0c57610c0c611871565b90600052602060002090600602016001016000828254610c2c919061189d565b90915550505b6000856001600160a01b031663313ce5676040518163ffffffff1660e01b8152600401602060405180830381865afa158015610c72573d6000803e3d6000fd5b505050506040513d601f19601f82011682018060405250810190610c9691906118e5565b610ca190600a6119ec565b6040516302c68be360e31b81526001600160a01b0386166004820152869073__$f444fe17631178c86b8ea0064d2a276ac7$__906316345f1890602401602060405180830381865af4158015610cfb573d6000803e3d6000fd5b505050506040513d601f19601f82011682018060405250810190610d1f9190611858565b610d2991906119fb565b610d339190611a12565b6001600160a01b038716600090815260066020526040812080549293508792909190610d6090849061189d565b90915550506001600160a01b03861660009081526005602052604081208054839290610d8d90849061189d565b925050819055508060026000828254610da6919061189d565b9091555050604080513381526001600160a01b03881660208201529081018690527f02ecccdc1038b6743ff964c47b7a07c31a71632f4a8039815930a94fda3e06d09060600160405180910390a19150505b9392505050565b81600003610e4f5760405162461bcd60e51b815260206004820152601e60248201527f596f752063616e6e6f74207374616b65207a65726f20616d6f756e742021000060448201526064016104ec565b6040516370a0823160e01b815233600482015282906001600160a01b038516906370a0823190602401602060405180830381865afa158015610e95573d6000803e3d6000fd5b505050506040513d601f19601f82011682018060405250810190610eb99190611858565b11610f065760405162461bcd60e51b815260206004820152601c60248201527f596f7520646f6e2774206861766520656e6f75676820746f6b656e730000000060448201526064016104ec565b610f1b6001600160a01b0384163330856114aa565b3360009081526008602052604080822090516313f814fd60e21b815273__$f444fe17631178c86b8ea0064d2a276ac7$__91634fe053f491610f62919088906004016117b6565b602060405180830381865af4158015610f7f573d6000803e3d6000fd5b505050506040513d601f19601f82011682018060405250810190610fa39190611858565b33600090815260086020526040902054909150811461101657610fc733858461127f565b336000908152600860205260409020805484919083908110610feb57610feb611871565b9060005260206000209060060201600101600082825461100b91906118d2565b909155506110b69050565b336000908152600860209081526040808320815160c0810183526001600160a01b03898116825281850189815293820186815260608301878152426080850181815260a08601918252865460018082018955978b52989099209451600690980290940180546001600160a01b0319169790931696909617825593519281019290925591516002820155915160038301559151600482015590516005909101555b6000846001600160a01b031663313ce5676040518163ffffffff1660e01b8152600401602060405180830381865afa1580156110f6573d6000803e3d6000fd5b505050506040513d601f19601f8201168201806040525081019061111a91906118e5565b61112590600a6119ec565b6040516302c68be360e31b81526001600160a01b0385166004820152859073__$f444fe17631178c86b8ea0064d2a276ac7$__906316345f1890602401602060405180830381865af415801561117f573d6000803e3d6000fd5b505050506040513d601f19601f820116820180604052508101906111a39190611858565b6111ad91906119fb565b6111b79190611a12565b6001600160a01b0386166000908152600660205260408120805492935086929091906111e49084906118d2565b90915550506001600160a01b038516600090815260056020526040812080548392906112119084906118d2565b92505081905550806002600082825461122a91906118d2565b9091555050604080513381526001600160a01b03871660208201529081018590527fbf6eac2f4b953b5538a7beedc8a7fa29bc34b3b2029a1c4d794d946c2c5014389060600160405180910390a15050505050565b3360009081526008602052604080822090516313f814fd60e21b815273__$f444fe17631178c86b8ea0064d2a276ac7$__91634fe053f4916112c6919087906004016117b6565b602060405180830381865af41580156112e3573d6000803e3d6000fd5b505050506040513d601f19601f820116820180604052508101906113079190611858565b905060006113a5848460086000896001600160a01b03166001600160a01b03168152602001908152602001600020858154811061134657611346611871565b906000526020600020906006020160010154600860008a6001600160a01b03166001600160a01b03168152602001908152602001600020868154811061138e5761138e611871565b906000526020600020906006020160040154610778565b6001600160a01b038616600090815260086020526040902080549192508291849081106113d4576113d4611871565b906000526020600020906006020160030160008282546113f491906118d2565b90915550506001600160a01b038516600090815260086020526040902080544291908490811061142657611426611871565b9060005260206000209060060201600401819055505050505050565b6040516001600160a01b0383166024820152604481018290526114a590849063a9059cbb60e01b906064015b60408051601f198184030181529190526020810180516001600160e01b03166001600160e01b0319909316929092179091526114e8565b505050565b6040516001600160a01b03808516602483015283166044820152606481018290526114e29085906323b872dd60e01b9060840161146e565b50505050565b600061153d826040518060400160405280602081526020017f5361666545524332303a206c6f772d6c6576656c2063616c6c206661696c6564815250856001600160a01b03166115ba9092919063ffffffff16565b8051909150156114a5578080602001905181019061155b91906118b0565b6114a55760405162461bcd60e51b815260206004820152602a60248201527f5361666545524332303a204552433230206f7065726174696f6e20646964206e6044820152691bdd081cdd58d8d9595960b21b60648201526084016104ec565b60606108dd8484600085856001600160a01b0385163b61161c5760405162461bcd60e51b815260206004820152601d60248201527f416464726573733a2063616c6c20746f206e6f6e2d636f6e747261637400000060448201526064016104ec565b600080866001600160a01b031685876040516116389190611a58565b60006040518083038185875af1925050503d8060008114611675576040519150601f19603f3d011682016040523d82523d6000602084013e61167a565b606091505b509150915061168a828286611695565b979650505050505050565b606083156116a4575081610df8565b8251156116b45782518084602001fd5b8160405162461bcd60e51b81526004016104ec9190611a74565b80356001600160a01b03811681146116e557600080fd5b919050565b6000602082840312156116fc57600080fd5b610df8826116ce565b6000806040838503121561171857600080fd5b611721836116ce565b915061172f602084016116ce565b90509250929050565b6000806000806080858703121561174e57600080fd5b611757856116ce565b9350611765602086016116ce565b93969395505050506040820135916060013590565b60008060006060848603121561178f57600080fd5b611798846116ce565b9250602084013591506117ad604085016116ce565b90509250925092565b600060408083018184528086548083526060925082860191508760005260208060002060005b838110156118335781546001600160a01b031685526001828101548487015260028301548887015260038301548787015260048301546080870152600583015460a087015260c090950194600690920191016117dc565b505082955061184c818801896001600160a01b03169052565b50505050509392505050565b60006020828403121561186a57600080fd5b5051919050565b634e487b7160e01b600052603260045260246000fd5b634e487b7160e01b600052601160045260246000fd5b8181038181111561077257610772611887565b6000602082840312156118c257600080fd5b81518015158114610df857600080fd5b8082018082111561077257610772611887565b6000602082840312156118f757600080fd5b815160ff81168114610df857600080fd5b600181815b8085111561194357816000190482111561192957611929611887565b8085161561193657918102915b93841c939080029061190d565b509250929050565b60008261195a57506001610772565b8161196757506000610772565b816001811461197d5760028114611987576119a3565b6001915050610772565b60ff84111561199857611998611887565b50506001821b610772565b5060208310610133831016604e8410600b84101617156119c6575081810a610772565b6119d08383611908565b80600019048211156119e4576119e4611887565b029392505050565b6000610df860ff84168361194b565b808202811582820484141761077257610772611887565b600082611a2f57634e487b7160e01b600052601260045260246000fd5b500490565b60005b83811015611a4f578181015183820152602001611a37565b50506000910152565b60008251611a6a818460208701611a34565b9190910192915050565b6020815260008251806020840152611a93816040850160208701611a34565b601f01601f1916919091016040019291505056fea2646970667358221220f760a72de6a67d00b7bb33593568b5623f566dfb218a9bfb57900aafffe7447864736f6c63430008110033",
    "sourcePath": "c:/Users/yanni/Documents/Formation Alyra/DefiStaking/contracts/Staking.sol",
    "compiler": {
        "name": "solc",
        "version": "0.8.17+commit.8df45f5f"
    },
    "functionHashes": {
        "REWARD_RATE()": "5997bb37",
        "Stake(address,uint256,address)": "cc2e0163",
        "TVL()": "edaf2d2e",
        "TVLtoken(address)": "d950401d",
        "TVLtokeninEther(address)": "e7ce7a16",
        "TotalRewardtoken(address)": "7b4fb4de",
        "UnstakePosition(address,uint256,address)": "bd15031b",
        "claimReward(address,address)": "4953c782",
        "getPosition(address)": "16c19739",
        "getReward(address,address,uint256,uint256)": "924c65cb",
        "rate()": "2c4e722e",
        "rewardFrequency()": "1d58e1dd",
        "token()": "fc0c546a"
    },
    "gasEstimates": {
        "creation": {
            "codeDepositCost": "1375400",
            "executionCost": "infinite",
            "totalCost": "infinite"
        },
        "external": {
            "REWARD_RATE()": "2384",
            "Stake(address,uint256,address)": "infinite",
            "TVL()": "2361",
            "TVLtoken(address)": "2541",
            "TVLtokeninEther(address)": "2563",
            "TotalRewardtoken(address)": "2630",
            "UnstakePosition(address,uint256,address)": "infinite",
            "claimReward(address,address)": "infinite",
            "getPosition(address)": "infinite",
            "getReward(address,address,uint256,uint256)": "infinite",
            "rate()": "2340",
            "rewardFrequency()": "2318",
            "token()": "2425"
        },
        "internal": {
            "updateCurrentReward(address,address,address)": "infinite"
        }
    }
}