{
    "contractName": "Staking",
    "abi": [
        {
            "inputs": [
                {
                    "internalType": "uint256",
                    "name": "initialSupply",
                    "type": "uint256"
                }
            ],
            "stateMutability": "nonpayable",
            "type": "constructor"
        },
        {
            "anonymous": false,
            "inputs": [
                {
                    "indexed": false,
                    "internalType": "address",
                    "name": "staker",
                    "type": "address"
                },
                {
                    "indexed": false,
                    "internalType": "uint256",
                    "name": "amount",
                    "type": "uint256"
                }
            ],
            "name": "reward",
            "type": "event"
        },
        {
            "anonymous": false,
            "inputs": [
                {
                    "indexed": false,
                    "internalType": "address",
                    "name": "staker",
                    "type": "address"
                },
                {
                    "indexed": false,
                    "internalType": "address",
                    "name": "token",
                    "type": "address"
                },
                {
                    "indexed": false,
                    "internalType": "uint256",
                    "name": "amount",
                    "type": "uint256"
                }
            ],
            "name": "stake",
            "type": "event"
        },
        {
            "anonymous": false,
            "inputs": [
                {
                    "indexed": false,
                    "internalType": "address",
                    "name": "staker",
                    "type": "address"
                },
                {
                    "indexed": false,
                    "internalType": "address",
                    "name": "token",
                    "type": "address"
                },
                {
                    "indexed": false,
                    "internalType": "uint256",
                    "name": "amount",
                    "type": "uint256"
                }
            ],
            "name": "unStake",
            "type": "event"
        },
        {
            "inputs": [
                {
                    "internalType": "address",
                    "name": "_token",
                    "type": "address"
                },
                {
                    "internalType": "uint256",
                    "name": "_amount",
                    "type": "uint256"
                },
                {
                    "internalType": "address",
                    "name": "_priceFeedContract",
                    "type": "address"
                }
            ],
            "name": "Stake",
            "outputs": [],
            "stateMutability": "nonpayable",
            "type": "function"
        },
        {
            "inputs": [],
            "name": "TVL",
            "outputs": [
                {
                    "internalType": "uint256",
                    "name": "",
                    "type": "uint256"
                }
            ],
            "stateMutability": "view",
            "type": "function"
        },
        {
            "inputs": [
                {
                    "internalType": "address",
                    "name": "_token",
                    "type": "address"
                },
                {
                    "internalType": "uint256",
                    "name": "_amount",
                    "type": "uint256"
                },
                {
                    "internalType": "address",
                    "name": "_priceFeedContract",
                    "type": "address"
                }
            ],
            "name": "UnstakePosition",
            "outputs": [],
            "stateMutability": "nonpayable",
            "type": "function"
        },
        {
            "inputs": [
                {
                    "internalType": "address",
                    "name": "_staker",
                    "type": "address"
                }
            ],
            "name": "getDeposit",
            "outputs": [
                {
                    "components": [
                        {
                            "internalType": "address",
                            "name": "token",
                            "type": "address"
                        },
                        {
                            "internalType": "uint256",
                            "name": "liquidity",
                            "type": "uint256"
                        }
                    ],
                    "internalType": "struct Staking.Deposit[]",
                    "name": "",
                    "type": "tuple[]"
                }
            ],
            "stateMutability": "view",
            "type": "function"
        },
        {
            "inputs": [],
            "name": "rate",
            "outputs": [
                {
                    "internalType": "uint256",
                    "name": "",
                    "type": "uint256"
                }
            ],
            "stateMutability": "view",
            "type": "function"
        },
        {
            "inputs": [],
            "name": "token",
            "outputs": [
                {
                    "internalType": "contract BlueToken",
                    "name": "",
                    "type": "address"
                }
            ],
            "stateMutability": "view",
            "type": "function"
        },
        {
            "stateMutability": "payable",
            "type": "receive"
        }
    ],
    "bytecode": "608060405260c8600155600060025534801561001a57600080fd5b50604051611a9b380380611a9b833981016040819052610039916100aa565b806040516100469061009d565b908152602001604051809103906000f080158015610068573d6000803e3d6000fd5b50600080546001600160a01b0319166001600160a01b039290921691909117905561009460c8826100c3565b600255506100e5565b610bd980610ec283390190565b6000602082840312156100bc57600080fd5b5051919050565b6000826100e057634e487b7160e01b600052601260045260246000fd5b500490565b610dce806100f46000396000f3fe6080604052600436106100595760003560e01c80632c4e722e14610065578063bd15031b1461008e578063cc2e0163146100b0578063e1254fba146100d0578063edaf2d2e146100fd578063fc0c546a1461011357600080fd5b3661006057005b600080fd5b34801561007157600080fd5b5061007b60015481565b6040519081526020015b60405180910390f35b34801561009a57600080fd5b506100ae6100a9366004610b8f565b61014b565b005b3480156100bc57600080fd5b506100ae6100cb366004610b8f565b610492565b3480156100dc57600080fd5b506100f06100eb366004610bcb565b6106c7565b6040516100859190610be6565b34801561010957600080fd5b5061007b60025481565b34801561011f57600080fd5b50600054610133906001600160a01b031681565b6040516001600160a01b039091168152602001610085565b336000908152600460205260409020546101ac5760405162461bcd60e51b815260206004820181905260248201527f596f7520646f6e2774206861766520616e7920746f6b656e73207374616b656460448201526064015b60405180910390fd5b60006101b83385610752565b3360009081526004602052604090205490915081900361021a5760405162461bcd60e51b815260206004820152601a60248201527f596f7520646f6e2774207374616b65207468697320746f6b656e00000000000060448201526064016101a3565b33600090815260046020526040902080548491908390811061023e5761023e610c3e565b906000526020600020906002020160010154106102ad5760405162461bcd60e51b815260206004820152602760248201527f596f7520646f6e27742920686176652074686174206d616e7920746f6b656e73604482015266081cdd185ad95960ca1b60648201526084016101a3565b816102c26001600160a01b03861633866107ff565b3360009081526004602052604090208054859190849081106102e6576102e6610c3e565b9060005260206000209060020201600101540361036f5760408051808201825260008082526020808301829052338252600490529190912080548490811061033057610330610c3e565b600091825260209182902083516002929092020180546001600160a01b0319166001600160a01b039092169190911781559101516001909101556103b9565b33600090815260046020526040902080548591908490811061039357610393610c3e565b906000526020600020906002020160010160008282546103b39190610c6a565b90915550505b600084826001600160a01b0316638e15f4736040518163ffffffff1660e01b8152600401602060405180830381865afa1580156103fa573d6000803e3d6000fd5b505050506040513d601f19601f8201168201806040525081019061041e9190610c7d565b6104289190610c96565b9050806002600082825461043c9190610c6a565b9091555050604080513381526001600160a01b03881660208201529081018690527f02ecccdc1038b6743ff964c47b7a07c31a71632f4a8039815930a94fda3e06d09060600160405180910390a1505050505050565b67016345785d8a00008210156104f65760405162461bcd60e51b815260206004820152602360248201527f796f752063616e2774207374616b65206c657373207468616e20302e312065746044820152623432b960e91b60648201526084016101a3565b8061050c6001600160a01b038516333086610867565b60006105183386610752565b3360009081526004602052604090205490915081146105805733600090815260046020526040902080548591908390811061055557610555610c3e565b906000526020600020906002020160010160008282546105759190610cb5565b909155506105e39050565b33600090815260046020908152604080832081518083019092526001600160a01b038981168352828401898152825460018082018555938752949095209251600290940290920180546001600160a01b0319169390921692909217815591519101555b600084836001600160a01b0316638e15f4736040518163ffffffff1660e01b8152600401602060405180830381865afa158015610624573d6000803e3d6000fd5b505050506040513d601f19601f820116820180604052508101906106489190610c7d565b6106529190610c96565b905080600260008282546106669190610cb5565b9091555050604080513381526001600160a01b03881660208201529081018690527fbf6eac2f4b953b5538a7beedc8a7fa29bc34b3b2029a1c4d794d946c2c5014389060600160405180910390a16106bf3387836108a5565b505050505050565b6001600160a01b0381166000908152600460209081526040808320805482518185028101850190935280835260609492939192909184015b82821015610747576000848152602090819020604080518082019091526002850290910180546001600160a01b031682526001908101548284015290835290920191016106ff565b505050509050919050565b6000805b6001600160a01b0384166000908152600460205260409020548110156107dd576001600160a01b038481166000908152600460205260409020805491851691839081106107a5576107a5610c3e565b60009182526020909120600290910201546001600160a01b0316036107cb5790506107f9565b806107d581610cc8565b915050610756565b50506001600160a01b0382166000908152600460205260409020545b92915050565b6040516001600160a01b03831660248201526044810182905261086290849063a9059cbb60e01b906064015b60408051601f198184030181529190526020810180516001600160e01b03166001600160e01b03199093169290921790915261091e565b505050565b6040516001600160a01b038085166024830152831660448201526064810182905261089f9085906323b872dd60e01b9060840161082b565b50505050565b6002546000906108b68360c8610c96565b6108c09190610ce1565b90506108d66001600160a01b03841685836107ff565b604080516001600160a01b0386168152602081018390527f21670f22ea41f8b13717112c8e6b8ce3ce14489a7077e04b5885e575645b9e52910160405180910390a150505050565b6000610973826040518060400160405280602081526020017f5361666545524332303a206c6f772d6c6576656c2063616c6c206661696c6564815250856001600160a01b03166109f09092919063ffffffff16565b80519091501561086257808060200190518101906109919190610d03565b6108625760405162461bcd60e51b815260206004820152602a60248201527f5361666545524332303a204552433230206f7065726174696f6e20646964206e6044820152691bdd081cdd58d8d9595960b21b60648201526084016101a3565b60606109ff8484600085610a09565b90505b9392505050565b606082471015610a6a5760405162461bcd60e51b815260206004820152602660248201527f416464726573733a20696e73756666696369656e742062616c616e636520666f6044820152651c8818d85b1b60d21b60648201526084016101a3565b6001600160a01b0385163b610ac15760405162461bcd60e51b815260206004820152601d60248201527f416464726573733a2063616c6c20746f206e6f6e2d636f6e747261637400000060448201526064016101a3565b600080866001600160a01b03168587604051610add9190610d49565b60006040518083038185875af1925050503d8060008114610b1a576040519150601f19603f3d011682016040523d82523d6000602084013e610b1f565b606091505b5091509150610b2f828286610b3a565b979650505050505050565b60608315610b49575081610a02565b825115610b595782518084602001fd5b8160405162461bcd60e51b81526004016101a39190610d65565b80356001600160a01b0381168114610b8a57600080fd5b919050565b600080600060608486031215610ba457600080fd5b610bad84610b73565b925060208401359150610bc260408501610b73565b90509250925092565b600060208284031215610bdd57600080fd5b610a0282610b73565b602080825282518282018190526000919060409081850190868401855b82811015610c3157815180516001600160a01b03168552860151868501529284019290850190600101610c03565b5091979650505050505050565b634e487b7160e01b600052603260045260246000fd5b634e487b7160e01b600052601160045260246000fd5b818103818111156107f9576107f9610c54565b600060208284031215610c8f57600080fd5b5051919050565b6000816000190483118215151615610cb057610cb0610c54565b500290565b808201808211156107f9576107f9610c54565b600060018201610cda57610cda610c54565b5060010190565b600082610cfe57634e487b7160e01b600052601260045260246000fd5b500490565b600060208284031215610d1557600080fd5b81518015158114610a0257600080fd5b60005b83811015610d40578181015183820152602001610d28565b50506000910152565b60008251610d5b818460208701610d25565b9190910192915050565b6020815260008251806020840152610d84816040850160208701610d25565b601f01601f1916919091016040019291505056fea264697066735822122025715c5850982a220e27908665284e611d2f0c0859fd5a01c7f83331eaeb39d164736f6c6343000810003360806040523480156200001157600080fd5b5060405162000bd938038062000bd983398101604081905262000034916200019b565b6040518060400160405280600981526020016821363ab2aa37b5b2b760b91b8152506040518060400160405280600381526020016210931560ea1b815250816003908162000083919062000259565b50600462000092828262000259565b505050620000a73382620000ae60201b60201c565b506200034d565b6001600160a01b038216620001095760405162461bcd60e51b815260206004820152601f60248201527f45524332303a206d696e7420746f20746865207a65726f206164647265737300604482015260640160405180910390fd5b80600260008282546200011d919062000325565b90915550506001600160a01b038216600090815260208190526040812080548392906200014c90849062000325565b90915550506040518181526001600160a01b038316906000907fddf252ad1be2c89b69c2b068fc378daa952ba7f163c4a11628f55a4df523b3ef9060200160405180910390a35050565b505050565b600060208284031215620001ae57600080fd5b5051919050565b634e487b7160e01b600052604160045260246000fd5b600181811c90821680620001e057607f821691505b6020821081036200020157634e487b7160e01b600052602260045260246000fd5b50919050565b601f8211156200019657600081815260208120601f850160051c81016020861015620002305750805b601f850160051c820191505b8181101562000251578281556001016200023c565b505050505050565b81516001600160401b03811115620002755762000275620001b5565b6200028d81620002868454620001cb565b8462000207565b602080601f831160018114620002c55760008415620002ac5750858301515b600019600386901b1c1916600185901b17855562000251565b600085815260208120601f198616915b82811015620002f657888601518255948401946001909101908401620002d5565b5085821015620003155787850151600019600388901b60f8161c191681555b5050505050600190811b01905550565b808201808211156200034757634e487b7160e01b600052601160045260246000fd5b92915050565b61087c806200035d6000396000f3fe608060405234801561001057600080fd5b50600436106100a95760003560e01c80633950935111610071578063395093511461012357806370a082311461013657806395d89b411461015f578063a457c2d714610167578063a9059cbb1461017a578063dd62ed3e1461018d57600080fd5b806306fdde03146100ae578063095ea7b3146100cc57806318160ddd146100ef57806323b872dd14610101578063313ce56714610114575b600080fd5b6100b66101a0565b6040516100c391906106c6565b60405180910390f35b6100df6100da366004610730565b610232565b60405190151581526020016100c3565b6002545b6040519081526020016100c3565b6100df61010f36600461075a565b61024c565b604051601281526020016100c3565b6100df610131366004610730565b610270565b6100f3610144366004610796565b6001600160a01b031660009081526020819052604090205490565b6100b6610292565b6100df610175366004610730565b6102a1565b6100df610188366004610730565b610321565b6100f361019b3660046107b8565b61032f565b6060600380546101af906107eb565b80601f01602080910402602001604051908101604052809291908181526020018280546101db906107eb565b80156102285780601f106101fd57610100808354040283529160200191610228565b820191906000526020600020905b81548152906001019060200180831161020b57829003601f168201915b5050505050905090565b60003361024081858561035a565b60019150505b92915050565b60003361025a85828561047e565b6102658585856104f8565b506001949350505050565b600033610240818585610283838361032f565b61028d9190610825565b61035a565b6060600480546101af906107eb565b600033816102af828661032f565b9050838110156103145760405162461bcd60e51b815260206004820152602560248201527f45524332303a2064656372656173656420616c6c6f77616e63652062656c6f77604482015264207a65726f60d81b60648201526084015b60405180910390fd5b610265828686840361035a565b6000336102408185856104f8565b6001600160a01b03918216600090815260016020908152604080832093909416825291909152205490565b6001600160a01b0383166103bc5760405162461bcd60e51b8152602060048201526024808201527f45524332303a20617070726f76652066726f6d20746865207a65726f206164646044820152637265737360e01b606482015260840161030b565b6001600160a01b03821661041d5760405162461bcd60e51b815260206004820152602260248201527f45524332303a20617070726f766520746f20746865207a65726f206164647265604482015261737360f01b606482015260840161030b565b6001600160a01b0383811660008181526001602090815260408083209487168084529482529182902085905590518481527f8c5be1e5ebec7d5bd14f71427d1e84f3dd0314c0f7b2291e5b200ac8c7c3b925910160405180910390a3505050565b600061048a848461032f565b905060001981146104f257818110156104e55760405162461bcd60e51b815260206004820152601d60248201527f45524332303a20696e73756666696369656e7420616c6c6f77616e6365000000604482015260640161030b565b6104f2848484840361035a565b50505050565b6001600160a01b03831661055c5760405162461bcd60e51b815260206004820152602560248201527f45524332303a207472616e736665722066726f6d20746865207a65726f206164604482015264647265737360d81b606482015260840161030b565b6001600160a01b0382166105be5760405162461bcd60e51b815260206004820152602360248201527f45524332303a207472616e7366657220746f20746865207a65726f206164647260448201526265737360e81b606482015260840161030b565b6001600160a01b038316600090815260208190526040902054818110156106365760405162461bcd60e51b815260206004820152602660248201527f45524332303a207472616e7366657220616d6f756e7420657863656564732062604482015265616c616e636560d01b606482015260840161030b565b6001600160a01b0380851660009081526020819052604080822085850390559185168152908120805484929061066d908490610825565b92505081905550826001600160a01b0316846001600160a01b03167fddf252ad1be2c89b69c2b068fc378daa952ba7f163c4a11628f55a4df523b3ef846040516106b991815260200190565b60405180910390a36104f2565b600060208083528351808285015260005b818110156106f3578581018301518582016040015282016106d7565b506000604082860101526040601f19601f8301168501019250505092915050565b80356001600160a01b038116811461072b57600080fd5b919050565b6000806040838503121561074357600080fd5b61074c83610714565b946020939093013593505050565b60008060006060848603121561076f57600080fd5b61077884610714565b925061078660208501610714565b9150604084013590509250925092565b6000602082840312156107a857600080fd5b6107b182610714565b9392505050565b600080604083850312156107cb57600080fd5b6107d483610714565b91506107e260208401610714565b90509250929050565b600181811c908216806107ff57607f821691505b60208210810361081f57634e487b7160e01b600052602260045260246000fd5b50919050565b8082018082111561024657634e487b7160e01b600052601160045260246000fdfea2646970667358221220a92480440c754ae0cd73896fe4fb3977bc6406a5bde921604f78a9679c7efdd164736f6c63430008100033",
    "sourcePath": "c:/Users/yanni/Documents/Formation Alyra/DefiStaking/contracts/Staking.sol",
    "compiler": {
        "name": "solc",
        "version": "0.8.16+commit.07a7930e"
    },
    "functionHashes": {
        "Stake(address,uint256,address)": "cc2e0163",
        "TVL()": "edaf2d2e",
        "UnstakePosition(address,uint256,address)": "bd15031b",
        "getDeposit(address)": "e1254fba",
        "rate()": "2c4e722e",
        "token()": "fc0c546a"
    },
    "gasEstimates": {
        "creation": {
            "codeDepositCost": "706800",
            "executionCost": "infinite",
            "totalCost": "infinite"
        },
        "external": {
            "Stake(address,uint256,address)": "infinite",
            "TVL()": "2350",
            "UnstakePosition(address,uint256,address)": "infinite",
            "getDeposit(address)": "infinite",
            "rate()": "2262",
            "token()": "2425"
        },
        "internal": {
            "Reward(address,address,uint256)": "infinite",
            "getIndexTokenStaked(address,address)": "infinite"
        }
    }
}