{
    "contractName": "TestableStaking",
    "abi": [
        {
            "inputs": [],
            "stateMutability": "nonpayable",
            "type": "constructor"
        },
        {
            "inputs": [],
            "name": "BNB",
            "outputs": [
                {
                    "internalType": "address",
                    "name": "",
                    "type": "address"
                }
            ],
            "stateMutability": "view",
            "type": "function"
        },
        {
            "inputs": [
                {
                    "internalType": "address",
                    "name": "",
                    "type": "address"
                },
                {
                    "internalType": "uint256",
                    "name": "",
                    "type": "uint256"
                }
            ],
            "name": "DepositList",
            "outputs": [
                {
                    "internalType": "address",
                    "name": "token",
                    "type": "address"
                },
                {
                    "internalType": "uint256",
                    "name": "liquidity",
                    "type": "uint256"
                }
            ],
            "stateMutability": "view",
            "type": "function"
        },
        {
            "inputs": [],
            "name": "USDT",
            "outputs": [
                {
                    "internalType": "address",
                    "name": "",
                    "type": "address"
                }
            ],
            "stateMutability": "view",
            "type": "function"
        },
        {
            "inputs": [],
            "name": "WETH",
            "outputs": [
                {
                    "internalType": "address",
                    "name": "",
                    "type": "address"
                }
            ],
            "stateMutability": "view",
            "type": "function"
        },
        {
            "inputs": [
                {
                    "internalType": "address",
                    "name": "_staker",
                    "type": "address"
                },
                {
                    "internalType": "address",
                    "name": "_token",
                    "type": "address"
                }
            ],
            "name": "getIndexTokenStaked",
            "outputs": [
                {
                    "internalType": "uint256",
                    "name": "",
                    "type": "uint256"
                }
            ],
            "stateMutability": "view",
            "type": "function"
        }
    ],
    "bytecode": "6080604052600180546001600160a01b031990811673c02aaa39b223fe8d0a0e5c4f27ead9083c756cc21790915560028054821673b8c77482e45f1f44de1745f52c74426c631bdd521790556003805490911673dac17f958d2ee523a2206206994597c13d831ec717905534801561007657600080fd5b506102e4806100866000396000f3fe608060405234801561001057600080fd5b50600436106100575760003560e01c806358f7f6d21461005c5780638a1458711461008c578063ad5c4648146100ad578063c54e44eb146100c0578063deef9f92146100d3575b600080fd5b60025461006f906001600160a01b031681565b6040516001600160a01b0390911681526020015b60405180910390f35b61009f61009a366004610214565b610105565b604051908152602001610083565b60015461006f906001600160a01b031681565b60035461006f906001600160a01b031681565b6100e66100e1366004610247565b6101b2565b604080516001600160a01b039093168352602083019190915201610083565b6000805b6001600160a01b038416600090815260208190526040902054811015610190576001600160a01b0384811660009081526020819052604090208054918516918390811061015857610158610271565b60009182526020909120600290910201546001600160a01b03160361017e5790506101ac565b8061018881610287565b915050610109565b50506001600160a01b0382166000908152602081905260409020545b92915050565b600060205281600052604060002081815481106101ce57600080fd5b6000918252602090912060029091020180546001909101546001600160a01b039091169250905082565b80356001600160a01b038116811461020f57600080fd5b919050565b6000806040838503121561022757600080fd5b610230836101f8565b915061023e602084016101f8565b90509250929050565b6000806040838503121561025a57600080fd5b610263836101f8565b946020939093013593505050565b634e487b7160e01b600052603260045260246000fd5b6000600182016102a757634e487b7160e01b600052601160045260246000fd5b506001019056fea264697066735822122006bde9a53334e03de342787e7d08272a184a7678048c8e42ff8a616b9a10ace964736f6c63430008100033",
    "sourcePath": "c:/Users/yanni/Documents/Formation Alyra/DefiStaking/contracts/TestableStaking.sol",
    "compiler": {
        "name": "solc",
        "version": "0.8.16+commit.07a7930e"
    },
    "functionHashes": {
        "BNB()": "58f7f6d2",
        "DepositList(address,uint256)": "deef9f92",
        "USDT()": "c54e44eb",
        "WETH()": "ad5c4648",
        "getIndexTokenStaked(address,address)": "8a145871"
    },
    "gasEstimates": {
        "creation": {
            "codeDepositCost": "148000",
            "executionCost": "72886",
            "totalCost": "220886"
        },
        "external": {
            "BNB()": "2304",
            "DepositList(address,uint256)": "7009",
            "USDT()": "2370",
            "WETH()": "2348",
            "getIndexTokenStaked(address,address)": "infinite"
        }
    }
}