{
  "contractName": "ContractTransfer",
  "abi": [
    {
      "inputs": [],
      "stateMutability": "nonpayable",
      "type": "constructor"
    },
    {
      "stateMutability": "payable",
      "type": "receive",
      "payable": true
    },
    {
      "inputs": [
        {
          "internalType": "address",
          "name": "_token",
          "type": "address"
        },
        {
          "internalType": "address",
          "name": "_to",
          "type": "address"
        },
        {
          "internalType": "uint256",
          "name": "_amount",
          "type": "uint256"
        }
      ],
      "name": "transferERC20tokens",
      "outputs": [],
      "stateMutability": "payable",
      "type": "function",
      "payable": true
    }
  ],
  "bytecode": "0x608060405234801561001057600080fd5b50610179806100206000396000f3fe6080604052600436106100225760003560e01c8063a780748a1461002e57600080fd5b3661002957005b600080fd5b61004161003c3660046100de565b610043565b005b6040516323b872dd60e01b81523360048201526001600160a01b038381166024830152604482018390528416906323b872dd906064016020604051808303816000875af1158015610098573d6000803e3d6000fd5b505050506040513d601f19601f820116820180604052508101906100bc919061011a565b50505050565b80356001600160a01b03811681146100d957600080fd5b919050565b6000806000606084860312156100f357600080fd5b6100fc846100c2565b925061010a602085016100c2565b9150604084013590509250925092565b60006020828403121561012c57600080fd5b8151801515811461013c57600080fd5b939250505056fea26469706673582212205ca6203aac88562baba7178e87bc9aa8065eaa08662fc3875a7246bdacda7a9264736f6c63430008100033",
  "immutableReferences": {},
  "source": "// SPDX-License-Identifier: GPL-2.0-or-later\r\npragma solidity 0.8.16;\r\n\r\nimport \"@openzeppelin/contracts/token/ERC20/utils/SafeERC20.sol\";\r\ncontract ContractTransfer {\r\n\r\n    using SafeERC20 for IERC20;\r\n\r\n    constructor(){}\r\n\r\n    function transferERC20tokens(address _token, address _to, uint _amount) external payable {\r\n        IERC20(_token).transferFrom(msg.sender, _to, _amount);\r\n    }\r\n\r\n\r\n    receive() external payable {\r\n        \r\n    }\r\n}",
  "sourcePath": "C:\\Users\\yanni\\Documents\\Formation Alyra\\DefiStaking\\contracts\\ContractTransfer.sol",
  "compiler": {
    "name": "solc",
    "version": "0.8.16+commit.07a7930e.Emscripten.clang"
  },
  "schemaVersion": "3.4.4",
  "updatedAt": "2022-08-28T21:22:51.864Z",
  "networkType": "ethereum",
  "devdoc": {
    "kind": "dev",
    "methods": {},
    "version": 1
  },
  "userdoc": {
    "kind": "user",
    "methods": {},
    "version": 1
  }
}