{
  "contractName": "Staking",
  "abi": [
    {
      "inputs": [
        {
          "internalType": "uint256",
          "name": "initialSupply",
          "type": "uint256"
        },
        {
          "internalType": "address",
          "name": "_tokenReward",
          "type": "address"
        }
      ],
      "stateMutability": "nonpayable",
      "type": "constructor"
    },
    {
      "anonymous": false,
      "inputs": [
        {
          "indexed": false,
          "internalType": "address",
          "name": "staker",
          "type": "address"
        },
        {
          "indexed": false,
          "internalType": "uint256",
          "name": "amount",
          "type": "uint256"
        }
      ],
      "name": "reward",
      "type": "event"
    },
    {
      "anonymous": false,
      "inputs": [
        {
          "indexed": false,
          "internalType": "address",
          "name": "staker",
          "type": "address"
        },
        {
          "indexed": false,
          "internalType": "address",
          "name": "token",
          "type": "address"
        },
        {
          "indexed": false,
          "internalType": "uint256",
          "name": "amount",
          "type": "uint256"
        }
      ],
      "name": "stake",
      "type": "event"
    },
    {
      "anonymous": false,
      "inputs": [
        {
          "indexed": false,
          "internalType": "address",
          "name": "staker",
          "type": "address"
        },
        {
          "indexed": false,
          "internalType": "address",
          "name": "token",
          "type": "address"
        },
        {
          "indexed": false,
          "internalType": "uint256",
          "name": "amount",
          "type": "uint256"
        }
      ],
      "name": "unStake",
      "type": "event"
    },
    {
      "inputs": [],
      "name": "TVL",
      "outputs": [
        {
          "internalType": "uint256",
          "name": "",
          "type": "uint256"
        }
      ],
      "stateMutability": "view",
      "type": "function",
      "constant": true
    },
    {
      "inputs": [
        {
          "internalType": "address",
          "name": "",
          "type": "address"
        }
      ],
      "name": "TVLtoken",
      "outputs": [
        {
          "internalType": "uint256",
          "name": "",
          "type": "uint256"
        }
      ],
      "stateMutability": "view",
      "type": "function",
      "constant": true
    },
    {
      "inputs": [
        {
          "internalType": "address",
          "name": "",
          "type": "address"
        }
      ],
      "name": "TVLtokeninEther",
      "outputs": [
        {
          "internalType": "uint256",
          "name": "",
          "type": "uint256"
        }
      ],
      "stateMutability": "view",
      "type": "function",
      "constant": true
    },
    {
      "inputs": [
        {
          "internalType": "address",
          "name": "",
          "type": "address"
        }
      ],
      "name": "TotalRewardtoken",
      "outputs": [
        {
          "internalType": "uint256",
          "name": "",
          "type": "uint256"
        }
      ],
      "stateMutability": "view",
      "type": "function",
      "constant": true
    },
    {
      "inputs": [],
      "name": "rate",
      "outputs": [
        {
          "internalType": "uint256",
          "name": "",
          "type": "uint256"
        }
      ],
      "stateMutability": "view",
      "type": "function",
      "constant": true
    },
    {
      "inputs": [],
      "name": "token",
      "outputs": [
        {
          "internalType": "contract BlueToken",
          "name": "",
          "type": "address"
        }
      ],
      "stateMutability": "view",
      "type": "function",
      "constant": true
    },
    {
      "stateMutability": "payable",
      "type": "receive",
      "payable": true
    },
    {
      "inputs": [
        {
          "internalType": "address",
          "name": "_token",
          "type": "address"
        },
        {
          "internalType": "uint256",
          "name": "_amount",
          "type": "uint256"
        },
        {
          "internalType": "address",
          "name": "_priceFeedContract",
          "type": "address"
        }
      ],
      "name": "Stake",
      "outputs": [
        {
          "internalType": "uint256",
          "name": "",
          "type": "uint256"
        }
      ],
      "stateMutability": "nonpayable",
      "type": "function"
    },
    {
      "inputs": [
        {
          "internalType": "address",
          "name": "_token",
          "type": "address"
        },
        {
          "internalType": "uint256",
          "name": "_amount",
          "type": "uint256"
        },
        {
          "internalType": "address",
          "name": "_priceFeedContract",
          "type": "address"
        }
      ],
      "name": "UnstakePosition",
      "outputs": [
        {
          "internalType": "uint256",
          "name": "",
          "type": "uint256"
        }
      ],
      "stateMutability": "nonpayable",
      "type": "function"
    },
    {
      "inputs": [],
      "name": "getAllPositions",
      "outputs": [
        {
          "components": [
            {
              "internalType": "address",
              "name": "token",
              "type": "address"
            },
            {
              "internalType": "uint256",
              "name": "liquidity",
              "type": "uint256"
            },
            {
              "internalType": "uint256",
              "name": "rewardBLT",
              "type": "uint256"
            }
          ],
          "internalType": "struct StakingLibrary.Position[]",
          "name": "",
          "type": "tuple[]"
        }
      ],
      "stateMutability": "view",
      "type": "function",
      "constant": true
    },
    {
      "inputs": [
        {
          "internalType": "address",
          "name": "_token",
          "type": "address"
        }
      ],
      "name": "getPosition",
      "outputs": [
        {
          "internalType": "address",
          "name": "",
          "type": "address"
        },
        {
          "internalType": "uint256",
          "name": "",
          "type": "uint256"
        },
        {
          "internalType": "uint256",
          "name": "",
          "type": "uint256"
        }
      ],
      "stateMutability": "view",
      "type": "function",
      "constant": true
    }
  ],
  "bytecode": "0x608060405260c8600155600060025534801561001a57600080fd5b506040516116173803806116178339810160408190526100399161006c565b600080546001600160a01b0319166001600160a01b03831617905560015461006190836100a9565b600255506100cb9050565b6000806040838503121561007f57600080fd5b825160208401519092506001600160a01b038116811461009e57600080fd5b809150509250929050565b6000826100c657634e487b7160e01b600052601260045260246000fd5b500490565b61153d806100da6000396000f3fe6080604052600436106100955760003560e01c8063cc2e016311610059578063cc2e01631461017e578063d950401d1461019e578063e7ce7a16146101cb578063edaf2d2e146101f8578063fc0c546a1461020e57600080fd5b806316c19739146100a157806318f56a0a146100eb5780632c4e722e1461010d5780637b4fb4de14610131578063bd15031b1461015e57600080fd5b3661009c57005b600080fd5b3480156100ad57600080fd5b506100c16100bc366004611181565b610246565b604080516001600160a01b0390941684526020840192909252908201526060015b60405180910390f35b3480156100f757600080fd5b5061010061038b565b6040516100e2919061119c565b34801561011957600080fd5b5061012360015481565b6040519081526020016100e2565b34801561013d57600080fd5b5061012361014c366004611181565b60056020526000908152604090205481565b34801561016a57600080fd5b506101236101793660046111fe565b610418565b34801561018a57600080fd5b506101236101993660046111fe565b6108f9565b3480156101aa57600080fd5b506101236101b9366004611181565b60046020526000908152604090205481565b3480156101d757600080fd5b506101236101e6366004611181565b60036020526000908152604090205481565b34801561020457600080fd5b5061012360025481565b34801561021a57600080fd5b5060005461022e906001600160a01b031681565b6040516001600160a01b0390911681526020016100e2565b3360009081526006602052604080822090516313f814fd60e21b815282918291829173__StakingLibrary________________________91634fe053f49161029291899060040161123a565b602060405180830381865af41580156102af573d6000803e3d6000fd5b505050506040513d601f19601f820116820180604052508101906102d391906112b8565b336000908152600660205260409020549091508190036102fe57600080600093509350935050610384565b336000908152600660205260409020805486919083908110610322576103226112d1565b90600052602060002090600302016001015460066000336001600160a01b03166001600160a01b03168152602001908152602001600020838154811061036a5761036a6112d1565b906000526020600020906003020160020154935093509350505b9193909250565b336000908152600660209081526040808320805482518185028101850190935280835260609492939192909184015b8282101561040f576000848152602090819020604080516060810182526003860290920180546001600160a01b03168352600180820154848601526002909101549183019190915290835290920191016103ba565b50505050905090565b3360009081526006602052604080822090516313f814fd60e21b8152829173__StakingLibrary________________________91634fe053f49161046091899060040161123a565b602060405180830381865af415801561047d573d6000803e3d6000fd5b505050506040513d601f19601f820116820180604052508101906104a191906112b8565b336000908152600660205260409020549091506105055760405162461bcd60e51b815260206004820181905260248201527f596f7520646f6e2774206861766520616e7920746f6b656e73207374616b656460448201526064015b60405180910390fd5b336000908152600660205260409020548190036105645760405162461bcd60e51b815260206004820181905260248201527f596f7520646f6e27742068617665207468697320746f6b656e207374616b656460448201526064016104fc565b336000908152600660205260409020805485919083908110610588576105886112d1565b906000526020600020906003020160010154101561060e5760405162461bcd60e51b815260206004820152603d60248201527f596f757220756e7374616b6520616d6f756e742069732067726561746572207460448201527f68616e2074686520746f6b656e207374616b656420616d6f756e74202100000060648201526084016104fc565b6106226001600160a01b0386163386610d7e565b336000908152600660205260409020805485919083908110610646576106466112d1565b906000526020600020906003020160010154036106e25760408051606081018252600080825260208083018290528284018290523382526006905291909120805483908110610697576106976112d1565b600091825260209182902083516003929092020180546001600160a01b0319166001600160a01b0390921691909117815590820151600182015560409091015160029091015561072c565b336000908152600660205260409020805485919083908110610706576107066112d1565b9060005260206000209060030201600101600082825461072691906112fd565b90915550505b6000856001600160a01b031663313ce5676040518163ffffffff1660e01b8152600401602060405180830381865afa15801561076c573d6000803e3d6000fd5b505050506040513d601f19601f820116820180604052508101906107909190611310565b61079b90600a611417565b6040516302c68be360e31b81526001600160a01b0386166004820152869073__StakingLibrary________________________906316345f1890602401602060405180830381865af41580156107f5573d6000803e3d6000fd5b505050506040513d601f19601f8201168201806040525081019061081991906112b8565b6108239190611426565b61082d919061143d565b6001600160a01b03871660009081526004602052604081208054929350879290919061085a9084906112fd565b90915550506001600160a01b038616600090815260036020526040812080548392906108879084906112fd565b9250508190555080600260008282546108a091906112fd565b9091555050604080513381526001600160a01b03881660208201529081018690527f02ecccdc1038b6743ff964c47b7a07c31a71632f4a8039815930a94fda3e06d09060600160405180910390a19150505b9392505050565b6040516370a0823160e01b815233600482015260009083906001600160a01b038616906370a0823190602401602060405180830381865afa158015610942573d6000803e3d6000fd5b505050506040513d601f19601f8201168201806040525081019061096691906112b8565b116109b35760405162461bcd60e51b815260206004820152601c60248201527f596f7520646f6e2774206861766520656e6f75676820746f6b656e730000000060448201526064016104fc565b6109c86001600160a01b038516333086610de6565b3360009081526006602052604080822090516313f814fd60e21b815273__StakingLibrary________________________91634fe053f491610a0f9190899060040161123a565b602060405180830381865af4158015610a2c573d6000803e3d6000fd5b505050506040513d601f19601f82011682018060405250810190610a5091906112b8565b336000908152600660205260409020549091508114610ab857336000908152600660205260409020805485919083908110610a8d57610a8d6112d1565b90600052602060002090600302016001016000828254610aad919061145f565b90915550610b2a9050565b33600090815260066020908152604080832081516060810183526001600160a01b038a811682528185018a8152938201868152835460018082018655948852959096209151600390950290910180546001600160a01b0319169490911693909317835590519082015590516002909101555b6000856001600160a01b031663313ce5676040518163ffffffff1660e01b8152600401602060405180830381865afa158015610b6a573d6000803e3d6000fd5b505050506040513d601f19601f82011682018060405250810190610b8e9190611310565b610b9990600a611417565b6040516302c68be360e31b81526001600160a01b0386166004820152869073__StakingLibrary________________________906316345f1890602401602060405180830381865af4158015610bf3573d6000803e3d6000fd5b505050506040513d601f19601f82011682018060405250810190610c1791906112b8565b610c219190611426565b610c2b919061143d565b6001600160a01b038716600090815260046020526040812080549293508792909190610c5890849061145f565b90915550506001600160a01b03861660009081526003602052604081208054839290610c8590849061145f565b9091555060009050610c973383610e24565b6001600160a01b038816600090815260056020526040812080549293508392909190610cc490849061145f565b9091555050336000908152600660205260409020805482919085908110610ced57610ced6112d1565b90600052602060002090600302016002016000828254610d0d919061145f565b925050819055508160026000828254610d26919061145f565b9091555050604080513381526001600160a01b03891660208201529081018790527fbf6eac2f4b953b5538a7beedc8a7fa29bc34b3b2029a1c4d794d946c2c5014389060600160405180910390a19695505050505050565b6040516001600160a01b038316602482015260448101829052610de190849063a9059cbb60e01b906064015b60408051601f198184030181529190526020810180516001600160e01b03166001600160e01b031990931692909217909152610f12565b505050565b6040516001600160a01b0380851660248301528316604482015260648101829052610e1e9085906323b872dd60e01b90608401610daa565b50505050565b6000806002546001548485610e399190611426565b610e439190611426565b610e4d919061143d565b60005460405163a9059cbb60e01b81526001600160a01b0387811660048301526024820184905292935091169063a9059cbb906044016020604051808303816000875af1158015610ea2573d6000803e3d6000fd5b505050506040513d601f19601f82011682018060405250810190610ec69190611472565b50604080516001600160a01b0386168152602081018390527f21670f22ea41f8b13717112c8e6b8ce3ce14489a7077e04b5885e575645b9e52910160405180910390a190505b92915050565b6000610f67826040518060400160405280602081526020017f5361666545524332303a206c6f772d6c6576656c2063616c6c206661696c6564815250856001600160a01b0316610fe49092919063ffffffff16565b805190915015610de15780806020019051810190610f859190611472565b610de15760405162461bcd60e51b815260206004820152602a60248201527f5361666545524332303a204552433230206f7065726174696f6e20646964206e6044820152691bdd081cdd58d8d9595960b21b60648201526084016104fc565b6060610ff38484600085610ffb565b949350505050565b60608247101561105c5760405162461bcd60e51b815260206004820152602660248201527f416464726573733a20696e73756666696369656e742062616c616e636520666f6044820152651c8818d85b1b60d21b60648201526084016104fc565b6001600160a01b0385163b6110b35760405162461bcd60e51b815260206004820152601d60248201527f416464726573733a2063616c6c20746f206e6f6e2d636f6e747261637400000060448201526064016104fc565b600080866001600160a01b031685876040516110cf91906114b8565b60006040518083038185875af1925050503d806000811461110c576040519150601f19603f3d011682016040523d82523d6000602084013e611111565b606091505b509150915061112182828661112c565b979650505050505050565b6060831561113b5750816108f2565b82511561114b5782518084602001fd5b8160405162461bcd60e51b81526004016104fc91906114d4565b80356001600160a01b038116811461117c57600080fd5b919050565b60006020828403121561119357600080fd5b6108f282611165565b602080825282518282018190526000919060409081850190868401855b828110156111f157815180516001600160a01b03168552868101518786015285015185850152606090930192908501906001016111b9565b5091979650505050505050565b60008060006060848603121561121357600080fd5b61121c84611165565b92506020840135915061123160408501611165565b90509250925092565b600060408083018184528086548083526060925082860191508760005260208060002060005b838110156112985781546001600160a01b03168552600182810154848701526002830154888701529486019460039092019101611260565b50506001600160a01b039790971695909601949094525091949350505050565b6000602082840312156112ca57600080fd5b5051919050565b634e487b7160e01b600052603260045260246000fd5b634e487b7160e01b600052601160045260246000fd5b81810381811115610f0c57610f0c6112e7565b60006020828403121561132257600080fd5b815160ff811681146108f257600080fd5b600181815b8085111561136e578160001904821115611354576113546112e7565b8085161561136157918102915b93841c9390800290611338565b509250929050565b60008261138557506001610f0c565b8161139257506000610f0c565b81600181146113a857600281146113b2576113ce565b6001915050610f0c565b60ff8411156113c3576113c36112e7565b50506001821b610f0c565b5060208310610133831016604e8410600b84101617156113f1575081810a610f0c565b6113fb8383611333565b806000190482111561140f5761140f6112e7565b029392505050565b60006108f260ff841683611376565b8082028115828204841417610f0c57610f0c6112e7565b60008261145a57634e487b7160e01b600052601260045260246000fd5b500490565b80820180821115610f0c57610f0c6112e7565b60006020828403121561148457600080fd5b815180151581146108f257600080fd5b60005b838110156114af578181015183820152602001611497565b50506000910152565b600082516114ca818460208701611494565b9190910192915050565b60208152600082518060208401526114f3816040850160208701611494565b601f01601f1916919091016040019291505056fea264697066735822122059c4648f386c3f0e45084e377d35c58bca60ada802275b7ab6708406ab24ac3964736f6c63430008110033",
  "immutableReferences": {},
  "source": "// SPDX-License-Identifier: GPL-2.0-or-later\r\npragma solidity 0.8.17;\r\n\r\n\r\nimport \"./BlueToken.sol\";\r\nimport \"@openzeppelin/contracts/token/ERC20/utils/SafeERC20.sol\";\r\nimport \"@openzeppelin/contracts/token/ERC20/extensions/IERC20Metadata.sol\";\r\nimport {StakingLibrary} from \"./StakingLibrary.sol\";\r\n\r\n\r\ncontract Staking {\r\n\r\n    using SafeERC20 for IERC20Metadata;\r\n\r\n    BlueToken public token;\r\n\r\n    // Rate BLK/ETH : 100 BLK = 1 ETH or 1 BLK = 10^16 WEI\r\n    uint public rate = 200;\r\n\r\n    // Total value locked in the contract in Wei\r\n    uint public TVL = 0;\r\n\r\n    // TVL (in ether) by token\r\n    mapping(address => uint) public TVLtokeninEther;\r\n\r\n    // TVL (in ERC20) by token\r\n    mapping(address => uint) public TVLtoken;\r\n\r\n    // Total reward (in BLT) earned by token\r\n    mapping(address => uint) public TotalRewardtoken;\r\n\r\n    // List of Positions attached to the staker address\r\n    mapping (address => StakingLibrary.Position[]) private PositionsList;\r\n\r\n    // staking event\r\n    event stake(address staker, address token, uint amount);\r\n    event unStake(address staker, address token, uint amount);\r\n    event reward(address staker, uint amount);\r\n\r\n\r\n    // Constructor mint reward's token and send them to staking contract\r\n    constructor(uint256 initialSupply, address _tokenReward){\r\n        //token = new BlueToken(initialSupply);\r\n        token = BlueToken(_tokenReward);\r\n        TVL = (initialSupply/rate); \r\n        \r\n    }\r\n\r\n    //Reward the staker with Blue Token \r\n    \r\n    function Reward(address _staker, uint _amountTokenStakedinEther ) internal returns(uint){\r\n\r\n        // The reward has to be proportional to the TVL in the contract\r\n        uint rewardBLT = (_amountTokenStakedinEther*_amountTokenStakedinEther*rate)/TVL;\r\n        token.transfer(_staker, rewardBLT);\r\n        \r\n        emit reward(_staker, rewardBLT);\r\n\r\n        return rewardBLT;\r\n    }\r\n\r\n    //Investors can stake any amount of an ERC20 token\r\n    function Stake(address _token, uint256 _amount, address _priceFeedContract) external returns(uint) {\r\n        require(IERC20(_token).balanceOf(msg.sender) > _amount, \"You don't have enough tokens\");\r\n        // Send the token of the staker to the contract Staking\r\n        IERC20Metadata(_token).safeTransferFrom(msg.sender, address(this), _amount);\r\n        \r\n        // Add the new Position to the PositionsList or only updates the amount\r\n        // if a Position has been already created for this token\r\n        uint indexTokenStaked = StakingLibrary.getIndexTokenStaked(PositionsList[msg.sender], _token);\r\n        if (indexTokenStaked != PositionsList[msg.sender].length) {\r\n            //The Position of the staker is updated with new amount of token staked\r\n            PositionsList[msg.sender][indexTokenStaked].liquidity += _amount;\r\n        }\r\n        else {\r\n            //A new Position is created for this staker\r\n            PositionsList[msg.sender].push(StakingLibrary.Position(_token, _amount, 0));\r\n        }\r\n\r\n        // Update the TVL with the token just staked\r\n        uint amountTokenStakedinEther;\r\n        amountTokenStakedinEther = uint(StakingLibrary.getLatestPrice(_priceFeedContract)) * _amount/ 10**IERC20Metadata(_token).decimals();\r\n\r\n        // Update the TVL by token\r\n        TVLtoken[_token] += _amount;\r\n        TVLtokeninEther[_token] += amountTokenStakedinEther;\r\n\r\n        //Reward the staker and update the TVL of the staking contract\r\n        uint rewardBLT = Reward(msg.sender, amountTokenStakedinEther);\r\n\r\n        // Update the total reward earned by token\r\n        TotalRewardtoken[_token] += rewardBLT;\r\n\r\n        //Update reward amount for this position\r\n        PositionsList[msg.sender][indexTokenStaked].rewardBLT += rewardBLT;\r\n        // Update the TVL\r\n        TVL += amountTokenStakedinEther;\r\n\r\n        //Event log position staked\r\n        emit stake(msg.sender, _token, _amount);\r\n\r\n        return rewardBLT;\r\n        \r\n    }\r\n\r\n    function UnstakePosition(address _token, uint256 _amount, address _priceFeedContract ) external returns(uint){\r\n        uint indexTokenStaked = StakingLibrary.getIndexTokenStaked(PositionsList[msg.sender], _token);\r\n\r\n        require(PositionsList[msg.sender].length > 0, \"You don't have any tokens staked\");     \r\n        require(PositionsList[msg.sender].length != indexTokenStaked, \"You don't have this token staked\");\r\n        require(PositionsList[msg.sender][indexTokenStaked].liquidity >= _amount, \"Your unstake amount is greater than the token staked amount !\");\r\n\r\n        // Unstake staking position \r\n        IERC20Metadata(_token).safeTransfer(msg.sender, _amount);\r\n\r\n        // Updates the PositionsList\r\n        if (PositionsList[msg.sender][indexTokenStaked].liquidity == _amount) {\r\n            // Erase staking position \r\n            PositionsList[msg.sender][indexTokenStaked] =  StakingLibrary.Position(address(0),  0, 0);\r\n\r\n        } else PositionsList[msg.sender][indexTokenStaked].liquidity -= _amount;\r\n\r\n        // Update the TVL with the token just unstaked\r\n        uint amountTokenUnstakedinEther = uint(StakingLibrary.getLatestPrice(_priceFeedContract)) * _amount/ 10**IERC20Metadata(_token).decimals();\r\n        // Update the TVL by token\r\n        TVLtoken[_token] -= _amount;\r\n        TVLtokeninEther[_token] -= amountTokenUnstakedinEther;\r\n\r\n        // Update the TVL\r\n        TVL -= amountTokenUnstakedinEther;\r\n\r\n        emit unStake(msg.sender, _token, _amount);\r\n\r\n        return amountTokenUnstakedinEther;\r\n\r\n    }\r\n\r\n    function getAllPositions() public view returns (StakingLibrary.Position [] memory) {\r\n        return PositionsList[msg.sender];\r\n    }\r\n\r\n    function getPosition(address _token)  public view returns(address, uint, uint) {\r\n\r\n        uint indexToken = StakingLibrary.getIndexTokenStaked(PositionsList[msg.sender], _token);\r\n         if(PositionsList[msg.sender].length == indexToken){\r\n            return (address(0),0,0);\r\n        \r\n        } else  return (_token, PositionsList[msg.sender][indexToken].liquidity, PositionsList[msg.sender][indexToken].rewardBLT);\r\n        \r\n    }\r\n\r\n    receive() external payable {\r\n        \r\n    }\r\n\r\n}",
  "sourcePath": "C:\\Users\\yanni\\Documents\\Formation Alyra\\DefiStaking\\contracts\\Staking.sol",
  "compiler": {
    "name": "solc",
    "version": "0.8.17+commit.8df45f5f.Emscripten.clang"
  },
  "schemaVersion": "3.4.4",
  "updatedAt": "2022-09-25T17:45:41.555Z",
  "networkType": "ethereum",
  "devdoc": {
    "kind": "dev",
    "methods": {},
    "version": 1
  },
  "userdoc": {
    "kind": "user",
    "methods": {},
    "version": 1
  }
}