{
  "contractName": "Staking",
  "abi": [
    {
      "inputs": [
        {
          "internalType": "uint256",
          "name": "initialSupply",
          "type": "uint256"
        },
        {
          "internalType": "address",
          "name": "_tokenReward",
          "type": "address"
        }
      ],
      "stateMutability": "nonpayable",
      "type": "constructor"
    },
    {
      "anonymous": false,
      "inputs": [
        {
          "indexed": false,
          "internalType": "address",
          "name": "staker",
          "type": "address"
        },
        {
          "indexed": false,
          "internalType": "uint256",
          "name": "amount",
          "type": "uint256"
        }
      ],
      "name": "reward",
      "type": "event"
    },
    {
      "anonymous": false,
      "inputs": [
        {
          "indexed": false,
          "internalType": "address",
          "name": "staker",
          "type": "address"
        },
        {
          "indexed": false,
          "internalType": "address",
          "name": "token",
          "type": "address"
        },
        {
          "indexed": false,
          "internalType": "uint256",
          "name": "amount",
          "type": "uint256"
        }
      ],
      "name": "stake",
      "type": "event"
    },
    {
      "anonymous": false,
      "inputs": [
        {
          "indexed": false,
          "internalType": "address",
          "name": "staker",
          "type": "address"
        },
        {
          "indexed": false,
          "internalType": "address",
          "name": "token",
          "type": "address"
        },
        {
          "indexed": false,
          "internalType": "uint256",
          "name": "amount",
          "type": "uint256"
        }
      ],
      "name": "unStake",
      "type": "event"
    },
    {
      "inputs": [],
      "name": "TVL",
      "outputs": [
        {
          "internalType": "uint256",
          "name": "",
          "type": "uint256"
        }
      ],
      "stateMutability": "view",
      "type": "function",
      "constant": true
    },
    {
      "inputs": [],
      "name": "rate",
      "outputs": [
        {
          "internalType": "uint256",
          "name": "",
          "type": "uint256"
        }
      ],
      "stateMutability": "view",
      "type": "function",
      "constant": true
    },
    {
      "inputs": [],
      "name": "token",
      "outputs": [
        {
          "internalType": "contract BlueToken",
          "name": "",
          "type": "address"
        }
      ],
      "stateMutability": "view",
      "type": "function",
      "constant": true
    },
    {
      "stateMutability": "payable",
      "type": "receive",
      "payable": true
    },
    {
      "inputs": [
        {
          "internalType": "address",
          "name": "_token",
          "type": "address"
        },
        {
          "internalType": "uint256",
          "name": "_amount",
          "type": "uint256"
        },
        {
          "internalType": "address",
          "name": "_priceFeedContract",
          "type": "address"
        }
      ],
      "name": "Stake",
      "outputs": [
        {
          "internalType": "uint256",
          "name": "",
          "type": "uint256"
        }
      ],
      "stateMutability": "payable",
      "type": "function",
      "payable": true
    },
    {
      "inputs": [
        {
          "internalType": "address",
          "name": "_token",
          "type": "address"
        },
        {
          "internalType": "uint256",
          "name": "_amount",
          "type": "uint256"
        },
        {
          "internalType": "address",
          "name": "_priceFeedContract",
          "type": "address"
        }
      ],
      "name": "UnstakePosition",
      "outputs": [],
      "stateMutability": "nonpayable",
      "type": "function"
    },
    {
      "inputs": [],
      "name": "getAllPositions",
      "outputs": [
        {
          "components": [
            {
              "internalType": "address",
              "name": "token",
              "type": "address"
            },
            {
              "internalType": "uint256",
              "name": "liquidity",
              "type": "uint256"
            },
            {
              "internalType": "uint256",
              "name": "rewardBLT",
              "type": "uint256"
            }
          ],
          "internalType": "struct StakingLibrary.Position[]",
          "name": "",
          "type": "tuple[]"
        }
      ],
      "stateMutability": "view",
      "type": "function",
      "constant": true
    },
    {
      "inputs": [
        {
          "internalType": "address",
          "name": "_caller",
          "type": "address"
        },
        {
          "internalType": "address",
          "name": "_token",
          "type": "address"
        }
      ],
      "name": "getPosition",
      "outputs": [
        {
          "internalType": "address",
          "name": "",
          "type": "address"
        },
        {
          "internalType": "uint256",
          "name": "",
          "type": "uint256"
        },
        {
          "internalType": "uint256",
          "name": "",
          "type": "uint256"
        }
      ],
      "stateMutability": "view",
      "type": "function",
      "constant": true
    }
  ],
  "bytecode": "0x608060405260c8600155600060025534801561001a57600080fd5b506040516112893803806112898339810160408190526100399161006c565b600080546001600160a01b0319166001600160a01b03831617905560015461006190836100a9565b600255506100cb9050565b6000806040838503121561007f57600080fd5b825160208401519092506001600160a01b038116811461009e57600080fd5b809150509250929050565b6000826100c657634e487b7160e01b600052601260045260246000fd5b500490565b6111af806100da6000396000f3fe6080604052600436106100745760003560e01c8063bd15031b1161004e578063bd15031b14610114578063cc2e016314610136578063edaf2d2e14610149578063fc0c546a1461015f57600080fd5b806318f56a0a146100805780632c4e722e146100ab578063b33dc190146100cf57600080fd5b3661007b57005b600080fd5b34801561008c57600080fd5b50610095610197565b6040516100a29190610ecd565b60405180910390f35b3480156100b757600080fd5b506100c160015481565b6040519081526020016100a2565b3480156100db57600080fd5b506100ef6100ea366004610f4b565b610224565b604080516001600160a01b0390941684526020840192909252908201526060016100a2565b34801561012057600080fd5b5061013461012f366004610f7e565b6103e1565b005b6100c1610144366004610f7e565b61074e565b34801561015557600080fd5b506100c160025481565b34801561016b57600080fd5b5060005461017f906001600160a01b031681565b6040516001600160a01b0390911681526020016100a2565b336000908152600460209081526040808320805482518185028101850190935280835260609492939192909184015b8282101561021b576000848152602090819020604080516060810182526003860290920180546001600160a01b03168352600180820154848601526002909101549183019190915290835290920191016101c6565b50505050905090565b600080806001600160a01b03851633146102855760405162461bcd60e51b815260206004820152601860248201527f49742773206e6f7420796f7572206163636f756e74202121000000000000000060448201526064015b60405180910390fd5b6001600160a01b038516600090815260046020819052604080832090516313f814fd60e21b815273__StakingLibrary________________________92634fe053f4926102d69290918a9101610fba565b602060405180830381865af41580156102f3573d6000803e3d6000fd5b505050506040513d601f19601f820116820180604052508101906103179190611038565b6001600160a01b03871660009081526004602052604090205490915081900361034b576000806000935093509350506103da565b6001600160a01b038616600090815260046020526040902080548691908390811061037857610378611051565b90600052602060002090600302016001015460046000896001600160a01b03166001600160a01b0316815260200190815260200160002083815481106103c0576103c0611051565b906000526020600020906003020160020154935093509350505b9250925092565b3360009081526004602052604090205461043d5760405162461bcd60e51b815260206004820181905260248201527f596f7520646f6e2774206861766520616e7920746f6b656e73207374616b6564604482015260640161027c565b33600090815260046020819052604080832090516313f814fd60e21b815273__StakingLibrary________________________92634fe053f492610485929091899101610fba565b602060405180830381865af41580156104a2573d6000803e3d6000fd5b505050506040513d601f19601f820116820180604052508101906104c69190611038565b336000908152600460205260409020549091508190036105285760405162461bcd60e51b815260206004820181905260248201527f596f7520646f6e27742068617665207468697320746f6b656e207374616b6564604482015260640161027c565b61053c6001600160a01b0385163385610ae6565b33600090815260046020526040902080548491908390811061056057610560611051565b906000526020600020906003020160010154036105fc57604080516060810182526000808252602080830182905282840182905233825260049052919091208054839081106105b1576105b1611051565b600091825260209182902083516003929092020180546001600160a01b0319166001600160a01b03909216919091178155908201516001820155604090910151600290910155610646565b33600090815260046020526040902080548491908390811061062057610620611051565b90600052602060002090600302016001016000828254610640919061107d565b90915550505b6040516302c68be360e31b81526001600160a01b0383166004820152600090670de0b6b3a764000090859073__StakingLibrary________________________906316345f1890602401602060405180830381865af41580156106ad573d6000803e3d6000fd5b505050506040513d601f19601f820116820180604052508101906106d19190611038565b6106db9190611090565b6106e591906110af565b905080600260008282546106f9919061107d565b9091555050604080513381526001600160a01b03871660208201529081018590527f02ecccdc1038b6743ff964c47b7a07c31a71632f4a8039815930a94fda3e06d09060600160405180910390a15050505050565b6040516370a0823160e01b815233600482015260009083906001600160a01b038616906370a0823190602401602060405180830381865afa158015610797573d6000803e3d6000fd5b505050506040513d601f19601f820116820180604052508101906107bb9190611038565b116108085760405162461bcd60e51b815260206004820152601c60248201527f596f7520646f6e2774206861766520656e6f75676820746f6b656e7300000000604482015260640161027c565b61081d6001600160a01b038516333086610b4e565b33600090815260046020819052604080832090516313f814fd60e21b815273__StakingLibrary________________________92634fe053f4926108659290918a9101610fba565b602060405180830381865af4158015610882573d6000803e3d6000fd5b505050506040513d601f19601f820116820180604052508101906108a69190611038565b33600090815260046020526040902054909150811461090e573360009081526004602052604090208054859190839081106108e3576108e3611051565b9060005260206000209060030201600101600082825461090391906110d1565b909155506109809050565b33600090815260046020908152604080832081516060810183526001600160a01b038a811682528185018a8152938201868152835460018082018655948852959096209151600390950290910180546001600160a01b0319169490911693909317835590519082015590516002909101555b6040516302c68be360e31b81526001600160a01b0384166004820152600090670de0b6b3a764000090869073__StakingLibrary________________________906316345f1890602401602060405180830381865af41580156109e7573d6000803e3d6000fd5b505050506040513d601f19601f82011682018060405250810190610a0b9190611038565b610a159190611090565b610a1f91906110af565b90506000610a2d3383610b8c565b3360009081526004602052604090208054919250829185908110610a5357610a53611051565b90600052602060002090600302016002016000828254610a7391906110d1565b925050819055508160026000828254610a8c91906110d1565b9091555050604080513381526001600160a01b03891660208201529081018790527fbf6eac2f4b953b5538a7beedc8a7fa29bc34b3b2029a1c4d794d946c2c5014389060600160405180910390a1925050505b9392505050565b6040516001600160a01b038316602482015260448101829052610b4990849063a9059cbb60e01b906064015b60408051601f198184030181529190526020810180516001600160e01b03166001600160e01b031990931692909217909152610c7a565b505050565b6040516001600160a01b0380851660248301528316604482015260648101829052610b869085906323b872dd60e01b90608401610b12565b50505050565b6000806002546001548485610ba19190611090565b610bab9190611090565b610bb591906110af565b60005460405163a9059cbb60e01b81526001600160a01b0387811660048301526024820184905292935091169063a9059cbb906044016020604051808303816000875af1158015610c0a573d6000803e3d6000fd5b505050506040513d601f19601f82011682018060405250810190610c2e91906110e4565b50604080516001600160a01b0386168152602081018390527f21670f22ea41f8b13717112c8e6b8ce3ce14489a7077e04b5885e575645b9e52910160405180910390a190505b92915050565b6000610ccf826040518060400160405280602081526020017f5361666545524332303a206c6f772d6c6576656c2063616c6c206661696c6564815250856001600160a01b0316610d4c9092919063ffffffff16565b805190915015610b495780806020019051810190610ced91906110e4565b610b495760405162461bcd60e51b815260206004820152602a60248201527f5361666545524332303a204552433230206f7065726174696f6e20646964206e6044820152691bdd081cdd58d8d9595960b21b606482015260840161027c565b6060610d5b8484600085610d63565b949350505050565b606082471015610dc45760405162461bcd60e51b815260206004820152602660248201527f416464726573733a20696e73756666696369656e742062616c616e636520666f6044820152651c8818d85b1b60d21b606482015260840161027c565b6001600160a01b0385163b610e1b5760405162461bcd60e51b815260206004820152601d60248201527f416464726573733a2063616c6c20746f206e6f6e2d636f6e7472616374000000604482015260640161027c565b600080866001600160a01b03168587604051610e37919061112a565b60006040518083038185875af1925050503d8060008114610e74576040519150601f19603f3d011682016040523d82523d6000602084013e610e79565b606091505b5091509150610e89828286610e94565b979650505050505050565b60608315610ea3575081610adf565b825115610eb35782518084602001fd5b8160405162461bcd60e51b815260040161027c9190611146565b602080825282518282018190526000919060409081850190868401855b82811015610f2257815180516001600160a01b0316855286810151878601528501518585015260609093019290850190600101610eea565b5091979650505050505050565b80356001600160a01b0381168114610f4657600080fd5b919050565b60008060408385031215610f5e57600080fd5b610f6783610f2f565b9150610f7560208401610f2f565b90509250929050565b600080600060608486031215610f9357600080fd5b610f9c84610f2f565b925060208401359150610fb160408501610f2f565b90509250925092565b600060408083018184528086548083526060925082860191508760005260208060002060005b838110156110185781546001600160a01b03168552600182810154848701526002830154888701529486019460039092019101610fe0565b50506001600160a01b039790971695909601949094525091949350505050565b60006020828403121561104a57600080fd5b5051919050565b634e487b7160e01b600052603260045260246000fd5b634e487b7160e01b600052601160045260246000fd5b81810381811115610c7457610c74611067565b60008160001904831182151516156110aa576110aa611067565b500290565b6000826110cc57634e487b7160e01b600052601260045260246000fd5b500490565b80820180821115610c7457610c74611067565b6000602082840312156110f657600080fd5b81518015158114610adf57600080fd5b60005b83811015611121578181015183820152602001611109565b50506000910152565b6000825161113c818460208701611106565b9190910192915050565b6020815260008251806020840152611165816040850160208701611106565b601f01601f1916919091016040019291505056fea26469706673582212203ff6f2d4f3a292a2389e5d6599c27053f2b232456f8d51a491c5dff7462352b864736f6c63430008100033",
  "immutableReferences": {},
  "source": "// SPDX-License-Identifier: GPL-2.0-or-later\r\npragma solidity 0.8.16;\r\n\r\n\r\nimport \"./BlueToken.sol\";\r\nimport \"@openzeppelin/contracts/token/ERC20/utils/SafeERC20.sol\";\r\nimport \"@openzeppelin/contracts/token/ERC20/extensions/IERC20Metadata.sol\";\r\nimport {StakingLibrary} from \"./StakingLibrary.sol\";\r\n\r\n\r\ncontract Staking {\r\n\r\n    using SafeERC20 for IERC20Metadata;\r\n\r\n    BlueToken public token;\r\n\r\n    // Rate BLK/ETH : 100 BLK = 1 ETH or 1 BLK = 10^16 WEI\r\n    uint public rate = 200;\r\n\r\n    // Total value locked in the contract in Wei\r\n    uint public TVL = 0;\r\n\r\n    // List of stakers address\r\n    address [] private Stakers;\r\n\r\n    // List of Positions attached to the staker address\r\n    mapping (address => StakingLibrary.Position[]) private PositionsList;\r\n\r\n    // staking event\r\n    event stake(address staker, address token, uint amount);\r\n    event unStake(address staker, address token, uint amount);\r\n    event reward(address staker, uint amount);\r\n\r\n\r\n    // Constructor mint reward's token and send them to staking contract\r\n    constructor(uint256 initialSupply, address _tokenReward){\r\n        //token = new BlueToken(initialSupply);\r\n        token = BlueToken(_tokenReward);\r\n        TVL = (initialSupply/rate); \r\n        \r\n    }\r\n\r\n    //Reward the staker with Blue Token \r\n    \r\n    function Reward(address _staker, uint _amountTokenStakedinEther ) internal returns(uint){\r\n\r\n        // The reward has to be proportional to the TVL in the contract\r\n        uint rewardBLT = (_amountTokenStakedinEther*_amountTokenStakedinEther*rate)/TVL;\r\n        token.transfer(_staker, rewardBLT);\r\n        \r\n        emit reward(_staker, rewardBLT);\r\n\r\n        return rewardBLT;\r\n    }\r\n\r\n    //Investors can stake any amount of an ERC20 token\r\n    function Stake(address _token, uint256 _amount, address _priceFeedContract) external payable returns(uint) {\r\n        require(IERC20(_token).balanceOf(msg.sender) > _amount, \"You don't have enough tokens\");\r\n        // Send the token of the staker to the contract Staking\r\n        IERC20Metadata(_token).safeTransferFrom(msg.sender, address(this), _amount);\r\n        \r\n        // Add the new Position to the PositionsList or only updates the amount\r\n        // if a Position has been already created for this token\r\n        uint indexTokenStaked = StakingLibrary.getIndexTokenStaked(PositionsList[msg.sender], _token);\r\n        if (indexTokenStaked != PositionsList[msg.sender].length) {\r\n            //The Position of the staker is updated with new amount of token staked\r\n            PositionsList[msg.sender][indexTokenStaked].liquidity += _amount;\r\n        }\r\n        else {\r\n            //A new Position is created for this staker\r\n            PositionsList[msg.sender].push(StakingLibrary.Position(_token, _amount, 0));\r\n        }\r\n\r\n        // Update the TVL with the token just staked\r\n        uint amountTokenStakedinEther;\r\n        amountTokenStakedinEther = uint(StakingLibrary.getLatestPrice(_priceFeedContract)) * _amount/ 1 ether;\r\n\r\n        //Reward the staker and update the TVL of the staking contract\r\n        uint rewardBLT = Reward(msg.sender, amountTokenStakedinEther);\r\n\r\n        //Update reward amount for this position\r\n        PositionsList[msg.sender][indexTokenStaked].rewardBLT += rewardBLT;\r\n        TVL += amountTokenStakedinEther;\r\n\r\n        //Event log position staked\r\n        emit stake(msg.sender, _token, _amount);\r\n\r\n        return rewardBLT;\r\n        \r\n    }\r\n\r\n    function UnstakePosition(address _token, uint256 _amount, address _priceFeedContract ) external {\r\n        require(PositionsList[msg.sender].length > 0, \"You don't have any tokens staked\");\r\n        uint indexTokenStaked = StakingLibrary.getIndexTokenStaked(PositionsList[msg.sender], _token);\r\n        require(PositionsList[msg.sender].length != indexTokenStaked, \"You don't have this token staked\");\r\n\r\n        // Unstake staking position \r\n        IERC20Metadata(_token).safeTransfer(msg.sender, _amount);\r\n\r\n        // Updates the PositionsList\r\n        if (PositionsList[msg.sender][indexTokenStaked].liquidity == _amount) {\r\n            // Erase staking position \r\n            PositionsList[msg.sender][indexTokenStaked] =  StakingLibrary.Position(address(0),  0, 0);\r\n\r\n        } else PositionsList[msg.sender][indexTokenStaked].liquidity -= _amount;\r\n\r\n        // Update the TVL with the token just unstaked\r\n        uint amountTokenUnstakedinEther = uint(StakingLibrary.getLatestPrice(_priceFeedContract)) * _amount/ 1 ether;\r\n        TVL -= amountTokenUnstakedinEther;\r\n\r\n        emit unStake(msg.sender, _token, _amount);\r\n\r\n    }\r\n\r\n    function getAllPositions() public view returns (StakingLibrary.Position [] memory) {\r\n        return PositionsList[msg.sender];\r\n    }\r\n\r\n    function getPosition(address _caller, address _token)  public view returns(address, uint, uint) {\r\n        require(_caller == msg.sender, \"It's not your account !!\");\r\n\r\n        uint indexToken = StakingLibrary.getIndexTokenStaked(PositionsList[_caller], _token);\r\n         if(PositionsList[_caller].length == indexToken){\r\n            return (address(0),0,0);\r\n        \r\n        } else  return (_token, PositionsList[_caller][indexToken].liquidity, PositionsList[_caller][indexToken].rewardBLT);\r\n        \r\n    }\r\n\r\n    receive() external payable {\r\n        \r\n    }\r\n\r\n}",
  "sourcePath": "C:\\Users\\yanni\\Documents\\Formation Alyra\\DefiStaking\\contracts\\Staking.sol",
  "compiler": {
    "name": "solc",
    "version": "0.8.16+commit.07a7930e.Emscripten.clang"
  },
  "schemaVersion": "3.4.4",
  "updatedAt": "2022-09-19T21:16:35.977Z",
  "networkType": "ethereum",
  "devdoc": {
    "kind": "dev",
    "methods": {},
    "version": 1
  },
  "userdoc": {
    "kind": "user",
    "methods": {},
    "version": 1
  }
}