{
  "contractName": "Staking",
  "abi": [
    {
      "inputs": [
        {
          "internalType": "uint256",
          "name": "initialSupply",
          "type": "uint256"
        },
        {
          "internalType": "address",
          "name": "_tokenReward",
          "type": "address"
        }
      ],
      "stateMutability": "nonpayable",
      "type": "constructor"
    },
    {
      "anonymous": false,
      "inputs": [
        {
          "indexed": false,
          "internalType": "address",
          "name": "staker",
          "type": "address"
        },
        {
          "indexed": false,
          "internalType": "uint256",
          "name": "amount",
          "type": "uint256"
        }
      ],
      "name": "reward",
      "type": "event"
    },
    {
      "anonymous": false,
      "inputs": [
        {
          "indexed": false,
          "internalType": "address",
          "name": "staker",
          "type": "address"
        },
        {
          "indexed": false,
          "internalType": "address",
          "name": "token",
          "type": "address"
        },
        {
          "indexed": false,
          "internalType": "uint256",
          "name": "amount",
          "type": "uint256"
        }
      ],
      "name": "stake",
      "type": "event"
    },
    {
      "anonymous": false,
      "inputs": [
        {
          "indexed": false,
          "internalType": "address",
          "name": "staker",
          "type": "address"
        },
        {
          "indexed": false,
          "internalType": "address",
          "name": "token",
          "type": "address"
        },
        {
          "indexed": false,
          "internalType": "uint256",
          "name": "amount",
          "type": "uint256"
        }
      ],
      "name": "unStake",
      "type": "event"
    },
    {
      "inputs": [],
      "name": "TVL",
      "outputs": [
        {
          "internalType": "uint256",
          "name": "",
          "type": "uint256"
        }
      ],
      "stateMutability": "view",
      "type": "function",
      "constant": true
    },
    {
      "inputs": [
        {
          "internalType": "address",
          "name": "",
          "type": "address"
        }
      ],
      "name": "TVLtoken",
      "outputs": [
        {
          "internalType": "uint256",
          "name": "",
          "type": "uint256"
        }
      ],
      "stateMutability": "view",
      "type": "function",
      "constant": true
    },
    {
      "inputs": [
        {
          "internalType": "address",
          "name": "",
          "type": "address"
        }
      ],
      "name": "TVLtokeninEther",
      "outputs": [
        {
          "internalType": "uint256",
          "name": "",
          "type": "uint256"
        }
      ],
      "stateMutability": "view",
      "type": "function",
      "constant": true
    },
    {
      "inputs": [
        {
          "internalType": "address",
          "name": "",
          "type": "address"
        }
      ],
      "name": "TotalRewardtoken",
      "outputs": [
        {
          "internalType": "uint256",
          "name": "",
          "type": "uint256"
        }
      ],
      "stateMutability": "view",
      "type": "function",
      "constant": true
    },
    {
      "inputs": [],
      "name": "rate",
      "outputs": [
        {
          "internalType": "uint256",
          "name": "",
          "type": "uint256"
        }
      ],
      "stateMutability": "view",
      "type": "function",
      "constant": true
    },
    {
      "inputs": [],
      "name": "token",
      "outputs": [
        {
          "internalType": "contract BlueToken",
          "name": "",
          "type": "address"
        }
      ],
      "stateMutability": "view",
      "type": "function",
      "constant": true
    },
    {
      "stateMutability": "payable",
      "type": "receive",
      "payable": true
    },
    {
      "inputs": [
        {
          "internalType": "address",
          "name": "_token",
          "type": "address"
        },
        {
          "internalType": "uint256",
          "name": "_amount",
          "type": "uint256"
        },
        {
          "internalType": "address",
          "name": "_priceFeedContract",
          "type": "address"
        }
      ],
      "name": "Stake",
      "outputs": [
        {
          "internalType": "uint256",
          "name": "",
          "type": "uint256"
        }
      ],
      "stateMutability": "nonpayable",
      "type": "function"
    },
    {
      "inputs": [
        {
          "internalType": "address",
          "name": "_token",
          "type": "address"
        },
        {
          "internalType": "uint256",
          "name": "_amount",
          "type": "uint256"
        },
        {
          "internalType": "address",
          "name": "_priceFeedContract",
          "type": "address"
        }
      ],
      "name": "UnstakePosition",
      "outputs": [
        {
          "internalType": "uint256",
          "name": "",
          "type": "uint256"
        }
      ],
      "stateMutability": "nonpayable",
      "type": "function"
    },
    {
      "inputs": [],
      "name": "getAllPositions",
      "outputs": [
        {
          "components": [
            {
              "internalType": "address",
              "name": "token",
              "type": "address"
            },
            {
              "internalType": "uint256",
              "name": "liquidity",
              "type": "uint256"
            },
            {
              "internalType": "uint256",
              "name": "rewardBLT",
              "type": "uint256"
            }
          ],
          "internalType": "struct StakingLibrary.Position[]",
          "name": "",
          "type": "tuple[]"
        }
      ],
      "stateMutability": "view",
      "type": "function",
      "constant": true
    },
    {
      "inputs": [
        {
          "internalType": "address",
          "name": "_caller",
          "type": "address"
        },
        {
          "internalType": "address",
          "name": "_token",
          "type": "address"
        }
      ],
      "name": "getPosition",
      "outputs": [
        {
          "internalType": "address",
          "name": "",
          "type": "address"
        },
        {
          "internalType": "uint256",
          "name": "",
          "type": "uint256"
        },
        {
          "internalType": "uint256",
          "name": "",
          "type": "uint256"
        }
      ],
      "stateMutability": "view",
      "type": "function",
      "constant": true
    }
  ],
  "bytecode": "0x608060405260c8600155600060025534801561001a57600080fd5b506040516116c03803806116c08339810160408190526100399161006c565b600080546001600160a01b0319166001600160a01b03831617905560015461006190836100a9565b600255506100cb9050565b6000806040838503121561007f57600080fd5b825160208401519092506001600160a01b038116811461009e57600080fd5b809150509250929050565b6000826100c657634e487b7160e01b600052601260045260246000fd5b500490565b6115e6806100da6000396000f3fe6080604052600436106100955760003560e01c8063cc2e016311610059578063cc2e016314610182578063d950401d146101a2578063e7ce7a16146101cf578063edaf2d2e146101fc578063fc0c546a1461021257600080fd5b806318f56a0a146100a15780632c4e722e146100cc5780637b4fb4de146100f0578063b33dc1901461011d578063bd15031b1461016257600080fd5b3661009c57005b600080fd5b3480156100ad57600080fd5b506100b661024a565b6040516100c391906111db565b60405180910390f35b3480156100d857600080fd5b506100e260015481565b6040519081526020016100c3565b3480156100fc57600080fd5b506100e261010b366004611259565b60066020526000908152604090205481565b34801561012957600080fd5b5061013d610138366004611274565b6102d7565b604080516001600160a01b0390941684526020840192909252908201526060016100c3565b34801561016e57600080fd5b506100e261017d3660046112a7565b610493565b34801561018e57600080fd5b506100e261019d3660046112a7565b61096f565b3480156101ae57600080fd5b506100e26101bd366004611259565b60056020526000908152604090205481565b3480156101db57600080fd5b506100e26101ea366004611259565b60046020526000908152604090205481565b34801561020857600080fd5b506100e260025481565b34801561021e57600080fd5b50600054610232906001600160a01b031681565b6040516001600160a01b0390911681526020016100c3565b336000908152600760209081526040808320805482518185028101850190935280835260609492939192909184015b828210156102ce576000848152602090819020604080516060810182526003860290920180546001600160a01b0316835260018082015484860152600290910154918301919091529083529092019101610279565b50505050905090565b600080806001600160a01b03851633146103385760405162461bcd60e51b815260206004820152601860248201527f49742773206e6f7420796f7572206163636f756e74202121000000000000000060448201526064015b60405180910390fd5b6001600160a01b03851660009081526007602052604080822090516313f814fd60e21b815273__StakingLibrary________________________91634fe053f491610388919089906004016112e3565b602060405180830381865af41580156103a5573d6000803e3d6000fd5b505050506040513d601f19601f820116820180604052508101906103c99190611361565b6001600160a01b0387166000908152600760205260409020549091508190036103fd5760008060009350935093505061048c565b6001600160a01b038616600090815260076020526040902080548691908390811061042a5761042a61137a565b90600052602060002090600302016001015460076000896001600160a01b03166001600160a01b0316815260200190815260200160002083815481106104725761047261137a565b906000526020600020906003020160020154935093509350505b9250925092565b3360009081526007602052604080822090516313f814fd60e21b8152829173__StakingLibrary________________________91634fe053f4916104db9189906004016112e3565b602060405180830381865af41580156104f8573d6000803e3d6000fd5b505050506040513d601f19601f8201168201806040525081019061051c9190611361565b3360009081526007602052604090205490915061057b5760405162461bcd60e51b815260206004820181905260248201527f596f7520646f6e2774206861766520616e7920746f6b656e73207374616b6564604482015260640161032f565b336000908152600760205260409020548190036105da5760405162461bcd60e51b815260206004820181905260248201527f596f7520646f6e27742068617665207468697320746f6b656e207374616b6564604482015260640161032f565b3360009081526007602052604090208054859190839081106105fe576105fe61137a565b90600052602060002090600302016001015410156106845760405162461bcd60e51b815260206004820152603d60248201527f596f757220756e7374616b6520616d6f756e742069732067726561746572207460448201527f68616e2074686520746f6b656e207374616b656420616d6f756e742021000000606482015260840161032f565b6106986001600160a01b0386163386610df4565b3360009081526007602052604090208054859190839081106106bc576106bc61137a565b90600052602060002090600302016001015403610758576040805160608101825260008082526020808301829052828401829052338252600790529190912080548390811061070d5761070d61137a565b600091825260209182902083516003929092020180546001600160a01b0319166001600160a01b039092169190911781559082015160018201556040909101516002909101556107a2565b33600090815260076020526040902080548591908390811061077c5761077c61137a565b9060005260206000209060030201600101600082825461079c91906113a6565b90915550505b6000856001600160a01b031663313ce5676040518163ffffffff1660e01b8152600401602060405180830381865afa1580156107e2573d6000803e3d6000fd5b505050506040513d601f19601f8201168201806040525081019061080691906113b9565b61081190600a6114c0565b6040516302c68be360e31b81526001600160a01b0386166004820152869073__StakingLibrary________________________906316345f1890602401602060405180830381865af415801561086b573d6000803e3d6000fd5b505050506040513d601f19601f8201168201806040525081019061088f9190611361565b61089991906114cf565b6108a391906114e6565b6001600160a01b0387166000908152600560205260408120805492935087929091906108d09084906113a6565b90915550506001600160a01b038616600090815260046020526040812080548392906108fd9084906113a6565b92505081905550806002600082825461091691906113a6565b9091555050604080513381526001600160a01b03881660208201529081018690527f02ecccdc1038b6743ff964c47b7a07c31a71632f4a8039815930a94fda3e06d09060600160405180910390a19150505b9392505050565b6040516370a0823160e01b815233600482015260009083906001600160a01b038616906370a0823190602401602060405180830381865afa1580156109b8573d6000803e3d6000fd5b505050506040513d601f19601f820116820180604052508101906109dc9190611361565b11610a295760405162461bcd60e51b815260206004820152601c60248201527f596f7520646f6e2774206861766520656e6f75676820746f6b656e7300000000604482015260640161032f565b610a3e6001600160a01b038516333086610e5c565b3360009081526007602052604080822090516313f814fd60e21b815273__StakingLibrary________________________91634fe053f491610a85919089906004016112e3565b602060405180830381865af4158015610aa2573d6000803e3d6000fd5b505050506040513d601f19601f82011682018060405250810190610ac69190611361565b336000908152600760205260409020549091508114610b2e57336000908152600760205260409020805485919083908110610b0357610b0361137a565b90600052602060002090600302016001016000828254610b239190611508565b90915550610ba09050565b33600090815260076020908152604080832081516060810183526001600160a01b038a811682528185018a8152938201868152835460018082018655948852959096209151600390950290910180546001600160a01b0319169490911693909317835590519082015590516002909101555b6000856001600160a01b031663313ce5676040518163ffffffff1660e01b8152600401602060405180830381865afa158015610be0573d6000803e3d6000fd5b505050506040513d601f19601f82011682018060405250810190610c0491906113b9565b610c0f90600a6114c0565b6040516302c68be360e31b81526001600160a01b0386166004820152869073__StakingLibrary________________________906316345f1890602401602060405180830381865af4158015610c69573d6000803e3d6000fd5b505050506040513d601f19601f82011682018060405250810190610c8d9190611361565b610c9791906114cf565b610ca191906114e6565b6001600160a01b038716600090815260056020526040812080549293508792909190610cce908490611508565b90915550506001600160a01b03861660009081526004602052604081208054839290610cfb908490611508565b9091555060009050610d0d3383610e9a565b6001600160a01b038816600090815260066020526040812080549293508392909190610d3a908490611508565b9091555050336000908152600760205260409020805482919085908110610d6357610d6361137a565b90600052602060002090600302016002016000828254610d839190611508565b925050819055508160026000828254610d9c9190611508565b9091555050604080513381526001600160a01b03891660208201529081018790527fbf6eac2f4b953b5538a7beedc8a7fa29bc34b3b2029a1c4d794d946c2c5014389060600160405180910390a19695505050505050565b6040516001600160a01b038316602482015260448101829052610e5790849063a9059cbb60e01b906064015b60408051601f198184030181529190526020810180516001600160e01b03166001600160e01b031990931692909217909152610f88565b505050565b6040516001600160a01b0380851660248301528316604482015260648101829052610e949085906323b872dd60e01b90608401610e20565b50505050565b6000806002546001548485610eaf91906114cf565b610eb991906114cf565b610ec391906114e6565b60005460405163a9059cbb60e01b81526001600160a01b0387811660048301526024820184905292935091169063a9059cbb906044016020604051808303816000875af1158015610f18573d6000803e3d6000fd5b505050506040513d601f19601f82011682018060405250810190610f3c919061151b565b50604080516001600160a01b0386168152602081018390527f21670f22ea41f8b13717112c8e6b8ce3ce14489a7077e04b5885e575645b9e52910160405180910390a190505b92915050565b6000610fdd826040518060400160405280602081526020017f5361666545524332303a206c6f772d6c6576656c2063616c6c206661696c6564815250856001600160a01b031661105a9092919063ffffffff16565b805190915015610e575780806020019051810190610ffb919061151b565b610e575760405162461bcd60e51b815260206004820152602a60248201527f5361666545524332303a204552433230206f7065726174696f6e20646964206e6044820152691bdd081cdd58d8d9595960b21b606482015260840161032f565b60606110698484600085611071565b949350505050565b6060824710156110d25760405162461bcd60e51b815260206004820152602660248201527f416464726573733a20696e73756666696369656e742062616c616e636520666f6044820152651c8818d85b1b60d21b606482015260840161032f565b6001600160a01b0385163b6111295760405162461bcd60e51b815260206004820152601d60248201527f416464726573733a2063616c6c20746f206e6f6e2d636f6e7472616374000000604482015260640161032f565b600080866001600160a01b031685876040516111459190611561565b60006040518083038185875af1925050503d8060008114611182576040519150601f19603f3d011682016040523d82523d6000602084013e611187565b606091505b50915091506111978282866111a2565b979650505050505050565b606083156111b1575081610968565b8251156111c15782518084602001fd5b8160405162461bcd60e51b815260040161032f919061157d565b602080825282518282018190526000919060409081850190868401855b8281101561123057815180516001600160a01b03168552868101518786015285015185850152606090930192908501906001016111f8565b5091979650505050505050565b80356001600160a01b038116811461125457600080fd5b919050565b60006020828403121561126b57600080fd5b6109688261123d565b6000806040838503121561128757600080fd5b6112908361123d565b915061129e6020840161123d565b90509250929050565b6000806000606084860312156112bc57600080fd5b6112c58461123d565b9250602084013591506112da6040850161123d565b90509250925092565b600060408083018184528086548083526060925082860191508760005260208060002060005b838110156113415781546001600160a01b03168552600182810154848701526002830154888701529486019460039092019101611309565b50506001600160a01b039790971695909601949094525091949350505050565b60006020828403121561137357600080fd5b5051919050565b634e487b7160e01b600052603260045260246000fd5b634e487b7160e01b600052601160045260246000fd5b81810381811115610f8257610f82611390565b6000602082840312156113cb57600080fd5b815160ff8116811461096857600080fd5b600181815b808511156114175781600019048211156113fd576113fd611390565b8085161561140a57918102915b93841c93908002906113e1565b509250929050565b60008261142e57506001610f82565b8161143b57506000610f82565b8160018114611451576002811461145b57611477565b6001915050610f82565b60ff84111561146c5761146c611390565b50506001821b610f82565b5060208310610133831016604e8410600b841016171561149a575081810a610f82565b6114a483836113dc565b80600019048211156114b8576114b8611390565b029392505050565b600061096860ff84168361141f565b8082028115828204841417610f8257610f82611390565b60008261150357634e487b7160e01b600052601260045260246000fd5b500490565b80820180821115610f8257610f82611390565b60006020828403121561152d57600080fd5b8151801515811461096857600080fd5b60005b83811015611558578181015183820152602001611540565b50506000910152565b6000825161157381846020870161153d565b9190910192915050565b602081526000825180602084015261159c81604085016020870161153d565b601f01601f1916919091016040019291505056fea26469706673582212207e5d196dc8e37588cd2e1ff5b8dfb3871b7a038909644434ab6e8991896e1b5c64736f6c63430008110033",
  "immutableReferences": {},
  "source": "// SPDX-License-Identifier: GPL-2.0-or-later\r\npragma solidity 0.8.17;\r\n\r\n\r\nimport \"./BlueToken.sol\";\r\nimport \"@openzeppelin/contracts/token/ERC20/utils/SafeERC20.sol\";\r\nimport \"@openzeppelin/contracts/token/ERC20/extensions/IERC20Metadata.sol\";\r\nimport {StakingLibrary} from \"./StakingLibrary.sol\";\r\n\r\n\r\ncontract Staking {\r\n\r\n    using SafeERC20 for IERC20Metadata;\r\n\r\n    BlueToken public token;\r\n\r\n    // Rate BLK/ETH : 100 BLK = 1 ETH or 1 BLK = 10^16 WEI\r\n    uint public rate = 200;\r\n\r\n    // Total value locked in the contract in Wei\r\n    uint public TVL = 0;\r\n\r\n    // List of stakers address\r\n    address [] private Stakers;\r\n\r\n    // TVL (in ether) by token\r\n    mapping(address => uint) public TVLtokeninEther;\r\n\r\n    // TVL (in ERC20) by token\r\n    mapping(address => uint) public TVLtoken;\r\n\r\n    // Total reward (in BLT) earned by token\r\n    mapping(address => uint) public TotalRewardtoken;\r\n\r\n    // List of Positions attached to the staker address\r\n    mapping (address => StakingLibrary.Position[]) private PositionsList;\r\n\r\n    // staking event\r\n    event stake(address staker, address token, uint amount);\r\n    event unStake(address staker, address token, uint amount);\r\n    event reward(address staker, uint amount);\r\n\r\n\r\n    // Constructor mint reward's token and send them to staking contract\r\n    constructor(uint256 initialSupply, address _tokenReward){\r\n        //token = new BlueToken(initialSupply);\r\n        token = BlueToken(_tokenReward);\r\n        TVL = (initialSupply/rate); \r\n        \r\n    }\r\n\r\n    //Reward the staker with Blue Token \r\n    \r\n    function Reward(address _staker, uint _amountTokenStakedinEther ) internal returns(uint){\r\n\r\n        // The reward has to be proportional to the TVL in the contract\r\n        uint rewardBLT = (_amountTokenStakedinEther*_amountTokenStakedinEther*rate)/TVL;\r\n        token.transfer(_staker, rewardBLT);\r\n        \r\n        emit reward(_staker, rewardBLT);\r\n\r\n        return rewardBLT;\r\n    }\r\n\r\n    //Investors can stake any amount of an ERC20 token\r\n    function Stake(address _token, uint256 _amount, address _priceFeedContract) external returns(uint) {\r\n        require(IERC20(_token).balanceOf(msg.sender) > _amount, \"You don't have enough tokens\");\r\n        // Send the token of the staker to the contract Staking\r\n        IERC20Metadata(_token).safeTransferFrom(msg.sender, address(this), _amount);\r\n        \r\n        // Add the new Position to the PositionsList or only updates the amount\r\n        // if a Position has been already created for this token\r\n        uint indexTokenStaked = StakingLibrary.getIndexTokenStaked(PositionsList[msg.sender], _token);\r\n        if (indexTokenStaked != PositionsList[msg.sender].length) {\r\n            //The Position of the staker is updated with new amount of token staked\r\n            PositionsList[msg.sender][indexTokenStaked].liquidity += _amount;\r\n        }\r\n        else {\r\n            //A new Position is created for this staker\r\n            PositionsList[msg.sender].push(StakingLibrary.Position(_token, _amount, 0));\r\n        }\r\n\r\n        // Update the TVL with the token just staked\r\n        uint amountTokenStakedinEther;\r\n        amountTokenStakedinEther = uint(StakingLibrary.getLatestPrice(_priceFeedContract)) * _amount/ 10**IERC20Metadata(_token).decimals();\r\n\r\n        // Update the TVL by token\r\n        TVLtoken[_token] += _amount;\r\n        TVLtokeninEther[_token] += amountTokenStakedinEther;\r\n\r\n        //Reward the staker and update the TVL of the staking contract\r\n        uint rewardBLT = Reward(msg.sender, amountTokenStakedinEther);\r\n\r\n        // Update the total reward earned by token\r\n        TotalRewardtoken[_token] += rewardBLT;\r\n\r\n        //Update reward amount for this position\r\n        PositionsList[msg.sender][indexTokenStaked].rewardBLT += rewardBLT;\r\n        // Update the TVL\r\n        TVL += amountTokenStakedinEther;\r\n\r\n        //Event log position staked\r\n        emit stake(msg.sender, _token, _amount);\r\n\r\n        return rewardBLT;\r\n        \r\n    }\r\n\r\n    function UnstakePosition(address _token, uint256 _amount, address _priceFeedContract ) external returns(uint){\r\n        uint indexTokenStaked = StakingLibrary.getIndexTokenStaked(PositionsList[msg.sender], _token);\r\n\r\n        require(PositionsList[msg.sender].length > 0, \"You don't have any tokens staked\");     \r\n        require(PositionsList[msg.sender].length != indexTokenStaked, \"You don't have this token staked\");\r\n        require(PositionsList[msg.sender][indexTokenStaked].liquidity >= _amount, \"Your unstake amount is greater than the token staked amount !\");\r\n\r\n        // Unstake staking position \r\n        IERC20Metadata(_token).safeTransfer(msg.sender, _amount);\r\n\r\n        // Updates the PositionsList\r\n        if (PositionsList[msg.sender][indexTokenStaked].liquidity == _amount) {\r\n            // Erase staking position \r\n            PositionsList[msg.sender][indexTokenStaked] =  StakingLibrary.Position(address(0),  0, 0);\r\n\r\n        } else PositionsList[msg.sender][indexTokenStaked].liquidity -= _amount;\r\n\r\n        // Update the TVL with the token just unstaked\r\n        uint amountTokenUnstakedinEther = uint(StakingLibrary.getLatestPrice(_priceFeedContract)) * _amount/ 10**IERC20Metadata(_token).decimals();\r\n        // Update the TVL by token\r\n        TVLtoken[_token] -= _amount;\r\n        TVLtokeninEther[_token] -= amountTokenUnstakedinEther;\r\n\r\n        // Update the TVL\r\n        TVL -= amountTokenUnstakedinEther;\r\n\r\n        emit unStake(msg.sender, _token, _amount);\r\n\r\n        return amountTokenUnstakedinEther;\r\n\r\n    }\r\n\r\n    function getAllPositions() public view returns (StakingLibrary.Position [] memory) {\r\n        return PositionsList[msg.sender];\r\n    }\r\n\r\n    function getPosition(address _caller, address _token)  public view returns(address, uint, uint) {\r\n        require(_caller == msg.sender, \"It's not your account !!\");\r\n\r\n        uint indexToken = StakingLibrary.getIndexTokenStaked(PositionsList[_caller], _token);\r\n         if(PositionsList[_caller].length == indexToken){\r\n            return (address(0),0,0);\r\n        \r\n        } else  return (_token, PositionsList[_caller][indexToken].liquidity, PositionsList[_caller][indexToken].rewardBLT);\r\n        \r\n    }\r\n\r\n    receive() external payable {\r\n        \r\n    }\r\n\r\n}",
  "sourcePath": "C:\\Users\\yanni\\Documents\\Formation Alyra\\DefiStaking\\contracts\\Staking.sol",
  "compiler": {
    "name": "solc",
    "version": "0.8.17+commit.8df45f5f.Emscripten.clang"
  },
  "schemaVersion": "3.4.4",
  "updatedAt": "2022-09-23T18:37:28.041Z",
  "networkType": "ethereum",
  "devdoc": {
    "kind": "dev",
    "methods": {},
    "version": 1
  },
  "userdoc": {
    "kind": "user",
    "methods": {},
    "version": 1
  }
}