{
  "contractName": "Staking",
  "abi": [
    {
      "inputs": [
        {
          "internalType": "uint256",
          "name": "initialSupply",
          "type": "uint256"
        }
      ],
      "stateMutability": "nonpayable",
      "type": "constructor"
    },
    {
      "anonymous": false,
      "inputs": [
        {
          "indexed": false,
          "internalType": "address",
          "name": "staker",
          "type": "address"
        },
        {
          "indexed": false,
          "internalType": "uint256",
          "name": "amount",
          "type": "uint256"
        }
      ],
      "name": "reward",
      "type": "event"
    },
    {
      "anonymous": false,
      "inputs": [
        {
          "indexed": false,
          "internalType": "address",
          "name": "staker",
          "type": "address"
        },
        {
          "indexed": false,
          "internalType": "address",
          "name": "token",
          "type": "address"
        },
        {
          "indexed": false,
          "internalType": "uint256",
          "name": "amount",
          "type": "uint256"
        }
      ],
      "name": "stake",
      "type": "event"
    },
    {
      "anonymous": false,
      "inputs": [
        {
          "indexed": false,
          "internalType": "address",
          "name": "staker",
          "type": "address"
        },
        {
          "indexed": false,
          "internalType": "address",
          "name": "token",
          "type": "address"
        },
        {
          "indexed": false,
          "internalType": "uint256",
          "name": "amount",
          "type": "uint256"
        }
      ],
      "name": "unStake",
      "type": "event"
    },
    {
      "inputs": [],
      "name": "TVL",
      "outputs": [
        {
          "internalType": "uint256",
          "name": "",
          "type": "uint256"
        }
      ],
      "stateMutability": "view",
      "type": "function",
      "constant": true
    },
    {
      "inputs": [],
      "name": "rate",
      "outputs": [
        {
          "internalType": "uint256",
          "name": "",
          "type": "uint256"
        }
      ],
      "stateMutability": "view",
      "type": "function",
      "constant": true
    },
    {
      "inputs": [],
      "name": "token",
      "outputs": [
        {
          "internalType": "contract BlueToken",
          "name": "",
          "type": "address"
        }
      ],
      "stateMutability": "view",
      "type": "function",
      "constant": true
    },
    {
      "stateMutability": "payable",
      "type": "receive",
      "payable": true
    },
    {
      "inputs": [
        {
          "internalType": "address",
          "name": "_token",
          "type": "address"
        },
        {
          "internalType": "uint256",
          "name": "_amount",
          "type": "uint256"
        },
        {
          "internalType": "address",
          "name": "_priceFeedContract",
          "type": "address"
        }
      ],
      "name": "Stake",
      "outputs": [],
      "stateMutability": "payable",
      "type": "function",
      "payable": true
    },
    {
      "inputs": [
        {
          "internalType": "address",
          "name": "_token",
          "type": "address"
        },
        {
          "internalType": "uint256",
          "name": "_amount",
          "type": "uint256"
        },
        {
          "internalType": "address",
          "name": "_priceFeedContract",
          "type": "address"
        }
      ],
      "name": "UnstakePosition",
      "outputs": [],
      "stateMutability": "nonpayable",
      "type": "function"
    },
    {
      "inputs": [],
      "name": "getAllPositions",
      "outputs": [
        {
          "components": [
            {
              "internalType": "address",
              "name": "token",
              "type": "address"
            },
            {
              "internalType": "uint256",
              "name": "liquidity",
              "type": "uint256"
            }
          ],
          "internalType": "struct StakingLibrary.Position[]",
          "name": "",
          "type": "tuple[]"
        }
      ],
      "stateMutability": "view",
      "type": "function",
      "constant": true
    },
    {
      "inputs": [
        {
          "internalType": "address",
          "name": "_caller",
          "type": "address"
        },
        {
          "internalType": "address",
          "name": "_token",
          "type": "address"
        }
      ],
      "name": "getLiquidityPosition",
      "outputs": [
        {
          "internalType": "uint256",
          "name": "",
          "type": "uint256"
        }
      ],
      "stateMutability": "view",
      "type": "function",
      "constant": true
    }
  ],
  "bytecode": "0x608060405260c8600155600060025534801561001a57600080fd5b50604051611cce380380611cce833981016040819052610039916100aa565b806040516100469061009d565b908152602001604051809103906000f080158015610068573d6000803e3d6000fd5b50600080546001600160a01b0319166001600160a01b039290921691909117905561009460c8826100c3565b600255506100e5565b610bd9806110f583390190565b6000602082840312156100bc57600080fd5b5051919050565b6000826100e057634e487b7160e01b600052601260045260246000fd5b500490565b611001806100f46000396000f3fe6080604052600436106100745760003560e01c8063bd15031b1161004e578063bd15031b146100ef578063cc2e016314610111578063edaf2d2e14610124578063fc0c546a1461013a57600080fd5b806318f56a0a146100805780631f5cab01146100ab5780632c4e722e146100d957600080fd5b3661007b57005b600080fd5b34801561008c57600080fd5b50610095610172565b6040516100a29190610d36565b60405180910390f35b3480156100b757600080fd5b506100cb6100c6366004610daa565b6101f2565b6040519081526020016100a2565b3480156100e557600080fd5b506100cb60015481565b3480156100fb57600080fd5b5061010f61010a366004610ddd565b610356565b005b61010f61011f366004610ddd565b61069c565b34801561013057600080fd5b506100cb60025481565b34801561014657600080fd5b5060005461015a906001600160a01b031681565b6040516001600160a01b0390911681526020016100a2565b336000908152600460209081526040808320805482518185028101850190935280835260609492939192909184015b828210156101e9576000848152602090819020604080518082019091526002850290910180546001600160a01b031682526001908101548284015290835290920191016101a1565b50505050905090565b60006001600160a01b03831633146102515760405162461bcd60e51b815260206004820152601860248201527f49742773206e6f7420796f7572206163636f756e74202121000000000000000060448201526064015b60405180910390fd5b6001600160a01b038316600090815260046020819052604080832090516313f814fd60e21b815273__StakingLibrary________________________92634fe053f4926102a2929091889101610e19565b602060405180830381865af41580156102bf573d6000803e3d6000fd5b505050506040513d601f19601f820116820180604052508101906102e39190610e8a565b6001600160a01b038516600090815260046020526040902054909150819003610310576000915050610350565b6001600160a01b038416600090815260046020526040902080548290811061033a5761033a610ea3565b9060005260206000209060020201600101549150505b92915050565b336000908152600460205260409020546103b25760405162461bcd60e51b815260206004820181905260248201527f596f7520646f6e2774206861766520616e7920746f6b656e73207374616b65646044820152606401610248565b33600090815260046020819052604080832090516313f814fd60e21b815273__StakingLibrary________________________92634fe053f4926103fa929091899101610e19565b602060405180830381865af4158015610417573d6000803e3d6000fd5b505050506040513d601f19601f8201168201806040525081019061043b9190610e8a565b3360009081526004602052604090205490915081900361049d5760405162461bcd60e51b815260206004820181905260248201527f596f7520646f6e27742068617665207468697320746f6b656e207374616b65646044820152606401610248565b6104b16001600160a01b03851633856109bb565b3360009081526004602052604090208054849190839081106104d5576104d5610ea3565b9060005260206000209060020201600101540361055e5760408051808201825260008082526020808301829052338252600490529190912080548390811061051f5761051f610ea3565b600091825260209182902083516002929092020180546001600160a01b0319166001600160a01b039092169190911781559101516001909101556105a8565b33600090815260046020526040902080548491908390811061058257610582610ea3565b906000526020600020906002020160010160008282546105a29190610ecf565b90915550505b6040516302c68be360e31b81526001600160a01b0383166004820152600090849073__StakingLibrary________________________906316345f1890602401602060405180830381865af4158015610605573d6000803e3d6000fd5b505050506040513d601f19601f820116820180604052508101906106299190610e8a565b6106339190610ee2565b905080600260008282546106479190610ecf565b9091555050604080513381526001600160a01b03871660208201529081018590527f02ecccdc1038b6743ff964c47b7a07c31a71632f4a8039815930a94fda3e06d09060600160405180910390a15050505050565b6040516370a0823160e01b815233600482015282906001600160a01b038516906370a0823190602401602060405180830381865afa1580156106e2573d6000803e3d6000fd5b505050506040513d601f19601f820116820180604052508101906107069190610e8a565b116107535760405162461bcd60e51b815260206004820152601c60248201527f596f7520646f6e2774206861766520656e6f75676820746f6b656e73000000006044820152606401610248565b6107686001600160a01b038416333085610a23565b33600090815260046020819052604080832090516313f814fd60e21b815273__StakingLibrary________________________92634fe053f4926107b0929091899101610e19565b602060405180830381865af41580156107cd573d6000803e3d6000fd5b505050506040513d601f19601f820116820180604052508101906107f19190610e8a565b3360009081526004602052604090205490915081146108595733600090815260046020526040902080548491908390811061082e5761082e610ea3565b9060005260206000209060020201600101600082825461084e9190610f01565b909155506108bc9050565b33600090815260046020908152604080832081518083019092526001600160a01b038881168352828401888152825460018082018555938752949095209251600290940290920180546001600160a01b0319169390921692909217815591519101555b6040516302c68be360e31b81526001600160a01b0383166004820152600090849073__StakingLibrary________________________906316345f1890602401602060405180830381865af4158015610919573d6000803e3d6000fd5b505050506040513d601f19601f8201168201806040525081019061093d9190610e8a565b6109479190610ee2565b9050806002600082825461095b9190610f01565b9091555050604080513381526001600160a01b03871660208201529081018590527fbf6eac2f4b953b5538a7beedc8a7fa29bc34b3b2029a1c4d794d946c2c5014389060600160405180910390a16109b33382610a61565b505050505050565b6040516001600160a01b038316602482015260448101829052610a1e90849063a9059cbb60e01b906064015b60408051601f198184030181529190526020810180516001600160e01b03166001600160e01b031990931692909217909152610ae1565b505050565b6040516001600160a01b0380851660248301528316604482015260648101829052610a5b9085906323b872dd60e01b906084016109e7565b50505050565b6000806002548360c8610a749190610ee2565b610a7e9190610f14565b600054909150610a98906001600160a01b031685836109bb565b604080516001600160a01b0386168152602081018390527f21670f22ea41f8b13717112c8e6b8ce3ce14489a7077e04b5885e575645b9e52910160405180910390a19392505050565b6000610b36826040518060400160405280602081526020017f5361666545524332303a206c6f772d6c6576656c2063616c6c206661696c6564815250856001600160a01b0316610bb39092919063ffffffff16565b805190915015610a1e5780806020019051810190610b549190610f36565b610a1e5760405162461bcd60e51b815260206004820152602a60248201527f5361666545524332303a204552433230206f7065726174696f6e20646964206e6044820152691bdd081cdd58d8d9595960b21b6064820152608401610248565b6060610bc28484600085610bcc565b90505b9392505050565b606082471015610c2d5760405162461bcd60e51b815260206004820152602660248201527f416464726573733a20696e73756666696369656e742062616c616e636520666f6044820152651c8818d85b1b60d21b6064820152608401610248565b6001600160a01b0385163b610c845760405162461bcd60e51b815260206004820152601d60248201527f416464726573733a2063616c6c20746f206e6f6e2d636f6e74726163740000006044820152606401610248565b600080866001600160a01b03168587604051610ca09190610f7c565b60006040518083038185875af1925050503d8060008114610cdd576040519150601f19603f3d011682016040523d82523d6000602084013e610ce2565b606091505b5091509150610cf2828286610cfd565b979650505050505050565b60608315610d0c575081610bc5565b825115610d1c5782518084602001fd5b8160405162461bcd60e51b81526004016102489190610f98565b602080825282518282018190526000919060409081850190868401855b82811015610d8157815180516001600160a01b03168552860151868501529284019290850190600101610d53565b5091979650505050505050565b80356001600160a01b0381168114610da557600080fd5b919050565b60008060408385031215610dbd57600080fd5b610dc683610d8e565b9150610dd460208401610d8e565b90509250929050565b600080600060608486031215610df257600080fd5b610dfb84610d8e565b925060208401359150610e1060408501610d8e565b90509250925092565b6000604080830181845280865480835260608601915087600052602092508260002060005b82811015610e6d5781546001600160a01b03168452600182810154868601529386019360029092019101610e3e565b5050506001600160a01b0395909516930192909252509092915050565b600060208284031215610e9c57600080fd5b5051919050565b634e487b7160e01b600052603260045260246000fd5b634e487b7160e01b600052601160045260246000fd5b8181038181111561035057610350610eb9565b6000816000190483118215151615610efc57610efc610eb9565b500290565b8082018082111561035057610350610eb9565b600082610f3157634e487b7160e01b600052601260045260246000fd5b500490565b600060208284031215610f4857600080fd5b81518015158114610bc557600080fd5b60005b83811015610f73578181015183820152602001610f5b565b50506000910152565b60008251610f8e818460208701610f58565b9190910192915050565b6020815260008251806020840152610fb7816040850160208701610f58565b601f01601f1916919091016040019291505056fea26469706673582212202cc39124f0c12569462d4c55bcf53dfa769b95e2875f77349d64f25f68ad9bc564736f6c6343000810003360806040523480156200001157600080fd5b5060405162000bd938038062000bd983398101604081905262000034916200019b565b6040518060400160405280600981526020016821363ab2aa37b5b2b760b91b8152506040518060400160405280600381526020016210931560ea1b815250816003908162000083919062000259565b50600462000092828262000259565b505050620000a73382620000ae60201b60201c565b506200034d565b6001600160a01b038216620001095760405162461bcd60e51b815260206004820152601f60248201527f45524332303a206d696e7420746f20746865207a65726f206164647265737300604482015260640160405180910390fd5b80600260008282546200011d919062000325565b90915550506001600160a01b038216600090815260208190526040812080548392906200014c90849062000325565b90915550506040518181526001600160a01b038316906000907fddf252ad1be2c89b69c2b068fc378daa952ba7f163c4a11628f55a4df523b3ef9060200160405180910390a35050565b505050565b600060208284031215620001ae57600080fd5b5051919050565b634e487b7160e01b600052604160045260246000fd5b600181811c90821680620001e057607f821691505b6020821081036200020157634e487b7160e01b600052602260045260246000fd5b50919050565b601f8211156200019657600081815260208120601f850160051c81016020861015620002305750805b601f850160051c820191505b8181101562000251578281556001016200023c565b505050505050565b81516001600160401b03811115620002755762000275620001b5565b6200028d81620002868454620001cb565b8462000207565b602080601f831160018114620002c55760008415620002ac5750858301515b600019600386901b1c1916600185901b17855562000251565b600085815260208120601f198616915b82811015620002f657888601518255948401946001909101908401620002d5565b5085821015620003155787850151600019600388901b60f8161c191681555b5050505050600190811b01905550565b808201808211156200034757634e487b7160e01b600052601160045260246000fd5b92915050565b61087c806200035d6000396000f3fe608060405234801561001057600080fd5b50600436106100a95760003560e01c80633950935111610071578063395093511461012357806370a082311461013657806395d89b411461015f578063a457c2d714610167578063a9059cbb1461017a578063dd62ed3e1461018d57600080fd5b806306fdde03146100ae578063095ea7b3146100cc57806318160ddd146100ef57806323b872dd14610101578063313ce56714610114575b600080fd5b6100b66101a0565b6040516100c391906106c6565b60405180910390f35b6100df6100da366004610730565b610232565b60405190151581526020016100c3565b6002545b6040519081526020016100c3565b6100df61010f36600461075a565b61024c565b604051601281526020016100c3565b6100df610131366004610730565b610270565b6100f3610144366004610796565b6001600160a01b031660009081526020819052604090205490565b6100b6610292565b6100df610175366004610730565b6102a1565b6100df610188366004610730565b610321565b6100f361019b3660046107b8565b61032f565b6060600380546101af906107eb565b80601f01602080910402602001604051908101604052809291908181526020018280546101db906107eb565b80156102285780601f106101fd57610100808354040283529160200191610228565b820191906000526020600020905b81548152906001019060200180831161020b57829003601f168201915b5050505050905090565b60003361024081858561035a565b60019150505b92915050565b60003361025a85828561047e565b6102658585856104f8565b506001949350505050565b600033610240818585610283838361032f565b61028d9190610825565b61035a565b6060600480546101af906107eb565b600033816102af828661032f565b9050838110156103145760405162461bcd60e51b815260206004820152602560248201527f45524332303a2064656372656173656420616c6c6f77616e63652062656c6f77604482015264207a65726f60d81b60648201526084015b60405180910390fd5b610265828686840361035a565b6000336102408185856104f8565b6001600160a01b03918216600090815260016020908152604080832093909416825291909152205490565b6001600160a01b0383166103bc5760405162461bcd60e51b8152602060048201526024808201527f45524332303a20617070726f76652066726f6d20746865207a65726f206164646044820152637265737360e01b606482015260840161030b565b6001600160a01b03821661041d5760405162461bcd60e51b815260206004820152602260248201527f45524332303a20617070726f766520746f20746865207a65726f206164647265604482015261737360f01b606482015260840161030b565b6001600160a01b0383811660008181526001602090815260408083209487168084529482529182902085905590518481527f8c5be1e5ebec7d5bd14f71427d1e84f3dd0314c0f7b2291e5b200ac8c7c3b925910160405180910390a3505050565b600061048a848461032f565b905060001981146104f257818110156104e55760405162461bcd60e51b815260206004820152601d60248201527f45524332303a20696e73756666696369656e7420616c6c6f77616e6365000000604482015260640161030b565b6104f2848484840361035a565b50505050565b6001600160a01b03831661055c5760405162461bcd60e51b815260206004820152602560248201527f45524332303a207472616e736665722066726f6d20746865207a65726f206164604482015264647265737360d81b606482015260840161030b565b6001600160a01b0382166105be5760405162461bcd60e51b815260206004820152602360248201527f45524332303a207472616e7366657220746f20746865207a65726f206164647260448201526265737360e81b606482015260840161030b565b6001600160a01b038316600090815260208190526040902054818110156106365760405162461bcd60e51b815260206004820152602660248201527f45524332303a207472616e7366657220616d6f756e7420657863656564732062604482015265616c616e636560d01b606482015260840161030b565b6001600160a01b0380851660009081526020819052604080822085850390559185168152908120805484929061066d908490610825565b92505081905550826001600160a01b0316846001600160a01b03167fddf252ad1be2c89b69c2b068fc378daa952ba7f163c4a11628f55a4df523b3ef846040516106b991815260200190565b60405180910390a36104f2565b600060208083528351808285015260005b818110156106f3578581018301518582016040015282016106d7565b506000604082860101526040601f19601f8301168501019250505092915050565b80356001600160a01b038116811461072b57600080fd5b919050565b6000806040838503121561074357600080fd5b61074c83610714565b946020939093013593505050565b60008060006060848603121561076f57600080fd5b61077884610714565b925061078660208501610714565b9150604084013590509250925092565b6000602082840312156107a857600080fd5b6107b182610714565b9392505050565b600080604083850312156107cb57600080fd5b6107d483610714565b91506107e260208401610714565b90509250929050565b600181811c908216806107ff57607f821691505b60208210810361081f57634e487b7160e01b600052602260045260246000fd5b50919050565b8082018082111561024657634e487b7160e01b600052601160045260246000fdfea26469706673582212204ec8be2ebbac5c6b4b38f23c0ec18ac4cf9ce4c644b023bd93775083850df5ad64736f6c63430008100033",
  "immutableReferences": {},
  "source": "// SPDX-License-Identifier: GPL-2.0-or-later\r\npragma solidity 0.8.16;\r\n\r\n\r\nimport \"./BlueToken.sol\";\r\nimport \"@openzeppelin/contracts/token/ERC20/utils/SafeERC20.sol\";\r\nimport {StakingLibrary} from \"./StakingLibrary.sol\";\r\n\r\n\r\n\r\n//Crer un smart contract  part pour le token ALYRA, faire comme le TP crowdsale\r\ncontract Staking {\r\n\r\n    using SafeERC20 for IERC20;\r\n\r\n    BlueToken public token;\r\n\r\n    //Rate BLK/ETH : 100 BLK = 1 ETH or 1 BLK = 10^16 WEI\r\n    uint public rate = 200;\r\n\r\n    //Total value locked in the contract in Wei\r\n    uint public TVL = 0;\r\n\r\n    //List of stakers address\r\n    address [] private Stakers;\r\n\r\n    //List of Positions attached to the staker address\r\n    mapping (address => StakingLibrary.Position[]) private PositionsList;\r\n\r\n    //staking event\r\n    event stake(address staker, address token, uint amount);\r\n    event unStake(address staker, address token, uint amount);\r\n    event reward(address staker, uint amount);\r\n\r\n\r\n    //Constructor mint reward's token and send them to staking contract\r\n    constructor(uint256 initialSupply){\r\n        token = new BlueToken(initialSupply);\r\n        TVL = initialSupply/200; \r\n        \r\n    }\r\n\r\n    //Reward the staker with Blue Token \r\n    \r\n    function Reward(address _staker, uint _amountTokenStakedinEther ) internal returns (uint) {\r\n\r\n        //The reward has to be proportional to the TVL in the contract\r\n        uint rewardBLT = (_amountTokenStakedinEther*200)/TVL;\r\n        IERC20(address(token)).safeTransfer(_staker, rewardBLT);\r\n        \r\n        emit reward(_staker, rewardBLT);\r\n\r\n        return rewardBLT;\r\n        \r\n    }\r\n\r\n    //Investors can stake any amount of an ERC20 token\r\n    function Stake(address _token, uint256 _amount, address _priceFeedContract) external payable {\r\n        require(IERC20(_token).balanceOf(msg.sender) > _amount, \"You don't have enough tokens\");\r\n        //Send the token of the staker to the contract Staking\r\n        IERC20(_token).safeTransferFrom(msg.sender, address(this), _amount);\r\n        \r\n        //Add the new Position to the PositionsList or only updates the amount\r\n        //if a Position has been already created for this token\r\n        uint indexTokenStaked = StakingLibrary.getIndexTokenStaked(PositionsList[msg.sender], _token);\r\n        if (indexTokenStaked != PositionsList[msg.sender].length) {\r\n            //The Position of the staker is updated with new amount of token staked\r\n            PositionsList[msg.sender][indexTokenStaked].liquidity += _amount;\r\n        }\r\n        else {\r\n            //A new Position is created for this staker\r\n            PositionsList[msg.sender].push(StakingLibrary.Position(_token, _amount));\r\n        }\r\n\r\n        //Update the TVL with the token just staked\r\n        uint amountTokenStakedinEther;\r\n        amountTokenStakedinEther = uint(StakingLibrary.getLatestPrice(_priceFeedContract)) * _amount;\r\n        TVL += amountTokenStakedinEther;\r\n        \r\n        //Event log position staked\r\n        emit stake(msg.sender, _token, _amount);\r\n\r\n        Reward(msg.sender, amountTokenStakedinEther);\r\n    }\r\n\r\n    function UnstakePosition(address _token, uint256 _amount, address _priceFeedContract ) external {\r\n        require(PositionsList[msg.sender].length > 0, \"You don't have any tokens staked\");\r\n        uint indexTokenStaked = StakingLibrary.getIndexTokenStaked(PositionsList[msg.sender], _token);\r\n        require(PositionsList[msg.sender].length != indexTokenStaked, \"You don't have this token staked\");\r\n\r\n        //Unstake staking position \r\n        IERC20(_token).safeTransfer(msg.sender, _amount);\r\n\r\n        //Updates the PositionsList\r\n        if (PositionsList[msg.sender][indexTokenStaked].liquidity == _amount) {\r\n            //Erase staking position \r\n            PositionsList[msg.sender][indexTokenStaked] =  StakingLibrary.Position(address(0),  0);\r\n\r\n        } else PositionsList[msg.sender][indexTokenStaked].liquidity -= _amount;\r\n\r\n        //Update the TVL with the token just unstaked\r\n        uint amountTokenUnstakedinEther = uint(StakingLibrary.getLatestPrice(_priceFeedContract)) * _amount;\r\n        TVL -= amountTokenUnstakedinEther;\r\n\r\n        emit unStake(msg.sender, _token, _amount);\r\n\r\n    }\r\n\r\n    function getAllPositions() public view returns (StakingLibrary.Position [] memory) {\r\n        return PositionsList[msg.sender];\r\n    }\r\n\r\n    function getLiquidityPosition(address _caller, address _token)  public view returns(uint) {\r\n        require(_caller == msg.sender, \"It's not your account !!\");\r\n        uint indexToken = StakingLibrary.getIndexTokenStaked(PositionsList[_caller], _token);\r\n\r\n        if(PositionsList[_caller].length == indexToken){\r\n            return 0;\r\n        }\r\n        return PositionsList[_caller][indexToken].liquidity;\r\n    }\r\n\r\n    receive() external payable {\r\n        \r\n    }\r\n\r\n}",
  "sourcePath": "C:\\Users\\yanni\\Documents\\Formation Alyra\\DefiStaking\\contracts\\Staking.sol",
  "compiler": {
    "name": "solc",
    "version": "0.8.16+commit.07a7930e.Emscripten.clang"
  },
  "schemaVersion": "3.4.4",
  "updatedAt": "2022-08-30T22:23:54.524Z",
  "networkType": "ethereum",
  "devdoc": {
    "kind": "dev",
    "methods": {},
    "version": 1
  },
  "userdoc": {
    "kind": "user",
    "methods": {},
    "version": 1
  }
}