{
  "contractName": "StakingLibrary",
  "abi": [
    {
      "inputs": [
        {
          "internalType": "address",
          "name": "priceFeedContract",
          "type": "address"
        }
      ],
      "name": "getLatestPrice",
      "outputs": [
        {
          "internalType": "int256",
          "name": "",
          "type": "int256"
        }
      ],
      "stateMutability": "view",
      "type": "function",
      "constant": true
    },
    {
      "inputs": [
        {
          "components": [
            {
              "internalType": "address",
              "name": "token",
              "type": "address"
            },
            {
              "internalType": "uint256",
              "name": "liquidity",
              "type": "uint256"
            },
            {
              "internalType": "uint256",
              "name": "paidRewardBLT",
              "type": "uint256"
            },
            {
              "internalType": "uint256",
              "name": "currentRewardBLT",
              "type": "uint256"
            },
            {
              "internalType": "uint256",
              "name": "lastUpdateReward",
              "type": "uint256"
            },
            {
              "internalType": "uint256",
              "name": "lastClaimReward",
              "type": "uint256"
            }
          ],
          "internalType": "struct StakingLibrary.Position[]",
          "name": "_deposits",
          "type": "tuple[]"
        },
        {
          "internalType": "address",
          "name": "_token",
          "type": "address"
        }
      ],
      "name": "getIndexTokenStaked",
      "outputs": [
        {
          "internalType": "uint256",
          "name": "",
          "type": "uint256"
        }
      ],
      "stateMutability": "pure",
      "type": "function",
      "constant": true
    }
  ],
  "bytecode": "0x61043361003a600b82828239805160001a60731461002d57634e487b7160e01b600052600060045260246000fd5b30600052607381538281f3fe73000000000000000000000000000000000000000030146080604052600436106100405760003560e01c806316345f18146100455780634fe053f41461006a575b600080fd5b6100586100533660046101ba565b61007d565b60405190815260200160405180910390f35b61005861007836600461024c565b610111565b60006001600160a01b038216156101045760008290506000816001600160a01b031663feaf968c6040518163ffffffff1660e01b815260040160a060405180830381865afa1580156100d3573d6000803e3d6000fd5b505050506040513d601f19601f820116820180604052508101906100f79190610370565b5091979650505050505050565b506001919050565b919050565b6000805b835181101561019857826001600160a01b031684828151811061013a5761013a6103c0565b6020026020010151600001516001600160a01b031614801561017a5750838181518110610169576101696103c0565b602002602001015160200151600014155b1561018657905061019d565b80610190816103d6565b915050610115565b505081515b92915050565b80356001600160a01b038116811461010c57600080fd5b6000602082840312156101cc57600080fd5b6101d5826101a3565b9392505050565b634e487b7160e01b600052604160045260246000fd5b60405160c0810167ffffffffffffffff81118282101715610215576102156101dc565b60405290565b604051601f8201601f1916810167ffffffffffffffff81118282101715610244576102446101dc565b604052919050565b600080604080848603121561026057600080fd5b833567ffffffffffffffff8082111561027857600080fd5b818601915086601f83011261028c57600080fd5b81356020828211156102a0576102a06101dc565b6102ae818360051b0161021b565b828152818101935060c092830285018201928a8411156102cd57600080fd5b948201945b8386101561033a5780868c0312156102ea5760008081fd5b6102f26101f2565b6102fb876101a3565b815286840135848201528787013588820152606080880135908201526080808801359082015260a08088013590820152855294850194938201936102d2565b5096506103488882016101a3565b955050505050509250929050565b805169ffffffffffffffffffff8116811461010c57600080fd5b600080600080600060a0868803121561038857600080fd5b61039186610356565b94506020860151935060408601519250606086015191506103b460808701610356565b90509295509295909350565b634e487b7160e01b600052603260045260246000fd5b6000600182016103f657634e487b7160e01b600052601160045260246000fd5b506001019056fea2646970667358221220e23d7ee85434c163279088f0791c1046e34328f215c80997fec8e15db80626a064736f6c63430008110033",
  "immutableReferences": {},
  "source": "\r\n// SPDX-License-Identifier: GPL-2.0-or-later\r\npragma solidity 0.8.17;\r\nimport \"@chainlink/contracts/src/v0.8/interfaces/AggregatorV3Interface.sol\";\r\n\r\nlibrary StakingLibrary {\r\n\r\n    //This structure represents a staking position\r\n    struct Position {\r\n        address token;\r\n        uint liquidity;\r\n        uint paidRewardBLT;\r\n        uint currentRewardBLT;\r\n        uint lastUpdateReward;\r\n        uint lastClaimReward;\r\n    }\r\n\r\n    function getLatestPrice(address priceFeedContract) public view returns (int) {\r\n        if(priceFeedContract != address(0)){\r\n            AggregatorV3Interface  priceFeed = AggregatorV3Interface(priceFeedContract);\r\n            (\r\n                /*uint80 roundID*/,\r\n                int price,\r\n                /*uint startedAt*/,\r\n                /*uint timeStamp*/,\r\n                /*uint80 answeredInRound*/\r\n            ) = priceFeed.latestRoundData();\r\n            return price;\r\n\r\n        } else return 1;\r\n    }\r\n\r\n\r\n    function getIndexTokenStaked(Position[] memory _deposits, address _token) public pure returns (uint) {\r\n        for (uint index = 0; index < _deposits.length; index++) {\r\n            if (_deposits[index].token == _token && _deposits[index].liquidity != 0){\r\n               return index;\r\n            }\r\n        }\r\n        return _deposits.length;\r\n    }\r\n}\r\n",
  "sourcePath": "C:\\Users\\yanni\\Documents\\Formation Alyra\\DefiStaking\\contracts\\StakingLibrary.sol",
  "compiler": {
    "name": "solc",
    "version": "0.8.17+commit.8df45f5f.Emscripten.clang"
  },
  "schemaVersion": "3.4.4",
  "updatedAt": "2022-10-02T21:01:12.759Z",
  "networkType": "ethereum",
  "devdoc": {
    "kind": "dev",
    "methods": {},
    "version": 1
  },
  "userdoc": {
    "kind": "user",
    "methods": {},
    "version": 1
  }
}