{
  "contractName": "Staking",
  "abi": [
    {
      "inputs": [
        {
          "internalType": "uint256",
          "name": "initialSupply",
          "type": "uint256"
        },
        {
          "internalType": "address",
          "name": "_tokenReward",
          "type": "address"
        }
      ],
      "stateMutability": "nonpayable",
      "type": "constructor"
    },
    {
      "anonymous": false,
      "inputs": [
        {
          "indexed": false,
          "internalType": "address",
          "name": "staker",
          "type": "address"
        },
        {
          "indexed": false,
          "internalType": "uint256",
          "name": "amount",
          "type": "uint256"
        }
      ],
      "name": "reward",
      "type": "event"
    },
    {
      "anonymous": false,
      "inputs": [
        {
          "indexed": false,
          "internalType": "address",
          "name": "staker",
          "type": "address"
        },
        {
          "indexed": false,
          "internalType": "address",
          "name": "token",
          "type": "address"
        },
        {
          "indexed": false,
          "internalType": "uint256",
          "name": "amount",
          "type": "uint256"
        }
      ],
      "name": "stake",
      "type": "event"
    },
    {
      "anonymous": false,
      "inputs": [
        {
          "indexed": false,
          "internalType": "address",
          "name": "staker",
          "type": "address"
        },
        {
          "indexed": false,
          "internalType": "address",
          "name": "token",
          "type": "address"
        },
        {
          "indexed": false,
          "internalType": "uint256",
          "name": "amount",
          "type": "uint256"
        }
      ],
      "name": "unStake",
      "type": "event"
    },
    {
      "inputs": [],
      "name": "REWARD_RATE",
      "outputs": [
        {
          "internalType": "uint256",
          "name": "",
          "type": "uint256"
        }
      ],
      "stateMutability": "view",
      "type": "function",
      "constant": true
    },
    {
      "inputs": [],
      "name": "TVL",
      "outputs": [
        {
          "internalType": "uint256",
          "name": "",
          "type": "uint256"
        }
      ],
      "stateMutability": "view",
      "type": "function",
      "constant": true
    },
    {
      "inputs": [
        {
          "internalType": "address",
          "name": "",
          "type": "address"
        }
      ],
      "name": "TVLtoken",
      "outputs": [
        {
          "internalType": "uint256",
          "name": "",
          "type": "uint256"
        }
      ],
      "stateMutability": "view",
      "type": "function",
      "constant": true
    },
    {
      "inputs": [
        {
          "internalType": "address",
          "name": "",
          "type": "address"
        }
      ],
      "name": "TVLtokeninEther",
      "outputs": [
        {
          "internalType": "uint256",
          "name": "",
          "type": "uint256"
        }
      ],
      "stateMutability": "view",
      "type": "function",
      "constant": true
    },
    {
      "inputs": [
        {
          "internalType": "address",
          "name": "",
          "type": "address"
        }
      ],
      "name": "TotalRewardtoken",
      "outputs": [
        {
          "internalType": "uint256",
          "name": "",
          "type": "uint256"
        }
      ],
      "stateMutability": "view",
      "type": "function",
      "constant": true
    },
    {
      "inputs": [],
      "name": "rate",
      "outputs": [
        {
          "internalType": "uint256",
          "name": "",
          "type": "uint256"
        }
      ],
      "stateMutability": "view",
      "type": "function",
      "constant": true
    },
    {
      "inputs": [],
      "name": "rewardFrequency",
      "outputs": [
        {
          "internalType": "uint256",
          "name": "",
          "type": "uint256"
        }
      ],
      "stateMutability": "view",
      "type": "function",
      "constant": true
    },
    {
      "inputs": [],
      "name": "token",
      "outputs": [
        {
          "internalType": "contract BlueToken",
          "name": "",
          "type": "address"
        }
      ],
      "stateMutability": "view",
      "type": "function",
      "constant": true
    },
    {
      "stateMutability": "payable",
      "type": "receive",
      "payable": true
    },
    {
      "inputs": [
        {
          "internalType": "address",
          "name": "_token",
          "type": "address"
        },
        {
          "internalType": "address",
          "name": "_priceFeedContract",
          "type": "address"
        },
        {
          "internalType": "uint256",
          "name": "_amount",
          "type": "uint256"
        },
        {
          "internalType": "uint256",
          "name": "startStakingTime",
          "type": "uint256"
        }
      ],
      "name": "getReward",
      "outputs": [
        {
          "internalType": "uint256",
          "name": "",
          "type": "uint256"
        }
      ],
      "stateMutability": "view",
      "type": "function",
      "constant": true
    },
    {
      "inputs": [
        {
          "internalType": "address",
          "name": "_token",
          "type": "address"
        },
        {
          "internalType": "address",
          "name": "_priceFeedContract",
          "type": "address"
        }
      ],
      "name": "claimReward",
      "outputs": [
        {
          "internalType": "uint256",
          "name": "",
          "type": "uint256"
        }
      ],
      "stateMutability": "nonpayable",
      "type": "function"
    },
    {
      "inputs": [
        {
          "internalType": "address",
          "name": "_token",
          "type": "address"
        },
        {
          "internalType": "uint256",
          "name": "_amount",
          "type": "uint256"
        },
        {
          "internalType": "address",
          "name": "_priceFeedContract",
          "type": "address"
        }
      ],
      "name": "Stake",
      "outputs": [],
      "stateMutability": "nonpayable",
      "type": "function"
    },
    {
      "inputs": [
        {
          "internalType": "address",
          "name": "_token",
          "type": "address"
        },
        {
          "internalType": "uint256",
          "name": "_amount",
          "type": "uint256"
        },
        {
          "internalType": "address",
          "name": "_priceFeedContract",
          "type": "address"
        }
      ],
      "name": "UnstakePosition",
      "outputs": [
        {
          "internalType": "uint256",
          "name": "",
          "type": "uint256"
        }
      ],
      "stateMutability": "nonpayable",
      "type": "function"
    },
    {
      "inputs": [
        {
          "internalType": "address",
          "name": "_token",
          "type": "address"
        }
      ],
      "name": "getPosition",
      "outputs": [
        {
          "internalType": "address",
          "name": "",
          "type": "address"
        },
        {
          "internalType": "uint256",
          "name": "",
          "type": "uint256"
        },
        {
          "internalType": "uint256",
          "name": "",
          "type": "uint256"
        },
        {
          "internalType": "uint256",
          "name": "",
          "type": "uint256"
        },
        {
          "internalType": "uint256",
          "name": "",
          "type": "uint256"
        },
        {
          "internalType": "uint256",
          "name": "",
          "type": "uint256"
        }
      ],
      "stateMutability": "view",
      "type": "function",
      "constant": true
    }
  ],
  "bytecode": "0x608060405260c860015560006002556005600355603c6004553480156200002557600080fd5b5060405162001d0f38038062001d0f83398101604081905262000048916200007e565b600080546001600160a01b0319166001600160a01b038316179055600154620000729083620000bd565b60025550620000e09050565b600080604083850312156200009257600080fd5b825160208401519092506001600160a01b0381168114620000b257600080fd5b809150509250929050565b600082620000db57634e487b7160e01b600052601260045260246000fd5b500490565b611c1f80620000f06000396000f3fe6080604052600436106100c65760003560e01c8063924c65cb1161007f578063d950401d11610059578063d950401d1461022d578063e7ce7a161461025a578063edaf2d2e14610287578063fc0c546a1461029d57600080fd5b8063924c65cb146101cb578063bd15031b146101eb578063cc2e01631461020b57600080fd5b806316c19739146100d25780631d58e1dd1461012e5780632c4e722e146101525780634953c782146101685780635997bb37146101885780637b4fb4de1461019e57600080fd5b366100cd57005b600080fd5b3480156100de57600080fd5b506100f26100ed36600461182c565b6102d5565b604080516001600160a01b0390971687526020870195909552938501929092526060840152608083015260a082015260c0015b60405180910390f35b34801561013a57600080fd5b5061014460045481565b604051908152602001610125565b34801561015e57600080fd5b5061014460015481565b34801561017457600080fd5b50610144610183366004611847565b61050b565b34801561019457600080fd5b5061014460035481565b3480156101aa57600080fd5b506101446101b936600461182c565b60076020526000908152604090205481565b3480156101d757600080fd5b506101446101e636600461187a565b610910565b3480156101f757600080fd5b506101446102063660046118bc565b610a7d565b34801561021757600080fd5b5061022b6102263660046118bc565b610f97565b005b34801561023957600080fd5b5061014461024836600461182c565b60066020526000908152604090205481565b34801561026657600080fd5b5061014461027536600461182c565b60056020526000908152604090205481565b34801561029357600080fd5b5061014460025481565b3480156102a957600080fd5b506000546102bd906001600160a01b031681565b6040516001600160a01b039091168152602001610125565b3360009081526008602052604080822090516313f814fd60e21b815282918291829182918291829173__StakingLibrary________________________91634fe053f49161032891908c906004016118f8565b602060405180830381865af4158015610345573d6000803e3d6000fd5b505050506040513d601f19601f82011682018060405250810190610369919061199a565b3360009081526008602052604090205490915081900361039e5760008060008060008096509650965096509650965050610502565b3360009081526008602052604090208054899190839081106103c2576103c26119b3565b90600052602060002090600602016001015460086000336001600160a01b03166001600160a01b03168152602001908152602001600020838154811061040a5761040a6119b3565b90600052602060002090600602016002015460086000336001600160a01b03166001600160a01b031681526020019081526020016000208481548110610452576104526119b3565b90600052602060002090600602016003015460086000336001600160a01b03166001600160a01b03168152602001908152602001600020858154811061049a5761049a6119b3565b90600052602060002090600602016004015460086000336001600160a01b03166001600160a01b0316815260200190815260200160002086815481106104e2576104e26119b3565b906000526020600020906006020160050154965096509650965096509650505b91939550919395565b3360009081526008602052604080822090516313f814fd60e21b8152829173__StakingLibrary________________________91634fe053f4916105539188906004016118f8565b602060405180830381865af4158015610570573d6000803e3d6000fd5b505050506040513d601f19601f82011682018060405250810190610594919061199a565b336000908152600860205260409020549091506105f85760405162461bcd60e51b815260206004820181905260248201527f596f7520646f6e2774206861766520616e7920746f6b656e73207374616b656460448201526064015b60405180910390fd5b336000908152600860205260409020548190036106575760405162461bcd60e51b815260206004820181905260248201527f596f7520646f6e27742068617665207468697320746f6b656e207374616b656460448201526064016105ef565b60045433600090815260086020526040902080548390811061067b5761067b6119b3565b9060005260206000209060060201600501544261069891906119df565b101561070c5760405162461bcd60e51b815260206004820152603b60248201527f596f752063616e6e6f7420636c61696d20726577617264207965742c2074686560448201527f207374616b696e6720706572696f64206973206e6f74206f766572000000000060648201526084016105ef565b610717338483611417565b336000908152600860205260408120805483908110610738576107386119b3565b6000918252602082206006919091020160030154905460405163a9059cbb60e01b8152336004820152602481018390529192506001600160a01b03169063a9059cbb906044016020604051808303816000875af115801561079d573d6000803e3d6000fd5b505050506040513d601f19601f820116820180604052508101906107c191906119f2565b503360009081526008602052604081208054849081106107e3576107e36119b3565b9060005260206000209060060201600301819055504260086000336001600160a01b03166001600160a01b03168152602001908152602001600020838154811061082f5761082f6119b3565b9060005260206000209060060201600501819055508060086000336001600160a01b03166001600160a01b03168152602001908152602001600020838154811061087b5761087b6119b3565b9060005260206000209060060201600201600082825461089b9190611a14565b90915550506001600160a01b038516600090815260076020526040812080548392906108c8908490611a14565b909155505060408051338152602081018390527f21670f22ea41f8b13717112c8e6b8ce3ce14489a7077e04b5885e575645b9e52910160405180910390a19150505b92915050565b60008215610a71576000856001600160a01b031663313ce5676040518163ffffffff1660e01b8152600401602060405180830381865afa158015610958573d6000803e3d6000fd5b505050506040513d601f19601f8201168201806040525081019061097c9190611a27565b61098790600a611b2e565b6040516302c68be360e31b81526001600160a01b0387166004820152859073__StakingLibrary________________________906316345f1890602401602060405180830381865af41580156109e1573d6000803e3d6000fd5b505050506040513d601f19601f82011682018060405250810190610a05919061199a565b610a0f9190611b3d565b610a199190611b54565b905060006004548442610a2c91906119df565b610a369190611b54565b606460035460015485610a499190611b3d565b610a539190611b3d565b610a5d9190611b54565b610a679190611b3d565b9250610a75915050565b5060005b949350505050565b3360009081526008602052604080822090516313f814fd60e21b8152829173__StakingLibrary________________________91634fe053f491610ac59189906004016118f8565b602060405180830381865af4158015610ae2573d6000803e3d6000fd5b505050506040513d601f19601f82011682018060405250810190610b06919061199a565b33600090815260086020526040902054909150610b655760405162461bcd60e51b815260206004820181905260248201527f596f7520646f6e2774206861766520616e7920746f6b656e73207374616b656460448201526064016105ef565b33600090815260086020526040902054819003610bc45760405162461bcd60e51b815260206004820181905260248201527f596f7520646f6e27742068617665207468697320746f6b656e207374616b656460448201526064016105ef565b336000908152600860205260409020805485919083908110610be857610be86119b3565b9060005260206000209060060201600101541015610c6e5760405162461bcd60e51b815260206004820152603d60248201527f596f757220756e7374616b6520616d6f756e742069732067726561746572207460448201527f68616e2074686520746f6b656e207374616b656420616d6f756e74202100000060648201526084016105ef565b610c826001600160a01b0386163386611584565b610c8d338483611417565b336000908152600860205260409020805485919083908110610cb157610cb16119b3565b90600052602060002090600602016001015403610d80576040805160c08101825260008082526020808301829052828401829052606083018290526080830182905260a083018290523382526008905291909120805483908110610d1757610d176119b3565b600091825260209182902083516006929092020180546001600160a01b0319166001600160a01b0390921691909117815590820151600182015560408201516002820155606082015160038201556080820151600482015560a090910151600590910155610dca565b336000908152600860205260409020805485919083908110610da457610da46119b3565b90600052602060002090600602016001016000828254610dc491906119df565b90915550505b6000856001600160a01b031663313ce5676040518163ffffffff1660e01b8152600401602060405180830381865afa158015610e0a573d6000803e3d6000fd5b505050506040513d601f19601f82011682018060405250810190610e2e9190611a27565b610e3990600a611b2e565b6040516302c68be360e31b81526001600160a01b0386166004820152869073__StakingLibrary________________________906316345f1890602401602060405180830381865af4158015610e93573d6000803e3d6000fd5b505050506040513d601f19601f82011682018060405250810190610eb7919061199a565b610ec19190611b3d565b610ecb9190611b54565b6001600160a01b038716600090815260066020526040812080549293508792909190610ef89084906119df565b90915550506001600160a01b03861660009081526005602052604081208054839290610f259084906119df565b925050819055508060026000828254610f3e91906119df565b9091555050604080513381526001600160a01b03881660208201529081018690527f02ecccdc1038b6743ff964c47b7a07c31a71632f4a8039815930a94fda3e06d09060600160405180910390a19150505b9392505050565b81600003610fe75760405162461bcd60e51b815260206004820152601e60248201527f596f752063616e6e6f74207374616b65207a65726f20616d6f756e742021000060448201526064016105ef565b6040516370a0823160e01b815233600482015282906001600160a01b038516906370a0823190602401602060405180830381865afa15801561102d573d6000803e3d6000fd5b505050506040513d601f19601f82011682018060405250810190611051919061199a565b1161109e5760405162461bcd60e51b815260206004820152601c60248201527f596f7520646f6e2774206861766520656e6f75676820746f6b656e730000000060448201526064016105ef565b6110b36001600160a01b0384163330856115ec565b3360009081526008602052604080822090516313f814fd60e21b815273__StakingLibrary________________________91634fe053f4916110fa919088906004016118f8565b602060405180830381865af4158015611117573d6000803e3d6000fd5b505050506040513d601f19601f8201168201806040525081019061113b919061199a565b3360009081526008602052604090205490915081146111ae5761115f338383611417565b336000908152600860205260409020805484919083908110611183576111836119b3565b906000526020600020906006020160010160008282546111a39190611a14565b9091555061124e9050565b336000908152600860209081526040808320815160c0810183526001600160a01b03898116825281850189815293820186815260608301878152426080850181815260a08601918252865460018082018955978b52989099209451600690980290940180546001600160a01b0319169790931696909617825593519281019290925591516002820155915160038301559151600482015590516005909101555b6000846001600160a01b031663313ce5676040518163ffffffff1660e01b8152600401602060405180830381865afa15801561128e573d6000803e3d6000fd5b505050506040513d601f19601f820116820180604052508101906112b29190611a27565b6112bd90600a611b2e565b6040516302c68be360e31b81526001600160a01b0385166004820152859073__StakingLibrary________________________906316345f1890602401602060405180830381865af4158015611317573d6000803e3d6000fd5b505050506040513d601f19601f8201168201806040525081019061133b919061199a565b6113459190611b3d565b61134f9190611b54565b6001600160a01b03861660009081526006602052604081208054929350869290919061137c908490611a14565b90915550506001600160a01b038516600090815260056020526040812080548392906113a9908490611a14565b9250508190555080600260008282546113c29190611a14565b9091555050604080513381526001600160a01b03871660208201529081018590527fbf6eac2f4b953b5538a7beedc8a7fa29bc34b3b2029a1c4d794d946c2c5014389060600160405180910390a15050505050565b6001600160a01b038316600090815260086020526040812080546114e8919084908110611446576114466119b3565b600091825260208083206006909202909101546001600160a01b0388811684526008909252604090922080549190921691869186908110611489576114896119b3565b90600052602060002090600602016001015460086000896001600160a01b03166001600160a01b0316815260200190815260200160002086815481106114d1576114d16119b3565b906000526020600020906006020160040154610910565b6001600160a01b03851660009081526008602052604090208054919250829184908110611517576115176119b3565b906000526020600020906006020160030160008282546115379190611a14565b90915550506001600160a01b0384166000908152600860205260409020805442919084908110611569576115696119b3565b90600052602060002090600602016004018190555050505050565b6040516001600160a01b0383166024820152604481018290526115e790849063a9059cbb60e01b906064015b60408051601f198184030181529190526020810180516001600160e01b03166001600160e01b03199093169290921790915261162a565b505050565b6040516001600160a01b03808516602483015283166044820152606481018290526116249085906323b872dd60e01b906084016115b0565b50505050565b600061167f826040518060400160405280602081526020017f5361666545524332303a206c6f772d6c6576656c2063616c6c206661696c6564815250856001600160a01b03166116fc9092919063ffffffff16565b8051909150156115e7578080602001905181019061169d91906119f2565b6115e75760405162461bcd60e51b815260206004820152602a60248201527f5361666545524332303a204552433230206f7065726174696f6e20646964206e6044820152691bdd081cdd58d8d9595960b21b60648201526084016105ef565b6060610a758484600085856001600160a01b0385163b61175e5760405162461bcd60e51b815260206004820152601d60248201527f416464726573733a2063616c6c20746f206e6f6e2d636f6e747261637400000060448201526064016105ef565b600080866001600160a01b0316858760405161177a9190611b9a565b60006040518083038185875af1925050503d80600081146117b7576040519150601f19603f3d011682016040523d82523d6000602084013e6117bc565b606091505b50915091506117cc8282866117d7565b979650505050505050565b606083156117e6575081610f90565b8251156117f65782518084602001fd5b8160405162461bcd60e51b81526004016105ef9190611bb6565b80356001600160a01b038116811461182757600080fd5b919050565b60006020828403121561183e57600080fd5b610f9082611810565b6000806040838503121561185a57600080fd5b61186383611810565b915061187160208401611810565b90509250929050565b6000806000806080858703121561189057600080fd5b61189985611810565b93506118a760208601611810565b93969395505050506040820135916060013590565b6000806000606084860312156118d157600080fd5b6118da84611810565b9250602084013591506118ef60408501611810565b90509250925092565b600060408083018184528086548083526060925082860191508760005260208060002060005b838110156119755781546001600160a01b031685526001828101548487015260028301548887015260038301548787015260048301546080870152600583015460a087015260c0909501946006909201910161191e565b505082955061198e818801896001600160a01b03169052565b50505050509392505050565b6000602082840312156119ac57600080fd5b5051919050565b634e487b7160e01b600052603260045260246000fd5b634e487b7160e01b600052601160045260246000fd5b8181038181111561090a5761090a6119c9565b600060208284031215611a0457600080fd5b81518015158114610f9057600080fd5b8082018082111561090a5761090a6119c9565b600060208284031215611a3957600080fd5b815160ff81168114610f9057600080fd5b600181815b80851115611a85578160001904821115611a6b57611a6b6119c9565b80851615611a7857918102915b93841c9390800290611a4f565b509250929050565b600082611a9c5750600161090a565b81611aa95750600061090a565b8160018114611abf5760028114611ac957611ae5565b600191505061090a565b60ff841115611ada57611ada6119c9565b50506001821b61090a565b5060208310610133831016604e8410600b8410161715611b08575081810a61090a565b611b128383611a4a565b8060001904821115611b2657611b266119c9565b029392505050565b6000610f9060ff841683611a8d565b808202811582820484141761090a5761090a6119c9565b600082611b7157634e487b7160e01b600052601260045260246000fd5b500490565b60005b83811015611b91578181015183820152602001611b79565b50506000910152565b60008251611bac818460208701611b76565b9190910192915050565b6020815260008251806020840152611bd5816040850160208701611b76565b601f01601f1916919091016040019291505056fea264697066735822122023168710c26ba39379dccbe36ecae8ad705114634f601383de19cbd0c292831c64736f6c63430008110033",
  "immutableReferences": {},
  "source": "// SPDX-License-Identifier: GPL-2.0-or-later\r\npragma solidity 0.8.17;\r\n\r\n\r\nimport \"./BlueToken.sol\";\r\nimport \"@openzeppelin/contracts/token/ERC20/utils/SafeERC20.sol\";\r\nimport \"@openzeppelin/contracts/token/ERC20/extensions/IERC20Metadata.sol\";\r\nimport {StakingLibrary} from \"./StakingLibrary.sol\";\r\n\r\n/*\r\nPour viter de crer une fonction getindex il est prfrable de crer PositionList de la manire suivante\r\nmapping(address staker => mapping (address token => StakingLibrary.Position ))\r\n\r\nFaire un claim reward toutes les minutes en se basant sur le timestamp\r\n\r\nDans la fonction stake vrifier que le token pass en argument est bien un ERC20 token\r\n\r\n*/\r\n\r\ncontract Staking {\r\n\r\n    using SafeERC20 for IERC20Metadata;\r\n\r\n    BlueToken public token;\r\n\r\n    // Rate BLK/ETH : 100 BLK = 1 ETH or 1 BLK = 10^16 WEI\r\n    uint public rate = 200;\r\n\r\n    // Total value locked in the contract in Wei\r\n    uint public TVL = 0;\r\n\r\n    // Reward = 5% of amount staked in ether\r\n    uint public REWARD_RATE = 5;\r\n\r\n    uint public rewardFrequency = 1 minutes;\r\n\r\n    // TVL (in ether) by token\r\n    mapping(address => uint) public TVLtokeninEther;\r\n\r\n    // TVL (in ERC20) by token\r\n    mapping(address => uint) public TVLtoken;\r\n\r\n    // Total reward (in BLT) earned by token\r\n    mapping(address => uint) public TotalRewardtoken;\r\n\r\n    // List of Positions attached to the staker address\r\n    mapping (address => StakingLibrary.Position[]) private PositionsList;\r\n\r\n    // staking event\r\n    event stake(address staker, address token, uint amount);\r\n    event unStake(address staker, address token, uint amount);\r\n    event reward(address staker, uint amount);\r\n\r\n\r\n    // Constructor mint reward's token and send them to staking contract\r\n    constructor(uint256 initialSupply, address _tokenReward){\r\n        //token = new BlueToken(initialSupply);\r\n        token = BlueToken(_tokenReward);\r\n        TVL = (initialSupply/rate);  \r\n        \r\n    }\r\n\r\n    //Reward the staker with Blue Token \r\n\r\n    /*\r\n    Cas 1 : Le staker \r\n\r\n    */\r\n\r\n    function getReward(address _token, address _priceFeedContract, uint _amount, uint startStakingTime) public view returns(uint) {\r\n        if(_amount > 0){\r\n            uint amountinEther;\r\n            amountinEther = uint(StakingLibrary.getLatestPrice(_priceFeedContract)) * _amount/ 10**IERC20Metadata(_token).decimals();\r\n\r\n            uint rewardBLT = ((amountinEther*rate)*REWARD_RATE/100) * ((block.timestamp - startStakingTime)/rewardFrequency);\r\n\r\n            return rewardBLT;\r\n\r\n        } else return 0;\r\n\r\n    }\r\n    \r\n    function updateCurrentReward(address _staker, address _priceFeedContract, uint _indexTokenStaked ) internal{\r\n\r\n        // Get past reward since the last update current Reward\r\n        uint pastRewardBLT = getReward(PositionsList[_staker][_indexTokenStaked].token, _priceFeedContract, PositionsList[_staker][_indexTokenStaked].liquidity, PositionsList[_staker][_indexTokenStaked].lastUpdateReward);\r\n      \r\n        // Update current Reward in BLT and last update reward\r\n        PositionsList[_staker][_indexTokenStaked].currentRewardBLT += pastRewardBLT;\r\n        PositionsList[_staker][_indexTokenStaked].lastUpdateReward = block.timestamp;\r\n\r\n    }\r\n\r\n    function claimReward(address _token, address _priceFeedContract) external returns(uint) {\r\n\r\n        // Get index Token Staked\r\n        uint indexTokenStaked = StakingLibrary.getIndexTokenStaked(PositionsList[msg.sender], _token);\r\n\r\n        require(PositionsList[msg.sender].length > 0, \"You don't have any tokens staked\");     \r\n        require(PositionsList[msg.sender].length != indexTokenStaked, \"You don't have this token staked\");\r\n        require(block.timestamp -  PositionsList[msg.sender][indexTokenStaked].lastClaimReward >= rewardFrequency, \"You cannot claim reward yet, the staking period is not over\");\r\n        \r\n\r\n        // Update current reward to get the reward to send\r\n        updateCurrentReward(msg.sender, _priceFeedContract, indexTokenStaked);\r\n\r\n        // Pay reward\r\n        uint rewardBLT = PositionsList[msg.sender][indexTokenStaked].currentRewardBLT;\r\n        token.transfer(msg.sender, rewardBLT);\r\n\r\n        // Reset to zero current Reward\r\n        PositionsList[msg.sender][indexTokenStaked].currentRewardBLT = 0;\r\n\r\n        // Update last claim reward\r\n        PositionsList[msg.sender][indexTokenStaked].lastClaimReward = block.timestamp;\r\n\r\n        //Update paid reward amount for this position\r\n        PositionsList[msg.sender][indexTokenStaked].paidRewardBLT += rewardBLT;\r\n\r\n        // Update the total reward earned by token\r\n        TotalRewardtoken[_token] += rewardBLT;\r\n        \r\n        // Log reward \r\n        emit reward(msg.sender, rewardBLT);\r\n\r\n        return rewardBLT;\r\n    }\r\n\r\n    //Investors can stake any amount of an ERC20 token\r\n    function Stake(address _token, uint256 _amount, address _priceFeedContract) external {\r\n\r\n        require(_amount != 0, \"You cannot stake zero amount !\");\r\n        require(IERC20Metadata(_token).balanceOf(msg.sender) > _amount, \"You don't have enough tokens\");\r\n        // Send the token of the staker to the contract Staking\r\n        IERC20Metadata(_token).safeTransferFrom(msg.sender, address(this), _amount); \r\n        \r\n        // Add the new Position to the PositionsList or only updates the amount\r\n        // if a Position has been already created for this token\r\n        uint indexTokenStaked = StakingLibrary.getIndexTokenStaked(PositionsList[msg.sender], _token);\r\n        if (indexTokenStaked != PositionsList[msg.sender].length) {\r\n            //Update current reward before update liquidity\r\n            updateCurrentReward(msg.sender, _priceFeedContract , indexTokenStaked);\r\n\r\n            //The Position of the staker is updated with new amount of token staked\r\n            PositionsList[msg.sender][indexTokenStaked].liquidity += _amount;\r\n        }\r\n        else {\r\n            //A new Position is created for this staker\r\n            PositionsList[msg.sender].push(StakingLibrary.Position(_token, _amount, 0, 0, block.timestamp, block.timestamp));\r\n        }\r\n\r\n        // Update the TVL with the token just staked\r\n        uint amountTokenStakedinEther;\r\n        amountTokenStakedinEther = uint(StakingLibrary.getLatestPrice(_priceFeedContract)) * _amount/ 10**IERC20Metadata(_token).decimals();\r\n    \r\n        // Update the TVL by token\r\n        TVLtoken[_token] += _amount;\r\n        TVLtokeninEther[_token] += amountTokenStakedinEther;\r\n \r\n        // Update the TVL\r\n        TVL += amountTokenStakedinEther;\r\n\r\n        //Log position staked\r\n        emit stake(msg.sender, _token, _amount);\r\n        \r\n    }\r\n\r\n    function UnstakePosition(address _token, uint256 _amount, address _priceFeedContract ) external returns(uint){\r\n        uint indexTokenStaked = StakingLibrary.getIndexTokenStaked(PositionsList[msg.sender], _token);\r\n\r\n        require(PositionsList[msg.sender].length > 0, \"You don't have any tokens staked\");     \r\n        require(PositionsList[msg.sender].length != indexTokenStaked, \"You don't have this token staked\");\r\n        require(PositionsList[msg.sender][indexTokenStaked].liquidity >= _amount, \"Your unstake amount is greater than the token staked amount !\");\r\n\r\n        // Unstake staking position \r\n        IERC20Metadata(_token).safeTransfer(msg.sender, _amount);\r\n\r\n        //Update current reward before update liquidity\r\n        updateCurrentReward(msg.sender,  _priceFeedContract, indexTokenStaked );\r\n\r\n        // Updates the PositionsList\r\n        if (PositionsList[msg.sender][indexTokenStaked].liquidity == _amount) {\r\n            // Erase staking position \r\n            PositionsList[msg.sender][indexTokenStaked] =  StakingLibrary.Position(address(0),  0, 0, 0, 0, 0);\r\n\r\n        } else PositionsList[msg.sender][indexTokenStaked].liquidity -= _amount;\r\n\r\n        // Update the TVL with the token just unstaked\r\n        uint amountTokenUnstakedinEther = uint(StakingLibrary.getLatestPrice(_priceFeedContract)) * _amount/ 10**IERC20Metadata(_token).decimals();\r\n\r\n        // Update the TVL by token\r\n        TVLtoken[_token] -= _amount;\r\n        TVLtokeninEther[_token] -= amountTokenUnstakedinEther;\r\n\r\n        // Update the TVL\r\n        TVL -= amountTokenUnstakedinEther;\r\n\r\n        // Log unstake\r\n        emit unStake(msg.sender, _token, _amount);\r\n\r\n        return amountTokenUnstakedinEther;\r\n\r\n    }\r\n\r\n    function getPosition(address _token)  public view returns(address, uint, uint, uint, uint, uint) {\r\n        uint indexToken = StakingLibrary.getIndexTokenStaked(PositionsList[msg.sender], _token);\r\n         if(PositionsList[msg.sender].length == indexToken){\r\n            return (address(0),0,0,0,0,0);\r\n        \r\n        } else  return (_token, PositionsList[msg.sender][indexToken].liquidity, \r\n        PositionsList[msg.sender][indexToken].paidRewardBLT, PositionsList[msg.sender][indexToken].currentRewardBLT, \r\n        PositionsList[msg.sender][indexToken].lastUpdateReward ,\r\n        PositionsList[msg.sender][indexToken].lastClaimReward);\r\n        \r\n    }\r\n\r\n    receive() external payable {\r\n        \r\n    }\r\n\r\n}",
  "sourcePath": "C:\\Users\\yanni\\Documents\\Formation Alyra\\DefiStaking\\contracts\\Staking.sol",
  "compiler": {
    "name": "solc",
    "version": "0.8.17+commit.8df45f5f.Emscripten.clang"
  },
  "schemaVersion": "3.4.4",
  "updatedAt": "2022-10-02T21:01:12.783Z",
  "networkType": "ethereum",
  "devdoc": {
    "kind": "dev",
    "methods": {},
    "version": 1
  },
  "userdoc": {
    "kind": "user",
    "methods": {},
    "version": 1
  }
}